:024D1C004CC089
:084CC0001247D37F0402456D89
:0C4C6D009003CDE0B40103D38001C3220A
:0B4C85009003CDE07003D38001C32238
:014D1E002272
:064CE400E49003CDF02274
:1044FD009003CE120F5D900524E0FCA3E0FDA3E038
:10450D00FEA3E0FF9003D2120F5DE4FF1230CE7FC9
:06451D00011230CED32292
:074CC8007B017A0379D6227B
:1030CE009005BEEFF09003D26054E0F8A3E0F9A3B0
:1030DE00E0FAA3E0FBE4FFFE7DC87C42120803C0C9
:1030EE0004C005C006C007900511120F694000000C
:1030FE0000D007D006D005D004122742C004C00568
:10310E00C006C007900511120F6940000000900321
:10311E00CEE0FCA3E0FDA3E0FEA3E0FF806CE0F8B0
:10312E00A3E0F9A3E0FAA3E0FBE4FFFE7DC87C4236
:10313E00120803C004C005C006C007900511120F87
:10314E006940000000D007D006D005D004122742F7
:10315E00C004C005C006C0079003CEE0F8A3E0F996
:10316E00A3E0FAA3E0FBE4FFFE7D487C42120803D5
:10317E00C004C005C006C007900511120F694000BB
:10318E000000D007D006D005D004122742D003D0BD
:10319E0002D001D0001208071233DB9005BEE025E5
:1031AE00E025E024DEF582E43403F583120F5D2280
:10494A00EF25E025E024DEF582E43403F583E0FC7C
:0A495A00A3E0FDA3E0FEA3E0FF22AE
:1040F6004E6F6B6961203535313020546573742CF1
:1041060020486168615E5F5E204920616D20736FA3
:1041160020676C616420746F2073656520796F7504
:1041260020616769616E2120446F20796F75207464
:0941360068696E6B20736F3F0095
:05371E004205B640F673
:1043E2009004827440F0A37402F0A3120F5D900453
:1043F200897401F0E4A3F0A304F0A3F0E4A3F0A312
:0C440200F07B017A0479827F01020FB484
:014D1F002271
:1047D3007F007EC27D017C001243E212352D12441C
:0E47E3000E124757E4FD7F011248DA024D1F07
:014D20002270
:014D2100226F
:014D2200226E
:014D2300226D
:014D2400226C
:03000B000225D5F6
:1025D000C2AF80FE321225D485D00B75D008AAE098
:1025E000C28CE58A2443F58AE58C34F6F58CD28CCE
:1025F000EC2411F8E6BC000274FFC39581B414000A
:1026000040CE7901780E16E608700BC2AFE630E1D5
:10261000034418F6D2AF08D9EDEA8BD03007012277
:10262000D50DFCC0E0C0D0C0F0C083C082C000C0E7
:1026300001C002C003C004C005C006C007E50C23EA
:10264000240FF87440C2AF46F6D2AFD207E50CFFB4
:1026500023240FF80F0808BF01047F00780FE6302D
:10266000E4F200E50CC39F5020050C7410250CF813
:10267000E6FDA68108E6AE0CBE000274FFCDF8E8C8
:102680006D60E008E6C0E080F6E50CD39F4027E5EA
:102690000C2411F8E6AE0CBE000274FFFD18E6CD66
:1026A000F8E5816D6006D0E0F61880F5E50C2410A1
:1026B000C8F6150C80D3750D0AE50C23240FF87F9E
:1026C00004C2AFE610E61E30E00310E20C7F0030DB
:1026D000E10730E3047F0854F4547CC6D2AF548041
:1026E0004207C20722F6D2AFD007D006D005D004E9
:1026F000D003D002D001D000D082D083D0F0D0D08F
:0E270000D0E0C207227810A68174006006FFA8
:10270E000876FFDFFB7F01E4780EF608F608DFFAA5
:10271E00780F7630904D1C740193C0E0E493C0E0C6
:10272E00750D0A438901758A3C758CF6D28CD2AF31
:04273E00D2A92200FA
:102C4F00AB07EB75F039A42494F582E43402F583D5
:102C5F00120F6900000000EB75F039A42498F5827B
:102C6F00E43402F583120F6900000000EB75F039B0
:102C7F00A424ACF582E43402F583120F690000003E
:102C8F0000EB75F039A424A8F582E43402F5831221
:102C9F000F69000000009004F7E0FCA3E0FDA3E043
:102CAF00FEA3E0FFEB75F039A4249CF582E4340217
:102CBF00F583120F5D9004FBE0FCA3E0FDA3E0FEA3
:102CCF00A3E0FFEB75F039A424A0F582E43402F5FC
:102CDF0083120F5D9004FFE0FCA3E0FDA3E0FEA3D1
:102CEF00E0FFEB75F039A424A4F582E43402F583F8
:102CFF00120F5DEB75F039A4249CF582E43402F5D4
:102D0F0083E0FCA3E0FDA3E0FEA3E0FFEB75F03949
:102D1F00A424B4F582E43402F583120F5DEB75F051
:102D2F0039A424A0F582E43402F583E0FCA3E0FD8E
:102D3F00A3E0FEA3E0FFEB75F039A424B0F582E425
:102D4F003402F583120F5DEB75F039A424A4F582DC
:102D5F00E43402F583E0FCA3E0FDA3E0FEA3E0FF73
:102D6F00EB75F039A424B8F582E43402F583020F31
:012D7F005DF6
:104B7700EF75F039A424C4F582E43402F583740197
:024B8700F0221A
:104BBF00EF75F039A424C4F582E43402F583E4F0F0
:014BCF0022C3
:101EBF009005BFEFF075F039A424C4F582E4340225
:101ECF00F583E070030220989005BFE0FF75F039AD
:101EDF00A42490F582E43402F583E0F8A3E0F9A39B
:101EEF00E0FAA3E0FBEF75F039A4248CF582E4341B
:101EFF0002F583E0FCA3E0FDA3E0FEA3E0FF1208E0
:101F0F00039005BFE0FB75F039A42494F582E43407
:101F1F0002F583120F5DEB75F039A424A8F582E466
:101F2F003402F583C083C082E0FCA3E0FDA3E0FE92
:101F3F00A3E0FF9005BFE075F039A42494F582E487
:101F4F003402F583E0F8A3E0F9A3E0FAA3E0FB1273
:101F5F000807D082D083120F5D9005BFE0FF75F0A8
:101F6F0039A424A8F582E43402F583E0F8A3E0F95C
:101F7F00A3E0FAA3E0FBEF75F039A424A0F582E407
:101F8F003402F583E0FCA3E0FDA3E0FEA3E0FF1223
:101F9F0008F8C004C005C006C0079005BFE0FF7574
:101FAF00F039A42494F582E43402F583E0F8A3E039
:101FBF00F9A3E0FAA3E0FBEF75F039A4249CF582B6
:101FCF00E43402F583E0FCA3E0FDA3E0FEA3E0FF11
:101FDF001208F8D003D002D001D000120807C004B5
:101FEF00C005C006C0079005BFE0FF75F039A424F7
:101FFF0098F582E43402F583E0F8A3E0F9A3E0FA60
:10200F00A3E0FBEF75F039A42494F582E43402F5D4
:10201F0083E0FCA3E0FDA3E0FEA3E0FF1208039022
:10202F0005BFE075F039A424A4F582E43402F583EA
:10203F00E0F8A3E0F9A3E0FAA3E0FB1208F8D0035D
:10204F00D002D001D0001208079005BFE0FB75F059
:10205F0039A424ACF582E43402F583120F5DEB75DD
:10206F00F039A42494F582E43402F583E0FCA3E074
:10207F00FDA3E0FEA3E0FFEB75F039A42498F582F1
:0A208F00E43402F583120F5DD32242
:10458F00AB0790055AE0FCA3E0FDA3E0FEA3E0FF1C
:10459F00EB75F039A424C0F582E43402F583020FE1
:0145AF005DAE
:1045B000AB0790055FE0FCA3E0FDA3E0FEA3E0FFF6
:1045C000EB75F039A424BCF582E43402F583020FC4
:0145D0005D8D
:1045D100AB07900564E0FCA3E0FDA3E0FEA3E0FFD0
:1045E100EB75F039A42490F582E43402F583020FCF
:0145F1005D6C
:1045F200AB07900569E0FCA3E0FDA3E0FEA3E0FFAA
:10460200EB75F039A424A0F582E43402F583020F9D
:014612005D4A
:10461300AB0790056EE0FCA3E0FDA3E0FEA3E0FF83
:10462300EB75F039A4249CF582E43402F583020F80
:014633005D29
:10463400AB07900573E0FCA3E0FDA3E0FEA3E0FF5D
:10464400EB75F039A424A4F582E43402F583020F57
:014654005D08
:10465500AB07900578E0FCA3E0FDA3E0FEA3E0FF37
:10466500EB75F039A4248CF582E43402F583020F4E
:014675005DE7
:10496400EF75F039A4248CF582E43402F583E0FC7D
:0A497400A3E0FDA3E0FEA3E0FF2294
:10497E00EF75F039A42494F582E43402F583E0FC5B
:0A498E00A3E0FDA3E0FEA3E0FF227A
:10499800EF75F039A42498F582E43402F583E0FC3D
:0A49A800A3E0FDA3E0FEA3E0FF2260
:1049B200EF75F039A4249CF582E43402F583E0FC1F
:0A49C200A3E0FDA3E0FEA3E0FF2246
:1049CC00EF75F039A424A0F582E43402F583E0FC01
:0A49DC00A3E0FDA3E0FEA3E0FF222C
:1049E600EF75F039A424A4F582E43402F583E0FCE3
:0A49F600A3E0FDA3E0FEA3E0FF2212
:104A0000EF75F039A424ACF582E43402F583E0FCC0
:0A4A1000A3E0FDA3E0FEA3E0FF22F7
:104A1A00EF75F039A424A8F582E43402F583E0FCAA
:0A4A2A00A3E0FDA3E0FEA3E0FF22DD
:0529E5009004E9EDF093
:1029EA00E49004F0F0A3F09004ECE0FFA3E090047C
:1029FA00F2CFF0A3EFF09004EAE0FFA3E09004F432
:102A0A00CFF0A3EFF0E49004EEF0A3F09004E9E035
:102A1A00FF9004EEE0FCA3E0FDC39F7480F8EC6431
:102A2A0080984003022ADFED25E0FFEC338F82F520
:102A3A0083120D39FFC39004F3E09F9004F2E095EE
:102A4A00F0501D9004EFE025E0FF9004EEE0338F94
:102A5A0082F583120D39FF9004F2E5F0F0A3EFF04E
:102A6A009004EFE025E0FF9004EEE0338F82F583D7
:102A7A00120D39FFD39004F5E09F9004F4E095F02D
:102A8A00401D9004EFE025E0FF9004EEE0338F82D2
:102A9A00F583120D39FF9004F4E5F0F0A3EFF090FE
:102AAA0004EFE025E0FF9004EEE0338F82F5831215
:102ABA000D39FFAEF09004F1E02FF09004F0E03E03
:102ACA00F09004EFE004F06003022A169004EEE0AE
:102ADA0004F0022A169004F4E0FEA3E0FF9004F347
:102AEA00E02FFF9004F2E03EFEC39004F1E09FFF66
:102AFA009004F0E09EFEF0A3EFF09004E9E024FEDB
:102B0A00FDE434FFFC120CCE9004F0EEF0A3EFF0DB
:012B1A002298
:10372300602A03E600000000000000000000000023
:103733000000000000000000000000000000000086
:0E374300000000000000000000000000000078
:1034830090050AEBF0A3EAF0A3E9F0900003120C15
:103493005BFF900506E0FBA3E0FAA3E0F9A3E0FEDF
:1034A300F582758300EF120C9A90050AE0FBA3E006
:1034B300FAA3E0F9900002120C5BFFEE2401FDE495
:1034C30033FC900506E0FBA3E0FAA3E0F98D828CC0
:1034D30083EF120C9A90050AE0FBA3E0FAA3E0F94C
:1034E300900001120C5BFFEE2402FDE433FC900517
:1034F30006E0FBA3E0FAA3E0F98D828C83EF120CC4
:103503009A90050AE0FBA3E0FAA3E0F9120C42FF4C
:10351300EE2403FDE433FC900506E0FBA3E0FAA3ED
:0A352300E0F98D828C83EF020C9A10
:10434B00900551E0900580F0122B1BE4900552F084
:10435B00900551E0FF1235D6900552E0FEC39F50F9
:10436B001774E62EF582E43403F583E0FF1244D68E
:08437B00900552E004F080D827
:014383002217
:102B1B0090057C120F5D900580E0FFD3940A400373
:102B2B00022C4EEF7003022C4EEF14B40A0040033C
:102B3B00022C4E902B4C75F003A4C58325F0C58356
:102B4B0073022B6A022B80022B97022BAE022BC532
:102B5B00022BDB022BF1022C07022C1D022C3390D3
:102B6B0005067401F0A37403F0A374E6F0A37401DB
:102B7B00F0FB022C479005067401F0A37403F0A33D
:102B8B0074E6F0A37405F07B01022C4790050674E4
:102B9B0001F0A37403F0A374E6F0A37409F07B01B6
:102BAB00022C479005067401F0A37403F0A374E69E
:102BBB00F0A3740DF07B01022C479005067401F015
:102BCB00A37403F0A374E6F0A37411F07B01806C83
:102BDB009005067401F0A37403F0A374E6F0A374DC
:102BEB0015F07B0180569005067401F0A37403F079
:102BFB00A374E6F0A37419F07B0180409005067472
:102C0B0001F0A37403F0A374E6F0A3741DF07B0131
:102C1B00802A9005067401F0A37403F0A374E6F008
:102C2B00A37421F07B0180149005067401F0A3744A
:102C3B0003F0A374E6F0A37425F07B017A05797C8D
:042C4B00123483229A
:1035D600EFD3940A5003EF70037F00229003E67442
:1035E60024F0EF14B40A00400302367890360075D2
:1035F600F003A4C58325F0C5837302361E02362761
:1036060002363002363902364202364B0236540250
:10361600365D02366602366F9003EB7405F07F0660
:10362600229003EF7409F07F0A229003F3740DF0E1
:103636007F0E229003F77411F07F12229003FB7421
:1036460015F07F16229003FF7419F07F1A2290045A
:1036560003741DF07F1E229004077421F07F22223E
:1036660090040B7425F07F262290040F7429F07FB6
:053676002A227F002262
:104B8900900581EEF0A3EFF0A3EBF0A3EAF0A3E91F
:024B9900F02208
:08375100C100C101C102C10366
:104757009004837478F0E4900482F07B017A047902
:0E476700827F0212226DD2A3D2A4D2A5D2A6C6
:014775002221
:0A4C9000EF4E7005EE4F24FFB32233
:10482D00EF24F0600F24F0600E24E0600D2438704A
:0D483D000BA20022A20122A20222A203224D
:103FAD00A2A3E4FE33FF124C90500EA2A3E433FF04
:103FBD00124C905006D2008002C200A2A4E4FE333F
:103FCD00FF124C905007200106D2018002C201A2BF
:103FDD00A5E4FE33FF124C905007200206D202805A
:103FED0002C202A2A6E4FE33FF124C90500620033B
:073FFD0005D20322C20322DA
:02375900C108A5
:10440E009004837405F0E4900482F07B017A0479C1
:10441E00827F0512226D124D087FC8124C24124D58
:07442E000D7FC8124C24D3DE
:014435002264
:054D0800C2CDD208221B
:054D0D00D2CDC2082216
:10456D00900482EFF0900482E0FF14F0EF601212DD
:10457D004D087FC8124C24124D0D7FC8124C24805B
:02458D00E42226
:034D1600A20822CE
:064CEA009005C0EFF0226E
:10399200900586EFF07F337E337D737C3FA3E0F8A2
:1039A200A3E0F9A3E0FAA3E0FB120A9E600C400A2E
:1039B200900587120F693F7333337FCD7ECC7D4CE8
:1039C2007C3D900587E0F8A3E0F9A3E0FAA3E0FBD1
:1039D200120A9E500A900587120F693D4CCCCD9079
:1039E2000586E02404FFC007A3E0FCA3E0FDA3E0FA
:1039F200FEA3E0FF900596120F5DD007122FBF9035
:103A02000587E0FCA3E0FDA3E0FEA3E0FF120B4963
:103A1200900586E025E0249BF582E43405F583EFEA
:023A2200F02290
:1047F1009005C1EFF02404FF1244369005C1E02575
:0E480100E0249AF582E43405F5837401F02278
:10484A009005C2EFF02404FF1245239005C2E0252B
:0D485A00E0249AF582E43405F583E4F022B1
:104C1400EF25E0249AF582E43405F583E024FF22AD
:103DC200E49004C2F0A37408F07B017A0479C27F04
:103DD2000212226D9004C37404F07B017A0479C24A
:103DE2007F0212226DD2A2D2A343BA80E49004C40D
:103DF200F0A3F0A3F0A304F0E4A3F0A3F0A3F0A3D4
:103E0200F0A3F0A3F0A3F0A3F0A3F0A3F0A3F0A318
:103E1200F07B017A0479C47F021216947B017A0442
:0A3E220079C47F0312169453BA7F8F
:013E2C002273
:05209900900410EFF0BF
:10209E00E490041FF0A37480F07B017A04791F7F13
:1020AE000312226DD2B743BA80E4900421F0A3F05C
:1020BE00A3F0A304F0E4A3F0A3F0A3F0A3F0A3F025
:1020CE00A3F0A3740FF0E4A3F0A3F0A3F0A3F0A386
:1020DE00F0900410E0FF7B017A04792112169453DC
:1020EE00BA7F900410E0FF7D10124BF2900410E0C6
:1020FE00FF7D327C00123E96900411E0FCA3E0FDC1
:10210E00A3E0FEA3E0FF900410E0FB75F025A424ED
:10211E0003F582E43403F583120F5D900415E0FCA1
:10212E00A3E0FDA3E0FEA3E0FFEB75F025A42407DA
:10213E00F582E43403F583120F5D900419E0FCA3DD
:10214E00E0FDA3E0FEA3E0FFEB75F025A42415F55A
:10215E0082E43403F583120F5D90041DE0FEA3E0CC
:10216E00FFEB75F025A4240FF582E43403F583EE1E
:10217E00F0A3EFF0EB75F025A42403F582E434030D
:10218E00F583E0F8A3E0F9A3E0FAA3E0FB900410D6
:10219E00E075F025A42407F582E43403F583E0FC12
:1021AE00A3E0FDA3E0FEA3E0FF120803C004C005F8
:1021BE00C006C007900410E075F025A4240FF58228
:1021CE00E43403F583E0FCA3E0FDE4120B10A80455
:1021DE00A905AA06AB07D007D006D005D004120A6F
:1021EE0001900410E0FB75F025A4240BF582E43475
:1021FE0003F583120F5DEB75F025A4240FF582E431
:10220E003403F583E0FCA3E0FDE4120B10A804A94F
:10221E0005AA06AB07900410E075F025A42415F569
:10222E0082E43403F583E0FCA3E0FDA3E0FEA3E02B
:10223E00FF120A01900410E0FB75F025A42419F595
:10224E0082E43403F583120F5DEB75F025A424119F
:0E225E00F582E43403F583120F6900000000DE
:01226C00224F
:052EA900900517EFF099
:102EAE00A3E0FCA3E0FDA3E0FEA3E0FF900517E086
:102EBE00FB75F025A424FEF582E43402F583120F8F
:102ECE005DEB75F025A42419F582E43403F583E057
:102EDE00F8A3E0F9A3E0FAA3E0FB900518E0FCA349
:102EEE00E0FDA3E0FEA3E0FF120A01900517E075D6
:102EFE00F025A4240BF582E43403F583E0F8A3E077
:102F0E00F9A3E0FAA3E0FB1208F8900517E075F0BC
:102F1E0025A42403F582E43403F583E0F8A3E0F955
:102F2E00A3E0FAA3E0FB120807900517E0FB75F08B
:102F3E0025A4241FF582E43403F583120F5DEB758F
:102F4E00F025A4241FF582E43403F583E0FCA3E00E
:102F5E00FDA3E0FEA3E0FFE4FBFA79A07841120A9C
:102F6E000190051C120F5D90051CE0FCA3E0FDA373
:102F7E00E0FEA3E0FF900596120F5D900517E0FFAF
:102F8E00122FBF900517E0FB75F025A424FEF582E5
:102F9E00E43402F583E0FCA3E0FDA3E0FEA3E0FF32
:102FAE00EB75F025A42411F582E43403F583020FAA
:012FBE005DB5
:104A3400EF75F025A42411F582E43403F583E0FC3A
:0A4A4400A3E0FDA3E0FEA3E0FF22C3
:104697009005C3EFF01244369005C3E075F025A4EA
:1046A700241DF582E43403F583E4F0A304F0D32258
:104776009005C4EFF01245239005C4E075F025A41A
:0F478600241DF582E43403F583E4F0A3F0D3227D
:1037C000900553EFF075F00EA4245BF582E4340409
:1037D000F583E0FEA3E0FF7C007D63120CCEEF24B6
:1037E00001FFE43EFE900558E0FD7C00120CBCAAEF
:1037F00006AB07900553E075F00EA4245BF582E458
:103800003404F583E0FEA3E0FF7D63120CCEC3EB2E
:103810009FFDEA9EFCC004C00590045AE0FCE4123F
:103820000B15900554E0F8A3E0F9A3E0FAA3E0FB40
:103830001208F8900456E0F8A3E0F9A3E0FAA3E038
:10384000FB120A01120B49E4FCFD90053B120F5DCF
:0E385000900553E0FFD005D004123F55D3225F
:104384009005C5EBF0C007AE04AF057C017D681253
:104394000CBCAC06AD07E4120B10900554120F5D73
:0F43A4009005C5E0900558F0D0071237C0D3221E
:104BD000EF75F00EA42452F582E43404F583E0FF6F
:014BE00022B2
:074CCF009005C6EFF0D322AF
:1048BE009005C7EFF01246F79005C7E075F00EA40D
:0C48CE002452F582E43404F583E4F02267
:104867009005C8EFF01246D79005C8E075F00EA482
:0D4877002452F582E43404F5837401F0222C
:074CD6009005C9EFF0D322A5
:074CDD009005CAEFF0D3229D
:10400400AB07900529E0FCA3E0FDA3E0FEA3E0FFDD
:10401400EB75F00EA42456F582E43404F583120FF4
:104024005D90052DE0FFEB75F00EA4245AF582E4B3
:104034003404F583EFF090052EE0FEA3E0FFEB756A
:10404400F00EA4245BF582E43404F583EEF0A3EFD0
:04405400F0023E2D0B
:0F4C340074AA2FF582E43405F5837401F0D322BE
:0E4C430074AA2FF582E43405F583E4F0D32241
:014D2500226B
:1048DA00900482EFF0A3EDF0A37401F0E4A3F0A337
:0C48EA00F0A3F07B017A047982024058B0
:103D4800E49004ACF0300963F0E4FF123EF790040D
:103D5800ACE025E02498F582E43404F583EEF0A382
:103D6800EFF09004ACE004F0E0C3940A40DB7B0180
:103D78007A0479989004EA7404F0A3E4F0A3F0A319
:103D8800F07D0A1229E5AC06AD07E4120B10900588
:103D980030120F5D900530E0FCA3E0FDA3E0FEA328
:103DA800E0FFA3120F5D9005308003900534E0FC1E
:093DB800A3E0FDA3E0FEA3E0FF7F
:013DC10022DF
:1048F6009005CBEFF0D2C87F01124C249005CBE097
:0C490600F5C0D2CA7F01124C24C2CA22A4
:1043B3009005ADEBF0A3EAF0A3E9F09005ADE0FBC7
:1043C300A3E0FAA3E0F9120C42FFD39400400F12CA
:0F43D30048F69005AEE475F001120D2380DD224F
:1048840012480FD2CCC2CAC2C97F381249127F0C57
:0D4894001249127F061249127F01024912DB
:104912009005CCEFF0C2C87F01124C24D2CA900598
:0C492200CCE0F5C07F01124C24C2CA2278
:10480F0053C9EF43CA1053C9FE53CAFE53C9FD53D0
:0E481F00CAFD53C9FB53CAFBE4F5B3F5B4223E
:084AB60090059EECF0A3EDF069
:104ABE00E4A3F0A3EFF07B017A0579A0E4FF0222D4
:014ACE006D7A
:054BE1009005CDEFF08E
:0B4BE600E4FF00000FEFB408F900002E
:014BF10022A1
:101A2E000000000000000000004F00000000070052
:101A3E00070000147F147F1400242A7F2A1200232B
:101A4E001308646200364955225000000503000059
:101A5E0000001C224100000041221C000014083E20
:101A6E0008140008083E0808000050300000000866
:101A7E00080808080000606000000020100804023A
:101A8E00003E5149453E0000427F400000426151F8
:101A9E004946002141454B31001814127F10002792
:101AAE0045454539003C4A49493000017109050355
:101ABE0000364949493600064949291E0000363686
:101ACE0000000000563600000008142241000014E9
:101ADE0014141414000041221408000201510906C6
:101AEE0000324979413E007E1111117E007F494935
:101AFE00493E003E41414122007F4141221C007F70
:101B0E0049494941007F09090901003E4149497A85
:101B1E00007F0808087F0000417F410000204041FF
:101B2E003F01007F08142241007F40404040007F6B
:101B3E000204027F007F0408107F003E4141413EB7
:101B4E00007F09090906003E4151215E007F0919F7
:101B5E0029460046494949310001017F0101003FF4
:101B6E004040403F001F2040201F003F4038403F74
:101B7E0000631408146300030478040300615149E0
:101B8E00454300007F4141000015167C16150000EC
:101B9E0041417F00000402010204004040404040E9
:101BAE00000001020400002054545478007F484481
:101BBE00443800384444442000384444487F0038B8
:101BCE005454541800087E090102000C5252523E21
:101BDE00007F080404780000447D4000002040444B
:101BEE003D00007F102844000000417F4000007E31
:101BFE00020C027C007E0402027C0038444444380D
:101C0E00007C1414140800081414187C007C0804BA
:101C1E00040800485454542000043F444020003C23
:101C2E004040207C001C2040201C003C4030403CAA
:101C3E00004428102844000C5050503C004464547A
:101C4E004C440000083641000000007F00000000F8
:101C5E00413608000008040810080008082A1C086D
:101C6E0000081C2A08080004027F02040010207FCE
:0E1C7E002010001C2A322A1C001C2244221CAA
:1046B700C2CBED24FF92CA7E08EF30E704D2C9804F
:0F46C70002C2C9C2C8EF25E0FFD2C8DEECD2CBD9
:0146D60022C1
:10467600E4FD7F801246B77F401246B77BF87A0189
:104686007D01E4FF1246B7EB1B70011AEB4A70F08E
:014696002201
:104B2B00AD07E4FF124B177C547D01E4FF1246B72F
:024B3B00DCF7A5
:014B3D002255
:104B1700AC05EF4480FFEC4440FCE4FD1246B7AF20
:044B2700040246B787
:0742D300E0FF04F0A3E0FD91
:1042DA0074E02BFBEF75F006A4FF124B17E4FC7594
:1042EA00F006EBA4242EF582E5F0341AF583E58274
:1042FA002CF582E43583F583E493FF7D011246B7FA
:05430A000CECB406DA22
:01430F00228B
:1043100090058BEFF0A3EDF0A3EBF0A3EAF0A3E997
:10432000F090058DE0FBA3E0FAA3E0F9120C42FB4C
:10433000601890058BE0C3940E500F1242D3900585
:0B4340008EE475F001120D2380D722DF
:1040AB00900590EFF0A3EDF0A3EBF0A3EAF0A3E9FA
:1040BB00F0900592E0FBA3E0FAA3E0F9120C42FBAF
:1040CB0060289005901242D3900593E475F001128D
:1040DB000D23900590E0B40E06E4F0A3E004F090FD
:0B40EB000591E0B406CBE4F080C72292
:10421200E49005B8F0A304F0FB7A0579B87F0512A3
:10422200226DC2CCD2CCE4FD7F211246B77F0612AA
:1042320046B77F131246B77FC81246B77F20124691
:10424200B77F0C1246B77F401246B77F801246B73F
:03425200024676AB
:10375B004404450000000044044100000000440400
:10376B003D00000000440439000000004404350013
:0A377B0000000044043100000000CB
:103F5500900538EFF0A3ECF0A3EDF0900539E0FC07
:103F6500A3E0FD7F05123E96900539E0FEA3E0FF34
:103F7500900538E0FB75F007A4244DF582E4340480
:103F8500F583EEF0A3EFF090053BE0FCA3E0FDA385
:103F9500E0FEA3E0FFEB75F007A42449F582E434C5
:083FA50004F583120F5DD32225
:1046D7009005CEEFF07F051244369005CEE075F0D9
:1046E70007A4244FF582E43404F5837401F0D32240
:1046F7009005CFEFF02405FF1245239005CFE07515
:10470700F007A4244FF582E43404F583E4F0D322C0
:104B9B00EF75F007A4244FF582E43404F583E02489
:024BAB00FF22E7
:103E2D00E49004D4F0A37480F07B017A0479D47FFC
:103E3D000112226DD297900596120F693F00000076
:103E4D007F05122FBF43BA80E49004D6F0A3F0A3F0
:103E5D00F0A304F0E4A3F0A3F0A3F0A3F0A3F0A368
:103E6D00F0A3740FF0E4A3F0A304F0E4A3F0A30413
:103E7D00F0E4A3F07B017A0479D67F0512169453F2
:093E8D00BA7F7D107F05024BF2A3
:0300B3000231BE59
:1031BE00C0E0C0F0C083C082C0D075D000C000C0D7
:1031CE0001C002C003C004C005C006C007E5F6601A
:1031DE002B53F6DF900445120F28900449E0F8A314
:1031EE00E0F9A3E0FAA3E0FBD3120E9C5061900429
:1031FE0049120F69000000007F05802DE5F6602E54
:10320E0053F6EF900441120F28900450E0F8A3E01B
:10321E00F9A3E0FAA3E0FBD3120E9C5032900450B7
:10322E00120F69000000007F041245238021E5F68D
:10323E00600553F6F78018E5F6600553F6FB800F30
:10324E00E5F6640160028004E5F6600353F6FDD0F6
:10325E0007D006D005D004D003D002D001D000D0C4
:0A326E00D0D082D083D0F0D0E0323F
:10405800120C42F59D900001120C5BFFE5BC549FC9
:104068004FF5BC900002120C5BB4010543BC808084
:104078000353BC7F900003120C5BB40105439720E7
:1040880080035397DF900005120C5BB40104D2AD96
:104098008002C2AD900004120C5BB40103D2BD22B1
:0340A800C2BD2274
:0C4C7900EFB4010443BC802253BC7F2236
:103EF700EFD3940740028051E4F5BDF5BEE5BC540D
:103F0700E044084FF5BC00000000E4FBE5BC30E4EA
:103F17003353BCEFE59730E509E5BD5403ADBEFC6F
:103F2700801DAFBD7C00AD07ED7E007802C333CEA8
:103F370033CED8F9FFE5BE5403FDEEFCEF4DFDAFE0
:0D3F470005AE04220BEBB4FAC37E047F002C
:013F5400224A
:03002B00024D1271
:044D120053BCEF326D
:0F4C24007D367C07ED1D70011C144C70F7DFF11D
:014C3300225E
:034D1900A20A22C9
:10226D00EFD3940540037F0122120C42FED3940359
:10227D0040037F0222EF7041EE700B900001120CB3
:10228D005BF452935294120C42B4010B9000011264
:10229D000C5B4293F45294120C42FEB4020A90006D
:1022AD0001120C5B42934294EEB4030D90000112A7
:1022BD000C5BFEF45293EE4294EF64017043120CEA
:1022CD0042FE700B900001120C5BF452915292EE93
:1022DD00B4010B900001120C5B4291F45292120C5E
:1022ED0042B4020A900001120C5B42914292120C10
:1022FD0042B4030D900001120C5BFEF45291EE42BC
:10230D0092EF64027043120C42FE700B90000112AA
:10231D000C5BF452955296EEB4010B900001120C29
:10232D005B4295F45296120C42B4020A90000112CF
:10233D000C5B42954296120C42B4030D90000112B3
:10234D000C5BFEF45295EE4296EF64037043120C53
:10235D0042FE700B900001120C5BF452B152B2EEC2
:10236D00B4010B900001120C5B42B1F452B2120C8D
:10237D0042B4020A900001120C5B42B142B2120C3F
:10238D0042B4030D900001120C5BFEF452B1EE420B
:10239D00B2EF64047043120C42FE700B90000112F8
:1023AD000C5BF452B352B4EEB4010B900001120C5D
:1023BD005B42B3F452B4120C42B4020A9000011203
:1023CD000C5B42B342B4120C42B4030D90000112E7
:1023DD000C5BFEF452B3EE42B4EF64057043120C85
:1023ED0042FF700B900001120C5BF452C952CAEF00
:1023FD00B4010B900001120C5B42C9F452CA120CCD
:10240D0042B4020A900001120C5B42C942CA120C7E
:10241D0042B4030D900001120C5BFFF452C9EF4260
:04242D00CA7F002240
:10332900EF7034D3ED9498EC940340047C037D98BA
:10333900C3ED9450EC940050047C007D50C2DE90A3
:1033490004B6ECF0A3EDF0C374E89D9004B1F074F9
:10335900039C9004B08073EF64017034D3ED9468DA
:10336900EC940B40047C0B7D68C3ED9450EC940005
:1033790050047C007D50C2DE9004B8ECF0A3EDF05F
:10338900C374B89D9004B3F0740B9C9004B2803A56
:10339900EF64027038D3ED9480EC940740047C0705
:1033A9007D80C3ED9450EC940050047C007D50C2A4
:1033B900DE9004BAECF0A3EDF0AE04FFC374D09F25
:0E33C9009004B5F074079E9004B4F0D2DE229A
:102431009005B0EBF0A3EAF0A3E9F0AD07EDD3947A
:102441000340030225CFED6403704CC2DEF5F9F5BC
:10245100E99005B0E0FBA3E0FAA3E0F9120C42FF1A
:10246100E5A254CF4FF5A2900001120C5BFFE5D914
:1024710054F14FF5D9900004120C5B5401FFE5D9DA
:1024810054FE4FF5D9900005120C5BB40104D2BF84
:102491008002C2BFD2DE229005B0E0FBA3E0FAA326
:1024A100E02404F9E43AFA120C425431120C8890F7
:1024B10005B0E0FBA3E0FAA3E0F9900002120C5B87
:1024C100C39448400FE92404F9E43AFA120C425447
:1024D100CF120C88ED704F9005B0E0FBA3E0FAA39A
:1024E100E0F9900004120C5BFF900002120C5BFEFD
:1024F1004FF5DA900003120C5BFFE5F2543F4FF504
:10250100F2900006120D39FBAAF09004B6EAF0A38E
:10251100EBF0C2049004ADEEF09004BCEAF0A3EB42
:10252100F0F5EAEAF5FAED6401704F9005B0E0FBD1
:10253100A3E0FAA3E0F9900004120C5BFF90000203
:10254100120C5BFE4FF5DB900003120C5BFFE5F311
:10255100543F4FF5F3900006120D39FBAAF0900499
:10256100B8EAF0A3EBF0C2059004AEEEF09004BE21
:10257100EAF0A3EBF0F5EBEAF5FBED6402704F90A6
:1025810005B0E0FBA3E0FAA3E0F9900004120C5BB4
:10259100FF900002120C5BFE4FF5DC900003120C61
:1025A1005BFFE5F4543F4FF5F4900006120D39FD41
:1025B100ACF09004BAECF0A3EDF0C2069004AFEEDB
:0F25C100F09004C0ECF0A3EDF0F5ECECF5FC228B
:1028A8009005B4ECF0A3EDF09005B3EFF0705ED3B3
:1028B800EB9464EA940040047A007B64C3EB9401CF
:1028C800EA940050047A007B01C2DE9005B4E0FE71
:1028D800A3E0FFAD03AC02120CBC7C007D64120CBB
:1028E800CE9004B6EEF0A3EFF07C007D64AF03AEAB
:1028F80002120CCEC374019FFFE49EFE9005B4E063
:10290800FCA3E0FD120CBC9004B00229DD9005B3D5
:10291800E06401705DD3EB9464EA940040047A00AB
:102928007B64C3EB9401EA940050047A007B01C2F3
:10293800DE7C007D64AF03AE02120CCE9005B4E0DD
:10294800FCA3E0FD120CBC9004B8EEF0A3EFF07C01
:10295800007D64AF03AE02120CCEC374019FFFE486
:102968009EFE9005B4E0FCA3E0FD120CBC9004B2FE
:1029780080639005B3E064027062D3EB9464EA94D8
:102988000040047A007B64C3EB9401EA940050048D
:102998007A007B01C2DE7C007D64AF03AE02120CBC
:1029A800CE9005B4E0FCA3E0FD120CBC9004BAEE96
:1029B800F0A3EFF0AE02AF037C007D64120CCEC32F
:1029C80074019FFFE49EFE9005B4E0FCA3E0FD12B5
:0D29D8000CBC9004B4EEF0A3EFF0D2DE22B0
:03003B0002367B0F
:10367B00C0E0C083C082C0D075D000C006C0073088
:10368B00D82AC2D830A5059004B680039004B0E0C8
:10369B00FEA3E0FF9004BDE02FF09004BCE03EF0F1
:1036AB009004BCE0FEA3E0F5EAEEF5FA30D92AC2AD
:1036BB00D930A6059004B880039004B2E0FEA3E0D5
:1036CB00FF9004BFE02FF09004BEE03EF09004BEEC
:1036DB00E0FEA3E0F5EBEEF5FB30DA2AC2DA30A719
:1036EB00059004BA80039004B4E0FEA3E0FF9004BD
:1036FB00C1E02FF09004C0E03EF09004C0E0FEA3C8
:10370B00E0F5ECEEF5FCD007D006D0D0D082D0831C
:03371B00D0E032C9
:051694009005BAEFF023
:10169900E4A3F09005BBE0FFC39406505AEF75F040
:1016A9000AA42448F582E43403F583120F69000083
:1016B90000009005BBE0FF75F00AA4244CF582E414
:1016C9003403F583E4F0EF75F00AA4244DF582E4C0
:1016D9003403F583120F69000000009005BBE07523
:1016E900F00AA42451F582E43403F5837401F090DF
:1016F90005BBE004F0809C43BA80120C42B401059A
:1017090043F180800353F17F900001120C5BB40117
:10171900149005BAE0FF7401A807088002C333D802
:10172900FC42F180139005BAE0FF7401A807088014
:1017390002C333D8FCF452F1900002120C5BB401DD
:101749000543F540800353F5BF900003120C5BB4C9
:1017590001149005BAE0FF7401A807088002C33399
:10176900D8FC42F580139005BAE0FF7401A8070878
:101779008002C333D8FCF452F5900004120C5BB418
:10178900010575F720800353F7DF900005120C5B04
:10179900B4010575F710800353F7EF900006120C9A
:1017A9005BB4010575F708800353F7F7900007123A
:1017B9000C5BB4010575F704800353F7FB9000082F
:1017C900120C5BB4010575F702800353F7FD900015
:1017D90009120C5B90FFF27006E054EFF08004E010
:1017E9004410F090FFF2C083C082E0FF90000A121B
:1017F9000C5BFEEF4ED082D083F09005BAE0146006
:10180900721470030218CF147003021922147003A2
:101819000219751470030219C624056003021A1D02
:1018290090000B120C5B90FF047006E054F7F080F7
:1018390004E04408F090000C120C5B90FF04B40122
:1018490006E04404F08004E054FBF090000D120C13
:101859005B90FF04B40106E04402F08004E054FD0B
:10186900F090000E120C5B90FF04B40103021A13EE
:10187900021A1990000B120C5B90FF147006E054C9
:10188900F7F08004E04408F090000C120C5B90FF24
:1018990014B40106E04404F08004E054FBF0900025
:1018A9000D120C5B90FF14B40106E04402F08004B1
:1018B900E054FDF090000E120C5B90FF14B401038C
:1018C900021A13021A1990000B120C5B90FF247074
:1018D90006E054F7F08004E04408F090000C120C84
:1018E9005B90FF24B40106E04404F08004E054FB5B
:1018F900F090000D120C5B90FF24B40106E0440245
:10190900F08004E054FDF090000E120C5B90FF246F
:10191900B40103021A13021A1990000B120C5B90FE
:10192900FF347006E054F7F08004E04408F09000BA
:101939000C120C5B90FF34B40106E04404F08004FF
:10194900E054FBF090000D120C5B90FF34B40106DB
:10195900E04402F08004E054FDF090000E120C5BAC
:1019690090FF34B40103021A13021A1990000B12E2
:101979000C5B90FF447006E054F7F08004E04408E3
:10198900F090000C120C5B90FF44B40106E0440493
:10199900F08004E054FBF090000D120C5B90FF44C2
:1019A900B40106E04402F08004E054FDF090000E1A
:1019B900120C5B90FF44B40102804F805390000BDE
:1019C900120C5B90FF547006E054F7F08004E04479
:1019D90008F090000C120C5B90FF54B40106E0442F
:1019E90004F08004E054FBF090000D120C5B90FFB2
:1019F90054B40106E04402F08004E054FDF0900084
:101A09000E120C5B90FF54B40106E04401F080040F
:101A1900E054FEF090000F120C5BB4010443F58012
:041A29002253F57FD0
:011A2D002296
:104A4E00EF75F00AA42448F582E43403F583E0FC04
:0A4A5E00A3E0FDA3E0FEA3E0FF22A9
:104A6800EF75F00AA4244DF582E43403F583E0FCE5
:0A4A7800A3E0FDA3E0FEA3E0FF228F
:103E96009005BCECF0A3EDF0AB079005BCE0FEA3EB
:103EA600E0FFE4FCFDEB75F00AA42448F582E43457
:103EB60003F583120F5D43BA8053F57FEB75F00A65
:103EC600A42451F582E43403F583E0FF7E009005D7
:103ED600BCE0FCA3E0FD120CBCAB07AA06E4F9F8B3
:103EE600FF7E367D6E7C011241CE124AE853BA7FC0
:013EF60022A9
:102FBF00900595EFF07F337E337D737C3FA3E0F870
:102FCF00A3E0F9A3E0FAA3E0FB120A9E600C400A0B
:102FDF00900596120F693F7333337FCD7ECC7DCC36
:102FEF007C3C900596E0F8A3E0F9A3E0FAA3E0FBA0
:102FFF00120A9E500A900596120F693CCCCCCD90C8
:10300F000596E0FCA3E0FDA3E0FEA3E0FF9005958D
:10301F00E0FB75F00AA4244DF582E43403F5831226
:10302F000F5D43BA80EB75F00AA42451F582E434A6
:10303F0003F583E0FFE4FCFDFEEB75F00AA42448E2
:10304F00F582E43403F583E0F8A3E0F9A3E0FAA3F3
:10305F00E0FB120D71A804A905AA06AB077F007E3D
:10306F00367D6E7C01120DFCE4120B0B900595E082
:10307F0075F00AA4244DF582E43403F583E0F8A338
:10308F00E0F9A3E0FAA3E0FB1208F8E4FBFA7920D9
:10309F0078411208F8E4FBFA79A07840120807E4A7
:1030AF00FBFA79207841120A01120B49AB07AA06E5
:0F30BF00900595E0FFE4FDFC12385E53BA7F22C6
:104BF200EF75F00AA42451F582E43403F583EDF055
:014C0200228F
:104C0300EF75F00AA42451F582E43403F583E0FF41
:014C1300227E
:0A4C9A0043BA8043F58053BA7F222D
:0A4CA40043BA8053F57F53BA7F2214
:1044360043BA807401A807088002C333D8FC42F54A
:10444600EF75F00AA4244CF582E43403F583740175
:08445600F043F58053BA7F2208
:1045230043BA807401A807088002C333D8FCF4524D
:10453300F5EF75F00AA4244CF582E43403F583E423
:05454300F053BA7F22D5
:104BAD00EF75F00AA4244CF582E43403F583E02478
:024BBD00FF22D5
:104AE800D3E49F74809E400D90FFF1EFF0EE90FFAD
:084AF800F0F07F00227F012293
:10385E00EF14602814603A14604C14605E146070AB
:10386E00240560030238F590FF01EDF0EC90FF00A7
:10387E00F090FF03EBF0EA90FF02806790FF11EDEE
:10388E00F0EC90FF10F090FF13EBF0EA90FF128037
:10389E005290FF21EDF0EC90FF20F090FF23EBF023
:1038AE00EA90FF22803D90FF31EDF0EC90FF30F07A
:1038BE0090FF33EBF0EA90FF32802890FF41EDF05D
:1038CE00EC90FF40F090FF43EBF0EA90FF42801344
:1038DE0090FF51EDF0EC90FF50F090FF53EBF0EABB
:0A38EE0090FF52F07F00227F0122BC
:1032780054696D65723120696E697469616C697A27
:10328800696E672073756363656564200A00546915
:103298006D65723120696E697469616C697A696EED
:1032A80067206661696C6564200A0054696D6572FF
:1032B8003320696E697469616C697A696E67207315
:1032C800756363656564200A0054696D657233200F
:1032D800696E697469616C697A696E67206661698B
:1032E8006C6564200A0054696D65723420696E69E2
:1032F8007469616C697A696E672073756363656563
:1033080064200A0054696D65723420696E697469B5
:10331800616C697A696E67206661696C6564200A08
:0133280000A4
:103785004104730241047402420475000042047747
:10379500000042046F000042046D000041048100F6
:1037A50041046C0041047200410471004404790035
:0A37B50000000044047D0000000045
:10352D00E4900492F0900482F0A3F0A304F0E4A3DD
:10353D00F0A3F0900489F090048774A2F0A3744076
:10354D00F0E490048AF0A3F0A304F0E4A3F0A3F058
:10355D0090049104F090048F74FFF0A37410F07F29
:10356D0001121C8C900492EFF070087BFF7A327977
:10357D0078800A900492E07BFF7A327996124B00A4
:10358D007F03121C8C900492EFF070087BFF7A324F
:10359D0079B3800A900492E07BFF7A3279D1124B95
:1035AD00007B017A04798A7F04121C92900492EFB9
:1035BD00F070087BFF7A3279EE800A900492E07BFE
:0835CD00FF7A33790C124B0068
:0135D50022D3
:10454800900473E0601EA3E0601AEF24FE600B0481
:104558007012900479ECF0A3EDF0AF0590047DECB7
:05456800F0A3EFF022BA
:104A8200EF24FE600804700E900479800390047D88
:0A4A9200E0FEA3E0FF22E4FEFF2295
:10492E00EF24FE600C04701390047BECF0A3EDF00A
:0C493E0022AF0590047FECF0A3EFF02204
:104A9C00EF24FE600804700E90047B800390047F6A
:0A4AAC00E0FEA3E0FF22E4FEFF227B
:104ACF00EF24FE600A047010C28E900473800653A8
:094ADF00D1F79004747402F02276
:1048A100EF24FE600D047014900473E07002D322B3
:0D48B100C322900474E07003D38001C32281
:10479500EF24FE600E047016900473E0B40102D39A
:0F47A50022C322900474E0B40103D38001C32225
:1047B400EF24FE600E047016900473E0B40202D37A
:0F47C40022C322900474E0B40203D38001C32205
:10471700AE071248A14018EF24FE600B047010D2B8
:104727008EE4900473F02243D108E4900474F022DD
:0E4C5100AE071247955005124717D322C32213
:094CAE0090046FE0FEA3E0FF2278
:094CB70090046DE0FEA3E0FF2271
:064CF000900481E0FF22A8
:064CF60090046CE0FF22B7
:064CFC00900472E0FF22AB
:064D0200900471E0FF22A5
:03001B0002418718
:10418700C0E0C0F0C083C082C0D075D000C000C0FE
:1041970006900475E475F001120D23FED390047A9E
:1041A700E095F0900479E09E500EC28E900475E47D
:1041B700F0A3F090047304F0D006D000D0D0D082E2
:0741C700D083D0F0D0E032FC
:03009B0002413FE0
:10413F00C0E0C0F0C083C082C0D075D000C000C046
:10414F0006900477E475F001120D23FED390047EE0
:10415F00E095F090047DE09E500F53D1F7900477D7
:10416F00E4F0A3F090047404F0D006D000D0D0D0C7
:08417F0082D083D0F0D0E032C1
:0300A300023AB06E
:103AB000C0E0C0F0C083C082C0D075D000C000C0DC
:103AC00006C2AF90046FE475F00A120D23FEC3E541
:103AD000F094E8EE9403405190046FE4F0A3F0906A
:103AE000046D75F001120D23FEC3E5F094E8EE9429
:103AF00003403690046DE4F0A3F0900481E004F0FC
:103B0000943C4025E4F090046CE004F0943C4019AF
:103B1000E4F0900472E004F09418400DE4F0900496
:103B200071E004F0B4FF02E4F0D2AFD006D000D0D0
:0A3B3000D0D082D083D0F0D0E03274
:061C8C007B017A0479825D
:101C9200AD07EDD3940440037F0122ED7073120C63
:101CA20042FED3940340037F0222C28CC2A9C2B96E
:101CB2005389F0538E7F538FFE900002120C5BB457
:101CC2000102D2A9900001120C5BB40102D2B9EE5A
:101CD2004289900003120C5BFF7003438E80EFB4C5
:101CE2000203438904900004120C5BB40103438F86
:101CF20001900005120D39E5F0F58C900005120DEA
:101D020039F58A900007120C5BB40102D28C7F0075
:101D120022ED64017076120C42FEC3940340037FED
:101D22000222C28EC2ABC2BB53890F538EBF538FE6
:101D3200FD900002120C5BB40102D2AB90000112C2
:101D42000C5BB40102D2BBEEC454F0428990000392
:101D5200120C5BFF7003438E40EFB40203438940D1
:101D6200900004120C5BB40103438F029000051231
:101D72000D39E5F0F58D900005120D39F58B9000C7
:101D820007120C5BB40102D28E7F0022ED64027056
:101D920063900003120C5BFED3940240037F022285
:101DA200538EE353AFFB538FFB900002120C5BB4D4
:101DB200010343AF04EE7003438E04900003120C40
:101DC2005BB40203438E08900004120C5BB401035F
:101DD200438F04900005120D39E5F0F5D690000509
:101DE200120D39F5D7900007120C5BB40103438E34
:101DF200107F0022ED64037060900003120C5BFE02
:101E0200D3940240037F022253D1F053AFDF9000FC
:101E120002120C5BB4010343AF20EE700343D10204
:101E2200900003120C5BB4020343D106900004122B
:101E32000C5BB4010343D101900005120D39E5F0AA
:101E4200F5D4900005120D39F5D5900007120C5B00
:101E5200B4010343D1087F0022ED6404705C90005A
:101E620003120C5BFED3940240037F022253D10F74
:101E720053AFBF900002120C5BB4010343AF40EEBC
:101E8200700343D120900003120C5BB4020343D1D0
:101E920060900004120C5BB4010343D11090000562
:101EA200120D39FDACF0ECF5D28DD3900007120C77
:0D1EB2005BB4010343D1807F00227F022238
:100FB400900490EBF0A3EAF0A3E9F090048FEFF033
:100FC400640160030211C690000004F0E4A3F0A3DE
:100FD400F0A3F0A3F0A3F0A3F0900493F090049393
:100FE400E0FFC39480501474382FF582E43401F583
:100FF40083E4F0900493E004F080E2E4900493F03E
:10100400900493E0FFC394805014741C2FF582E481
:101014003400F583E4F0900493E004F080E290045B
:1010240090E0FBA3E0FAA3E0F9120C42D394C04091
:10103400037F022290000A120C5BB40104D2BC802C
:1010440002C2BC120C42FFE598543F4FF598EF647E
:10105400C06008EF64406003021140900002120E69
:10106400F87F807E8D7D5B7C00120DFC90049412D1
:101074000F5DE4FFFE7D01FC900494E0F8A3E0F929
:10108400A3E0FAA3E0FBC3120E9C40037F0222906C
:101094000494E0F8A3E0F9A3E0FAA3E0FBC3E49B23
:1010A400FFE49AFE740199FDE498FC900494120FF5
:1010B4005D900490E0FBA3E0FAA3E0F99000011234
:1010C4000C5BFB64017038C28E538EFE5389BF5390
:1010D40089CF438E40900494E0FCA3E0FDA3E0FE9E
:1010E400A3E0FF7808120EAD8F8D900494A3A3A300
:1010F400E0F58BC2AB5389BF538FFDD28E8076EB64
:1011040064027035538EEF438E01538EF7438E0481
:10111400900494E0FCA3E0FDA3E0FEA3E0FF7808C4
:10112400120EAD8FD6900494A3A3A3E0F5D753AFCA
:10113400FB538EF7438E10803C7F0222900490E094
:10114400FBA3E0FAA3E0F9120C42FF70139000082D
:10115400120C5BB40105438E20801A538EDF801578
:10116400EFB48011900008120C5BB4010543878032
:10117400800353877F900490E0FBA3E0FAA3E0F997
:10118400900009120C5BB40104D2AC8002C2AC9092
:101194000007120C5BB40104D29C8002C29C900034
:1011A4000B120C5B54C0FFE5A2543F4FF5A2900014
:1011B4000C120C5BB4010543971080035397EF7F27
:1011C400002290048FE06402600302132890000759
:1011D4007402F0E4A3F0A3F0A3F0A3F0A3F0A3F04F
:1011E400900493F0900493E0FFC39480501474D45B
:1011F4002FF582E43401F583E4F0900493E004F0E5
:1012040080E2E4900493F0900493E0FFC394805050
:1012140014749C2FF582E43400F583E4F090049375
:10122400E004F080E2900490E0FBA3E0FAA3E0F98C
:10123400120C42FF64C06008EF644060030212E8CD
:1012440090000A120C5BB4010543B501800353B549
:10125400FE120C42B4C005439A808003539A7F90D7
:101264000002120EF87F807E8D7D5B7C00120DFCE7
:10127400900494120F5DE4FFFE7D01FC900494E061
:10128400F8A3E0F9A3E0FAA3E0FBC3120E9C400329
:101294007F0222900494E0F8A3E0F9A3E0FAA3E02B
:1012A400FBC3E49BFFE49AFE740199FDE498FC906F
:1012B4000494120F5D538EEF538EF7438E04900403
:1012C40094E0FCA3E0FDA3E0FEA3E0FF7808120E87
:1012D400AD8FD6900494A3A3A3E0F5D753AFFB43FB
:1012E4008E1080037F0222900490E0FBA3E0FAA317
:1012F400E0F9900009120C5BB4010543AF018003CF
:1013040053AFFE900007120C5BB40105439A1080A2
:1013140003539AEF90000B120C5B5401FFE5BA548F
:10132400FE4FF5BA90048FE0640360030214DB906F
:10133400000E7402F0E4A3F0A3F0A3F0A3F0A3F072
:10134400A3F0900493F0900493E0FFC3941C501412
:1013540074542FF582E43402F583E4F0900493E0AE
:1013640004F080E2E4900493F0900493E0FFC394CB
:101374001C5014741C2FF582E43401F583E4F090BE
:101384000493E004F080E2900490E0FBA3E0FAA36D
:10139400E0F9120C42FF64C06008EF64406003028D
:1013A400149B53ACDFEFB4C00543AC80800353AC53
:1013B4007F900490E0FBA3E0FAA3E0F9900002120E
:1013C4000EF87F807E8D7D5B7C00120DFC90049472
:1013D400120F5DE4FFFE7D01FC900494E0F8A3E0AD
:1013E400F9A3E0FAA3E0FBC3120E9C40037F0222A0
:1013F400900494E0F8A3E0F9A3E0FAA3E0FBC3E4CB
:101404009BFFE49AFE740199FDE498FC9004941205
:101414000F5D900490E0FBA3E0FAA3E0F9900001D3
:10142400120C5BFB6402703253ACBF538EEF538ECD
:10143400F7438E04900494E0FCA3E0FDA3E0FEA334
:10144400E0FF7808120EAD8FD6900494A3A3A3E016
:10145400F5D753AFFB438E108040EB6401703543E6
:10146400AC4053D1F053AFDF43D10253D1FB53D13E
:10147400FE900494E0FCA3E0FDA3E0FEA3E0FF786B
:1014840008120EAD8FD4900494A3A3A3E0F5D54322
:10149400D10880067F02227F0222900490E0FBA301
:1014A400E0FAA3E0F9900009120C5BB4010543AF24
:1014B40008800353AFF7900007120C5BB401054397
:1014C400AC10800353ACEF90000B120C5B5402FF82
:1014D400E5BA54FD02168B90048FE06404600302A5
:1014E40016919000157402F0E4A3F0A3F0A3F0A306
:1014F400F0A3F0A3F0900493F0900493E0FFC3945E
:101504001C501474702FF582E43402F583E4F090D7
:101514000493E004F080E2E4900493F0900493E0F8
:10152400FFC3941C501474B82FF582E43401F5837E
:10153400E4F0900493E004F080E2900490E0FBA3D4
:10154400E0FAA3E0F9120C42FF64C06008EF6440C3
:10155400600302164E5384DFEFB4C00543848080D9
:101564000353847F900490E0FBA3E0FAA3E0F99096
:101574000002120EF87F807E8D7D5B7C00120DFCD4
:10158400900494120F5DE4FFFE7D01FC900494E04E
:10159400F8A3E0F9A3E0FAA3E0FBC3120E9C400316
:1015A4007F0222900494E0F8A3E0F9A3E0FAA3E018
:1015B400FBC3E49BFFE49AFE740199FDE498FC905C
:1015C4000494120F5D900490E0FBA3E0FAA3E0F909
:1015D400900001120C5BFB640270325384BF538E83
:1015E400EF538EF7438E04900494E0FCA3E0FDA334
:1015F400E0FEA3E0FF7808120EAD8FD6900494A30A
:10160400A3A3E0F5D753AFFB438E108040EB6402F5
:10161400703543844053D10F53AFBF43D12053D1CE
:10162400BF53D1EF900494E0FCA3E0FDA3E0FEA33C
:10163400E0FF7808120EAD8FD2900494A3A3A3E028
:10164400F5D343D18080067F02227F02229004904A
:10165400E0FBA3E0FAA3E0F9900009120C5BB401EB
:101664000543AF10800353AFEF900007120C5BB437
:10167400010543841080035384EF90000B120C5B2C
:0F1684005404FFE5BA54FB4FF5BA7F00227F03F1
:011693002234
:1044D600900002E02438F582E43401F583EFF09091
:1044E6000002E004F0C394804002E4F0900003E090
:0744F600700404F0D29922CA
:10445E00900009E024D4F582E43401F583EFF09066
:10446E000009E004F0C394804002E4F090000AE0FA
:08447E00700504F0439A0222CC
:10448600900010E02454F582E43402F583EFF090B6
:104496000010E004F0C3941C4002E4F0900011E028
:0844A600700504F043AC022292
:1044AE00900017E02470F582E43402F583EFF0906B
:1044BE000017E004F0C3941C4002E4F0900018E0F2
:0844CE00700504F04384022292
:104B0000C2AF120C42FF600C1244D6740129F9E4C2
:074B10003AFA80EED2AF2259
:104B3E00120C42FF600C12445E740129F9E43AFA39
:034B4E0080EE22D4
:104B5100120C42FF600C124486740129F9E43AFAFE
:034B610080EE22C1
:104B6400120C42FF600C1244AE740129F9E43AFAC3
:034B740080EE22AE
:03002300023CC9D3
:103CC900C0E0C083C082C0D075D000C006C0073034
:103CD900982DC298900006E07025900004E0C394E6
:103CE900804002E4F0900004E0FF04F0741C2FF51A
:103CF90082E43400F583E599F09000057405F0300D
:103D09009930C299900002E0FF900001E0FE6F60D7
:103D19001C74382EF582E43401F583E0F59990009E
:103D290001E004F0C394804009E4F08005900003A9
:0F3D3900E4F0D007D006D0D0D082D083D0E032D3
:03004300023B3A43
:103B3A00C0E0C083C082C0D075D000C006C007E50F
:103B4A009A30E02E539AFE90000DE0702590000BFB
:103B5A00E0C394804002E4F090000BE0FF04F074AC
:103B6A009C2FF582E43400F583E59BF090000C74F9
:103B7A0005F0E59A30E131539AFD900009E0FF9093
:103B8A000008E0FE6F601C74D42EF582E43401F55F
:103B9A0083E0F59B900008E004F0C394804009E4B8
:103BAA00F0800590000AE4F0D007D006D0D0D08289
:053BBA00D083D0E032D1
:03008B00023BBF76
:103BBF00C0E0C083C082C0D075D000C006C007E58A
:103BCF00AC30E02E53ACFE900014E0702590001244
:103BDF00E0C3941C4002E4F0900012E0FF04F07484
:103BEF001C2FF582E43401F583E5ADF090001374DA
:103BFF0005F0E5AC30E13153ACFD900010E0FF90E3
:103C0F00000FE0FE6F601C74542EF582E43402F551
:103C1F0083E0F5AD90000FE004F0C3941C4009E47D
:103C2F00F08005900011E4F0D007D006D0D0D082FC
:053C3F00D083D0E0324B
:03009300023C44E8
:103C4400C0E0C083C082C0D075D000C006C007E504
:103C54008430E02E5384FE90001BE0702590001900
:103C6400E0C3941C4002E4F0900019E0FF04F074F7
:103C7400B82FF582E43401F583E585F090001A74D9
:103C840005F0E58430E1315384FD900017E0FF90A6
:103C94000016E0FE6F601C74542EF582E43402F5C5
:103CA40083E0F585900016E004F0C3941C4009E419
:103CB400F08005900018E4F0D007D006D0D0D08270
:053CC400D083D0E032C6
:0E4C5F00E4F5C7F5C5F5C675C3FF75C4FF22A1
:10425500AD07AC06C2AF75C78075C501ECF5C3AF38
:10426500058FC475C65A75C6A500E5C2120C880D22
:10427500BD00010C740129F9E43AFA90054474FF74
:0F428500F5F0120D2345F070D3124C5FD2AF222B
:10473700AD07AC06C2AFECF5C3AF058FC475C78034
:1047470075C50375C65A75C6A500124C5FD2AF2250
:10429400AD07AC06C2AF75C78075C502ECF5C3AFF8
:1042A400058FC4120C42F5C275C65A75C6A5000D19
:1042B400BD00010C740129F9E43AFA90054B74FF2E
:0F42C400F5F0120D2345F070D3124C5FD2AF22EC
:10080000020BB5E86480F8E933E83360110460F066
:10081000ED33EC337009E8FCE9FDEAFEEBFF22045E
:1008200060DED3EB9FEA9EE99DE8C2E78CF0C2F759
:1008300095F0400CE8CCF8E9CDF9EACEFAEBCFFB25
:10084000120B8085D0F05804700320D5B3E80470F3
:10085000075002B2D5020BBF92D5EC0460F7E4CC8E
:10086000C0E0C398F8603B94186008400DD0E0FBEE
:10087000020B97E4FBFAC9FC8028E830E406E4C9DF
:10088000FBE4CAFCE830E305E4C9CACBFCE8540742
:100890006010F8C3E913F9EA13FAEB13FBEC13FC4D
:1008A000D8F130F52FC3E49CFCEF9BFFEE9AFEEDF0
:1008B00099FDD0E0FBEF4E4D4C701222DB03020B92
:1008C000BCEC2CFCEF33FFEE33FEED33FDED30E7F7
:1008D000EB020B97EF2BFFEE3AFEED39FDD0E0FB7C
:1008E00050130BBB0003020BBFED13FDEE13FEEF25
:0808F00013FFEC13FC020B974F
:1008F800EC4D6011E8497017ED33EC3304600DE4FA
:10090800FCFFFEFD22E933E8330470F8020BB51250
:100918000B8058046009E4CC248150062850090251
:100928000BBF284003020BBCC0E0EB4A7044B980FF
:1009380006D0E0FB020BABEF4E701CBD8008EBFF4E
:10094800EAFEE9FD80EBE98DF0A4FEE5F00209E19D
:10095800E9CDF9EAFEEBFFEF89F0A4FCE5F0CE89DA
:10096800F0A42EFFE435F0CD89F0A42DFEE435F097
:100978008067EF4E7005BD80D780C3EF8BF0A4ACC5
:10098800F0EE8BF0A42CFCE435F0F8EF8AF0A42C00
:10099800E5F038FCE433CB8DF0A42CFCE5F03BF813
:1009A800EE8AF0A42CFCE5F038F8E433CF89F0A403
:1009B8002CFCE5F038CF3400CE89F0A42FFFE5F009
:1009C8003EFEE433C98DF0A42EFEE5F039CD8AF061
:1009D800A42FFFE5F03EFEE43DFD33D0E0FB5007D9
:1009E8000BBB000F020BBFEC2CFCEF33FFEE33FE0A
:0609F800ED33FD020B9738
:1009FE00020BBFEC5D046005E859047003020BB5F1
:100A0E00120B80580460F6EC4860F2EC7004FDFEA8
:100A1E00FF22C860DB2481C85009C39860025006CB
:100A2E00020BBC9850CAF582E9294B4A7005AB827D
:100A3E00020BAB75F0007C1A7880C3EF9BEE9AED3B
:100A4E0099400DC3EF9BFFEE9AFEED99FDE842F043
:100A5E00DC23ACF0D0E0FFD0E0FED0E0FDAB822096
:100A6E00E7101BEB60BAEC2CFCEF33FFEE33FEED20
:100A7E0033FD020B97E803F830E705C0F075F00080
:100A8E00EF2FFFEE33FEED33FD40B830E7C280AA04
:100A9E0074F8CC6480CCC86480C8F582046043C30B
:100AAE00EB9FF5F0EA9E42F0E99D42F0E89C45F09E
:100ABE0060305018E5825FFFE582F42B5582FB50C3
:100ACE00210ABA001D09B90019088016E5825BFBE0
:100ADE00E582F42F5582FF50090EBE00050DBD00B4
:100AEE00010CC3EB9FF5F0EA9E42F0E99D42F0E85F
:0D0AFE009C45F06007CC4820E701B3EC22D6
:100B0B0075F020800E75F010800575F0087D007E65
:100B1B00007F003392D530D503120E8EEC3340108C
:100B2B00EF33FFEE33FEED33FDEC33FCD5F0ED226E
:0E0B3B00E5F0247EA2D513CC92E7CDCEFF22AA
:100B4900EDD2E7CD33EC3392D524814006E4FFFEA4
:100B5900FDFC22FCE4CFCECDCC24E0501174FF8003
:100B6900EDC3CC13CCCD13CDCE13CECF13CF0470A0
:070B7900F030D5DE020E8E04
:1033D700020BB522EDA2E7D2E7F9EC3340F260F336
:1033E700B4FF08ED547F70E8020BBFF82481C2E0F8
:1033F700C0E0F40428FAC313FCED92E7FD9005A2A0
:10340700120F5DEEA2E7E9BA7F02C31334009400FE
:10341700FA75F091A4E5F013F494FE8AF0A433E56D
:10342700F033248CD313FDE492E7FE7F007C3F75D5
:103437008302ECC0E0F8EDC0E0F9EEC0E0FAEFC0BF
:10344700E0FB8583F09005A2120EC085F083120A77
:1034570001D0E0FBD0E0FAD0E0F9D0E0F81208079D
:10346700ED6480FD30E7011CD583C7ED33CC33F81D
:0C347700D0E0A2E71328C313CC13FD2201
:1027420090050D120F5DE4FFFE7D807C3F90050D2C
:10275200E0F8A3E0F9A3E0FAA3E0FB120A9E7006F8
:1027620090050D02289C90050DE0FCA3E0FDA3E07E
:10277200FEA3E0FF120BCAFBA3E0FCA3E0FDA3E073
:10278200FEA3E0FF120BCAFFB40108E4FFFE7D8046
:102792007C3F22EF64046029EB64046024EBB40103
:1027A20030E4FFFEFDFC900511E0F8A3E0F9A3E0A0
:1027B200FAA3E0FB120A9E60084006E4FFFEFDFC5D
:1027C20022900511120F69FFFFFFFF9005110228E9
:1027D2009CE4900515F0A3F0FFFEFDFC90050DE0D2
:1027E200F8A3E0F9A3E0FAA3E0FB120A9E505F907F
:1027F2000511E0FCA3E0FDA3E0FEA3E0FF120B49FC
:10280200900515EEF0A3EFF0FDCCEECCEC120B1020
:10281200C8ECC8C9EDC9CAEECACBEFCB900511E02E
:10282200FCA3E0FDA3E0FEA3E0FF120803E4FBFA31
:10283200F9F8120A9E708A90050DE0FCA3E0FDA350
:10284200E0FEA3E0FF120BE490050D120F5D900570
:102852000DE0FCA3E0FDA3E0FEA3E0FF122DB49087
:102862000511E0F8A3E0F9A3E0FAA3E0FB1208F8EF
:10287200123930900511120F5D900516E030E01705
:10288200900511E0FCA3E0FDA3E0FEA3E0FF120B24
:10289200E4900511120F5D900511E0FCA3E0FDA389
:0628A200E0FEA3E0FF22AE
:100B8000E9D2E7C933E833F892D5EDD2E7CD33ECBB
:070B900033FC5002B2D52234
:100B9700EC30E7100FBF000C0EBE00080DBD0004BF
:100BA7000BEB6014A2D5EB13FCED92E7FD2274FF6B
:100BB700FCFDFEFF22E480F8A2D574FF13FC7D80C4
:030BC700E480EFD8
:100BCA00ED33EC33601004700FED547F700574023E
:0A0BDA0092E0227404220422E422B7
:100BE400ED33EC33600A047003BD8004ECB2E7FC1F
:010BF40022DE
:1038F80033DA929E35B16011377FE5FE392184892C
:103908003AAEC3FF3C1D955B3D6358473E75FDF0DD
:103918003F3172183F800000C2D5020BBF020BB5C1
:10392800BD80FA50F3020BBCED33EC330460F17B3D
:103938003B7AAA79B8783F1208F8ED33EC3392D580
:10394800247B5011A2D570DB500BED448024045029
:1039580004A2D580CEEFFBEEFAEDF9ECF8120B4994
:10396800EFF582F404FC120B15120807C082903898
:10397800F87409120C04ED33CC33D0F092D525F04D
:0A398800A2D57001C313CC13FD2279
:102D80003E9248DA3ECCCCCD3F2AAAAB40000000B0
:102D90003F8000003F9837F03FB504F33FD744FC35
:102DA0003E3172173EB172173F0515913EDE5BD979
:102DB000D20B8002C20BEDD2E7F8CD33EC330470B6
:102DC0000BBD800592D5020BBF020BB540FBD3149F
:102DD00060F2F5F07C3FEE7A00C39496C8948B4085
:102DE000230AC89469C8941A401A0AC89468C894F7
:102DF0001F40110AC8945AC89425400805F07A006B
:102E0000CDC2E7CDC0F09005A6120F5DEA2323C026
:102E1000E02490F582E4342DF583120EE8120807C1
:102E2000ECC0E0EDC0E0EEC0E0EFC0E0120ECC90F0
:102E300005A6120EDC120803D0E0FBD0E0FAD0E0C9
:102E4000F9D0E0B2E7F8120A019005A6120F5D90E2
:102E50002D807403120BF59005A6120EDC1208F8F3
:102E6000D0E0600F249CF582E4342DF583120EE847
:102E70001208079005A6120F5DD0E0C3947FFDE411
:102E80009400FC120B107B187A727931783F12088B
:102E9000F89005A6120EDC120807300B0B7BD97ACE
:092EA0005B79DE783E1208F8228D
:100BF500C0E0EFFBEEFAEDF9ECF81208F8D0E0F5FD
:100C0500F0EFFBEEFAEDF9ECF8120ECCA3A3A3A3DB
:100C1500E8C0E0E9C0E0EAC0E0EBC0E0C0F01208DF
:100C2500F8120EE8A3A3A3A3120807D0F0D0E0FBA7
:0D0C3500D0E0FAD0E0F9D0E0F8D5F0D422FC
:03000000023A249D
:0C3A2400787FE4F6D8FD758121023A6B32
:100C4200BB010689828A83E0225002E722BBFE02B0
:090C5200E32289828A83E49322E3
:100C5B00BB010CE58229F582E5833AF583E022504E
:100C6B0006E92582F8E622BBFE06E92582F8E22298
:0D0C7B00E58229F582E5833AF583E49322B2
:100C8800BB010689828A83F0225002F722BBFE014B
:020C9800F32245
:100C9A00F8BB010DE58229F582E5833AF583E8F090
:100CAA00225006E92582C8F622BBFE05E92582C83C
:020CBA00F22224
:100CBC00EF8DF0A4A8F0CF8CF0A428CE8DF0A42E4C
:020CCC00FE2206
:100CCE00BC000BBE0029EF8DF084FFADF022E4CC0A
:100CDE00F875F008EF2FFFEE33FEEC33FCEE9DECD3
:100CEE00984005FCEE9DFE0FD5F0E9E4CEFD22ED19
:100CFE00F8F5F0EE8420D21CFEADF075F008EF2F63
:100D0E00FFED33FD4007985006D5F0F222C398FD53
:050D1E000FD5F0EA22F0
:100D2300C5F0F8A3E028F0C5F0F8E582158270025B
:060D33001583E038F022F8
:100D3900BB0110E58229F582E5833AF583E0F5F0F8
:100D4900A3E0225009E92582F886F008E622BBFED5
:100D59000AE92582F8E2F5F008E222E5832AF5831B
:080D6900E993F5F0A3E99322E0
:100D7100E88FF0A4CC8BF0A42CFCE98EF0A42CFC21
:100D81008AF0EDA42CFCEA8EF0A4CDA8F08BF0A49F
:100D91002DCC3825F0FDE98FF0A42CCD35F0FCEBFE
:100DA1008EF0A4FEA9F0EB8FF0A4CFC5F02ECD39C3
:0F0DB100FEE43CFCEAA42DCE35F0FDE43CFC2230
:100DC00075F008758200EF2FFFEE33FECD33CDCCEA
:100DD00033CCC58233C5829BED9AEC99E58298406D
:100DE0000CF582EE9BFEED9AFDEC99FC0FD5F0D64A
:100DF000E4CEFBE4CDFAE4CCF9A88222B800C1B974
:100E00000059BA002DEC8BF084CFCECDFCE5F0CBB1
:100E1000F97818EF2FFFEE33FEED33FDEC33FCEBEA
:100E200033FB10D703994004EB99FB0FD8E5E4F9A5
:100E3000FA227818EF2FFFEE33FEED33FDEC33FC92
:100E4000C933C910D7059BE99A4007EC9BFCE99A86
:100E5000F90FD8E0E4C9FAE4CCFB2275F010EF2FCB
:100E6000FFEE33FEED33FDCC33CCC833C810D707CB
:100E70009BEC9AE899400AED9BFDEC9AFCE899F806
:0E0E80000FD5F0DAE4CDFBE4CCFAE4C8F92299
:1041CE00C2D5E830E70FB2D5E4C39BFBE49AFAE41C
:1041DE0099F9E498F8EC30E717B2D5124204120DB3
:1041EE00FCE4C39BFBE49AFAE499F9E498F88003A3
:1041FE00120DFC30D50DE4C39FFFE49EFEE49DFD41
:04420E00E49CFC220E
:0E0E8E00C3E49FFFE49EFEE49DFDE49CFC2275
:100E9C00EB9FF5F0EA9E42F0E99D42F0E89C45F0AC
:010EAC002223
:100EAD00E8600FECC313FCED13FDEE13FEEF13FF23
:030EBD00D8F12247
:0C0EC000E0FCA3E0FDA3E0FEA3E0FF22A5
:100ECC00E493FC740193FD740293FE740393FF226C
:0C0EDC00E0F8A3E0F9A3E0FAA3E0FB2299
:100EE800E493F8740193F9740293FA740393FB2260
:100EF800BB010DE58229F582E5833AF583020EDC14
:100F08005007E92582F8020F9ABBFE07E92582F807
:100F1800020FA7E58229F582E5833AF583020EE8F8
:100F28007401FF3395E0FEFDFCA3A3A3E0CF2FF0EF
:100F3800E582158270021583E0CE3EF0E5821582C7
:100F480070021583E0CD3DF0E582158270021583AD
:050F5800E0CC3CF0229A
:0C0F5D00ECF0A3EDF0A3EEF0A3EFF02207
:100F6900A8828583F0D083D082120F80120F80125D
:100F79000F80120F80E473E493A3C583C5F0C58382
:100F8900C8C582C8F0A3C583C5F0C583C8C582C8D2
:010F99002235
:103A3000022705E493A3F8E493A34003F68001F280
:103A400008DFF48029E493A3F85407240CC8C33397
:103A5000C4540F4420C8834004F456800146F6DF66
:103A6000E4800B010204081020408090371EE47EA1
:103A7000019360BCA3FF543F30E509541FFEE4935B
:103A8000A360010ECF54C025E060A840B8E493A322
:103A9000FAE493A3F8E493A3C8C582C8CAC583CA4D
:103AA000F0A3C8C582C8CAC583CADFE9DEE780BE05
:0137BF000009
:0D0F9A00E6FB08E6F908E6FA08E6CBF822C7
:0D0FA700E2FB08E2F908E2FA08E2CBF822CA
:00000001FF
