:025666004C7482
:0256680053EFFE
:02566A00540DDD
:02566C00523BAF
:02566E0057BE25
:0256700057AF32
:02567200505294
:0256740048DF0D
:02567600487674
:02567800385E9A
:103741002825662C256629206973206172726976A5
:10375100616C0A002825662C256629206973206181
:1037610072726976616C2C746D70203D2025642025
:103771000A0072696768740D0A006C6566740D0A47
:1037810000646F776E0D0A0075700D0A00646F7723
:103791006E20616E64206C6566740D0A00646F773B
:1037A1006E20616E642072696768740D0A0075701D
:1037B10020616E64206C6566740D0A007269676829
:1037C1007420616E642075700D0A006C656674204A
:1037D10067617465206973206F6E0D0A006C656600
:1037E100742067617465206973206F66660D0A0035
:1037F10072696768742067617465206973206F6EF0
:103801000D0A0072696768742067617465206973C5
:10381100206F66660D0A0075702067617465206906
:1038210073206F6E0D0A00757020676174652069E1
:1038310073206F66660D0A00646F776E206761748E
:1038410065206973206F6E0D0A00646F776E2067C3
:0D385100617465206973206F66660D0A00C2
:103EAA0041046E0241041A0244042B40A00000445B
:103EBA00042F41A00000440402000000004404064C
:043ECA0000000000F4
:104C74001256247F021252CF90042FE0FCA3E0FDD1
:104C8400A3E0FEA3E0FF9002901211D090042BE069
:104C9400FCA3E0FDA3E0FEA3E0FF1254F97F0112A0
:104CA400259E7F0212259E7F0312259E7F051225D5
:104CB4009E7F0412259E7F0612259EE4FF0226276E
:1056A200125848BF010CE4FBFA7D057F021226B0B6
:0256B20080EE88
:0156B40022D3
:1050AD0090042FE0FCA3E0FDA3E0FEA3E0FF90033E
:1050BD00411211D090042BE0FCA3E0FDA3E0FEA370
:0B50CD00E0FF1255151256A2024DEB39
:084A6B007F0A7ED77DA37C3D8C
:104A73009003391211D012584178667C047D017E6F
:104A8300007F08120EC4900339E0FCA3E0FDA3E00D
:104A9300FEA3E0FF90046AE0F8A3E0F9A3E0FAA321
:104AA300E0FB1208079003411211D0900466E0FC6A
:104AB300A3E0FDA3E0FEA3E0FF1255151256A202E8
:024AC3004DEBB9
:084AC5007F0A7ED77DA37C3D32
:104ACD009003391211D012584178667C047D017E15
:104ADD00007F08120EC4900339E0F8A3E0F9A3E0BB
:104AED00FAA3E0FB90046AE0FCA3E0FDA3E0FEA3C3
:104AFD00E0FF1208039003411211D0900466E0FC10
:104B0D00A3E0FDA3E0FEA3E0FF1255151256A2028D
:024B1D004DEB5E
:0847A2007F0A7ED77DA37C3D58
:1047AA009003391211D012584178667C047D017E3B
:1047BA00007F08120EC4900339E0F8A3E0F9A3E0E1
:1047CA00FAA3E0FB900466E0FCA3E0FDA3E0FEA3ED
:1047DA00E0FF120803C004C005C006C00790046ABF
:1047EA00E0FCA3E0FDA3E0FEA3E0FF900341121169
:1047FA00D0D007D006D005D0041255151256A20201
:02480A004DEB74
:08480C007F0A7ED77DA37C3DED
:104814009003391211D012584178667C047D017ED0
:10482400007F08120EC4900339E0FCA3E0FDA3E06E
:10483400FEA3E0FF900466E0F8A3E0F9A3E0FAA386
:10484400E0FB120807C004C005C006C00790046A54
:10485400E0FCA3E0FDA3E0FEA3E0FF9003411211FE
:10486400D0D007D006D005D0041255151256A20296
:024874004DEB0A
:104B1F00E4900639F0A3F0E4900639F0A3F0124ABE
:104B2F006B90063AE004F07006900639E004F0C38B
:104B3F0090063AE09464900639E0940040E0E490E7
:104B4F000639F0A3F0C390063AE09464900639E07A
:104B5F00940050C3124AC590063AE004F070E690F4
:074B6F000639E004F080DECE
:104ED9009006477406F0900647E0FCE4120B1512A1
:104EE9004A73900647E0FCE4120B15124814900629
:104EF90047E0FCE4120B15124ACD900647E0FCE4AA
:084F0900120B151247AA80CE1D
:103C4400E490063BF0A3F090063BF0A3F09003A0B1
:103C540074FFF0A37437F0A37441F0900402E0FC05
:103C6400A3E0FDA3E0FEA3E0FF9003A31211D09014
:103C74000406E0FCA3E0FDA3E0FEA3E0FF9003A79D
:103C84001211D07B017A0479331219B27B017A04C0
:103C9400793312563B900402E0FCA3E0FDA3E0FE5E
:103CA400A3E0FFE4FBFA7980783F1208079004024E
:103CB4001211D0E4FFFEFD7C40900402E0F8A3E082
:103CC400F9A3E0FAA3E0FB1208F89004061211D05D
:103CD400900406E0FCA3E0FDA3E0FEA3E0FF900354
:103CE400411211D0900402E0FCA3E0FDA3E0FEA386
:103CF400E0FF1255151256A2124DEB90063CE0045B
:103D0400F0700690063BE004F0C390063CE0940E8D
:103D140090063BE0648094805003023C510250AD15
:104F110090046EE0602814601B24FE600D0470276D
:104F2100E4FF12575BEF601FD3227F0112575BEF43
:104F31006015D3227F0212575BEF600BD3227F03F0
:084F410012575BEF6001D3225F
:1050D80090046EE014601D24FE600E0470197F0AAF
:1050E8007ED77DA37C3D0247AA7F0A7ED77DA37C1D
:0850F8003D024814124A6B222C
:104F490090046EE0602814601B24FE600D04702735
:104F59007F0112575BEF601FD322E4FF12575BEF0B
:104F69006015D3227F0312575BEF600BD3227F02B8
:084F790012575BEF6001D32227
:1051A00090046EE0601D24FD600E0470197F0A7E7D
:1051B000D77DA37C3D0248147F0A7ED77DA37C3D2A
:0751C0000247AA124A6B220C
:1052150090046EE0601C14600E1470197F0A7ED72E
:105225007DA37C3D024A737F0A7ED77DA37C3D0228
:0652350048141247A222FA
:062BDA009005A81211D0C5
:102BE000E49005B0F0A3F090042BE0FCA3E0FDA37B
:102BF000E0FEA3E0FF9005B21211D090042FE0FC9C
:102C0000A3E0FDA3E0FEA3E0FF9005B61211D09073
:102C100005BA1211DC448000009005BE1211DC439D
:102C2000B40000E49005B0F0A3F09005B0E0FCA380
:102C3000E0FDEC120B109005BAE0F8A3E0F9A3E078
:102C4000FAA3E0FB120A9E5003022DA39003A07486
:102C5000FFF0A37437F0A37455F09005B2E0FCA325
:102C6000E0FDA3E0FEA3E0FF9003A31211D09005C6
:102C7000B6E0FCA3E0FDA3E0FEA3E0FF9003A712F3
:102C800011D09005B0E0FFA3E09003ABCFF0A3EF2D
:102C9000F07B017A0479331219B27B017A0479331B
:102CA00012563B9005BEE0FCA3E0FDA3E0FEA3E0CE
:102CB000FFC004C005C006C0079005BAE0F8A3E055
:102CC000F9A3E0FAA3E0FBE4FFFE7DB47C43120A23
:102CD00001A804A905AA06AB07D007D006D005D0E5
:102CE000041208039005BE1211D07F4D7EF37D8E35
:102CF0007C3C9005BEE0F8A3E0F9A3E0FAA3E0FB7A
:102D00001208F8122FB2E4FBFA79A078401208F802
:102D10009005A8E0F8A3E0F9A3E0FAA3E0FB12080D
:102D2000079005B21211D07F4D7EF37D8E7C3C90D2
:102D300005BEE0F8A3E0F9A3E0FAA3E0FB1208F86F
:102D4000122FC8E4FBFA79A078401208F89005AC7D
:102D5000E0F8A3E0F9A3E0FAA3E0FB12080790056E
:102D6000B61211D09005B6E0FCA3E0FDA3E0FEA3EF
:102D7000E0FF9003411211D09005B2E0FCA3E0FD0A
:102D8000A3E0FEA3E0FF1255151256A2124DEB90E0
:102D900005B1E004F06003022C2A9005B0E004F0D5
:062DA000022C2A0250ADD6
:10385E00E4FF12575BEF60030238D17F0112575B12
:10386E00EF600C1247A27BFF7A37797B0239547FC7
:10387E000212575BEF600C124AC57BFF7A377982D2
:10388E000239547F0312575BEF600C124A6B7BFFB9
:10389E007A3779890239547F0312575BEF60147FB0
:1038AE000212575BEF600C124A6B7BFF7A377989F5
:1038BE00023954E4FF12575BEF60147F0112575B1D
:1038CE00EF600C12480C7BFF7A3779730239547F04
:1038DE000212575BEF60177F0112575BEF600F12FA
:1038EE004AC51247A27BFF7A37798E0239547F027E
:1038FE0012575BEF6016E4FF12575BEF600E124A31
:10390E00C512480C7BFF7A37799E803A7F03125797
:10391E005BEF60167F0112575BEF600E124A6B125F
:10392E0047A27BFF7A3779AF801CE4FF12575BEF1B
:10393E0060197F0312575BEF601112480C124A6B2D
:10394E007BFF7A3779BD12563B8003124A6BE4FB3C
:0B395E00FA7D467F021226B002385EA0
:105052007F007E007DA07C40124A737F007E007D2F
:10506200A07C401248147F007E007DA07C40124A42
:0E507200CD7F007E007DA07C401247AA80D238
:1048DF00E4FF12575BEF7BFF60067A3779CC8004D9
:1048EF007A3779DE12563B7F0112575BEF7BFF6001
:1048FF00067A3779F180047A38790412563B7F02B1
:10490F0012575BEF7BFF60067A38791880047A388C
:10491F00792812563B7F0312575BEF7BFF60067AB5
:10492F0038793980047A38794B12563BE4FBFA7D9B
:08493F000A7F021226B08098E5
:10487600E4FF125652AC06AD07E4120B109003D1BA
:104886007401F01234E47F01125652AC06AD07E40F
:10489600120B109003D17402F01234E47F02125608
:1048A60052AC06AD07E4120B109003D17403F0125C
:1048B60034E47F03125652AC06AD07E4120B109097
:1048C60003D17404F01234E47F04125021E4FBFA9D
:0948D6007D0A7F021226B08097D2
:0F57AF00123258E4FBFA7D147F021226B080F10B
:0F57BE00124736E4FBFA7D147F021226B080F109
:1053EF00E4FF1257265004E4FD80037D02E4FF1210
:0E53FF0057CDE4FBFA7D017F021226B080E25A
:10540D007F011257265004E4FD80027D027F0112B8
:0E541D0057CDE4FBFA7D017F021226B080E23B
:10523B00E4FF12576CEF60087F0112576CEF70049C
:10524B007F018002E4FF12584EE4FBFA7D037F02DC
:05525B001226B080DB0B
:104FEE00445F6C656674576972654C656E6774686C
:104FFE002069732025660D0A00445F726967687424
:10500E00576972654C656E677468206973202566F2
:03501E000D0A0078
:06584800900510E0FF22B4
:06584E00900510EFF022AE
:104DEB009005107401F012216AE4FF1256B57F0191
:104DFB001256B5900511E0FCA3E0FDA3E0FEA3E085
:104E0B00FF9005191211D0900515E0FCA3E0FDA34E
:0D4E1B00E0FEA3E0FF90051D1211D0D32290
:10574A00E4FF1254A27F011254A2E4900510F0D390
:01575A00222C
:1054F9009005191211D0900290E0FCA3E0FDA3E001
:0C550900FEA3E0FF90051D1211D0D3227C
:105515009005111211D0900341E0FCA3E0FDA3E03A
:0C552500FEA3E0FF9005151211D0D32268
:075841007B017A05791922B1
:104D5D0090028D1211DC3FE666669002917410F0A0
:104D6D00A37403F0A374E8F0A31211DC4079999AAF
:104D7D00E4FF12415990028D1211DC3FE6666690F8
:104D8D0002917410F0A37403F0A374E8F0A3121150
:0A4D9D00DC4079999A7F0102415928
:10396900E0FCA3E0FDA3E0FEA3E0FF9003A2121197
:03397900D0E4FF98
:02397C00AB0797
:10397E009003A61211DC00000000EB9003A270541D
:10398E00E0F8A3E0F9A3E0FAA3E0FBE4FFFE7D522A
:10399E007C42120803C004C005C006C0079003AEE7
:1039AE001211DC40000000D007D006D005D0041262
:1039BE0030F2C004C005C006C0079003AE1211DC81
:1039CE004000000090039EE0FCA3E0FDA3E0FEA3F8
:1039DE00E0FF806CE0F8A3E0F9A3E0FAA3E0FBE4DB
:1039EE00FFFE7D527C42120803C004C005C006C013
:1039FE00079003AE1211DC40000000D007D006D0B5
:103A0E0005D0041230F2C004C005C006C0079003F2
:103A1E009EE0F8A3E0F9A3E0FAA3E0FBE4FFFE7D4D
:103A2E00F07C41120803C004C005C006C007900315
:103A3E00AE1211DC40000000D007D006D005D00435
:103A4E001230F2D003D002D001D000120807123F7C
:103A5E00629003A61211D09003A6E0FCA3E0FDA392
:053A6E00E0FEA3E0FFF3
:013A73002230
:103DEB0090039D1211D09003A9E0F8A3E0F9A3E092
:103DFB00FAA3E0FB9003A1E0FCA3E0FDA3E0FEA38C
:103E0B00E0FF120803C004C005C006C0079003A959
:103E1B00E0F8A3E0F9A3E0FAA3E0FB9003A1E0FC38
:103E2B00A3E0FDA3E0FEA3E0FF120803D003D00242
:103E3B00D001D0001208F8C004C005C006C007901E
:103E4B0003A5E0F8A3E0F9A3E0FAA3E0FB90039D40
:103E5B00E0FCA3E0FDA3E0FEA3E0FF120803C00417
:103E6B00C005C006C0079003A5E0F8A3E0F9A3E0E6
:103E7B00FAA3E0FB90039DE0FCA3E0FDA3E0FEA30F
:103E8B00E0FF120803D003D002D001D0001208F8D3
:0F3E9B00D003D002D001D000120807123F6222DC
:0B4F8100E0FCA3E0FDA3E0FEA3E0FFC6
:104F8C0090039D1211D0E4FFFE7DB47C4590039DEF
:104F9C00E0F8A3E0F9A3E0FAA3E0FB1208F87B58D1
:0D4FAC007A3679B77841120A01120B4922BA
:10216A00E490036FF0A3F0900519E0FCA3E0FDA34F
:10217A00E0FEA3E0FF90039E1211D090051D1239D4
:10218A00699003811211D0900519E0FCA3E0FDA328
:10219A00E0FEA3E0FF90039E1211D090051DE0FC23
:1021AA00A3E0FDA3E0FEA3E0FF9003A21211D07FFB
:1021BA000112397C9003851211D0900511E0FCA31D
:1021CA00E0FDA3E0FEA3E0FF90039E1211D090056C
:1021DA00151239699003891211D0900511E0FCA3F8
:1021EA00E0FDA3E0FEA3E0FF90039E1211D090054C
:1021FA0015E0FCA3E0FDA3E0FEA3E0FF9003A2121A
:10220A0011D07F0112397C90038D1211D090038175
:10221A00E0F8A3E0F9A3E0FAA3E0FB900389E0FC6D
:10222A00A3E0FDA3E0FEA3E0FF1208031257F89013
:10223A0003791211D0900385E0F8A3E0F9A3E0FA3C
:10224A00A3E0FB90038DE0FCA3E0FDA3E0FEA3E086
:10225A00FF1208031257F890037D1211D09003A0C1
:10226A0074FFF0A3744FF0A374EEF0900379E0FCCE
:10227A00A3E0FDA3E0FEA3E0FF9003A31211D07B2D
:10228A00017A03793D1219B29003A074FFF0A37486
:10229A0050F0A37407F090037DE0FCA3E0FDA3E0F7
:1022AA00FEA3E0FF9003A31211D07B017A03793DCC
:1022BA001219B2900381E0FCA3E0FDA3E0FEA3E0C3
:1022CA00FF900389E0F8A3E0F9A3E0FAA3E0FB1288
:1022DA000A9E4004D2098002C209E4FF1255A19065
:1022EA000385E0FCA3E0FDA3E0FEA3E0FF90038DDD
:1022FA00E0F8A3E0F9A3E0FAA3E0FB120A9E400487
:10230A00C2098002D2097F011255A1900379124FA6
:10231A0081E4FCFD9003751211D090037D124F8168
:10232A00E4FCFD9003711211D0900515E0FCA3E0C6
:10233A00FDA3E0FEA3E0FF9003A11211D0900519BE
:10234A00E0FCA3E0FDA3E0FEA3E0FF9003A51211C9
:10235A00D090051DE0FCA3E0FDA3E0FEA3E0FF9002
:10236A0003A91211D0900511E0FCA3E0FDA3E0FE41
:10237A00A3E0FF123DEB9003991211D0900371E094
:10238A00FCA3E0FDA3E0FEA3E0FFE4120B0BC004F4
:10239A00C005C006C007900375E0FCA3E0FDA3E0FA
:1023AA00FEA3E0FFE4120B0BA804A905AA06AB07DB
:1023BA00D007D006D005D004120A01900391121159
:1023CA00D07F007E807DA27C44900391E0F8A3E058
:1023DA00F9A3E0FAA3E0FB1208F8120B499003955F
:1023EA00EEF0A3EFF0C39414EE94054034900395F5
:1023FA007405F0A37414F0900395E0FCA3E0FDE4E7
:10240A00120B10900391E0F8A3E0F9A3E0FAA3E01D
:10241A00FB120A01120B49900397EEF0A3EFF0802A
:10242A000A9003977405F0A37414F0900375E0FC06
:10243A00A3E0FDA3E0FEA3E0FF90039E1211D0905B
:10244A000397E0FFA3E09003A2CFF0A3EFF0E4FF2D
:10245A00125260900371E0FCA3E0FDA3E0FEA3E04A
:10246A00FF90039E1211D0900395E0FFA3E0900322
:0C247A00A2CFF0A3EFF07F01125260D35C
:012486002233
:10533300535443313577346B3538733427732055E1
:1053430041525431206973206F70656E200D0A003D
:104FB90090028C7440F0A37401F0A31211D09002F6
:104FC900937401F0E4A3F0A304F0A3F0E4A3F0A325
:104FD900F07B017A02798C7F0112126D7BFF7A5383
:054FE900793302563B84
:0158860022FF
:105624007F007EC27D017C00124FB9124BCD125215
:07563400F1124D5D02542B41
:0158870022FE
:0158880022FD
:0158890022FC
:01588A0022FB
:01588B0022FA
:10542B0090028C740FF0A37460F0A37401F0E4A3EA
:0E543B00F0A3F0A3F07B017A02798C024C21E1
:10565200EF75F003A4247FF582E43404F583E0FEC1
:04566200A3E0FF22A0
:10575B00EF75F003A42481F582E43404F583E0FFB4
:01576B00221B
:103258009003DC740AF0E4A3F0F09003DCE0FFA331
:10326800E0C39F5021E4FF124A0D9003DDE025E002
:1032780024DEF582E43403F583EEF0A3EFF0900347
:10328800DDE004F080D47B017A0379DE9003DCE092
:10329800FD9003F67404F0A3E4F0A3F0A3F0123356
:1032A800AE90047FEEF0A3EFF0E49003DDF090031E
:1032B800DCE0FFA3E0C39F50217F01124A0D900379
:1032C800DDE025E024DEF582E43403F583EEF0A3A7
:1032D800EFF09003DDE004F080D47B017A0379DE1F
:1032E8009003DCE0FD9003F67404F0A3E4F0A3F08F
:1032F800A3F01233AE900482EEF0A3EFF0E4900353
:10330800DDF09003DCE0FFA3E0C39F50217F0212B1
:103318004A0D9003DDE025E024DEF582E43403F570
:1033280083EEF0A3EFF09003DDE004F080D47B019E
:103338007A0379DE9003DCE0FD9003F67404F0A3D1
:10334800E4F0A3F0A3F01233AE900485EEF0A3EFFF
:10335800F0E49003DDF09003DCE0FFA3E0C39F50AE
:10336800217F03124A0D9003DDE025E024DEF5827B
:10337800E43403F583EEF0A3EFF09003DDE004F00E
:1033880080D47B017A0379DE9003DCE0FD9003F6BC
:103398007404F0A3E4F0A3F0A3F01233AE90048811
:0533A800EEF0A3EFF0C0
:0133AD0022FD
:10473600E4FF125652D3EF9499EE94014008900488
:10474600817401F08005E4900481F07F01125652D5
:10475600D3EF94F1EE940040089004847401F08045
:1047660005E4900484F07F02125652D3EF9442EE91
:10477600940140089004877401F08005E490048752
:10478600F07F03125652D3EF9451EE9401400790F6
:0C479600048A7401F022E490048AF022EE
:03000B0002248C40
:10248700C2AF80FE3212248B85D00B75D008AAE02C
:10249700C28CE58A2443F58AE58C34F6F58CD28C18
:1024A700EC2439F8E6BC090274FFC39581B4140023
:1024B70040CE790A782416E608700BC2AFE630E101
:1024C700034418F6D2AF08D9EDEA8BD022E50CFF0A
:1024D700232425F80F0808BF0A047F007825E63073
:1024E700E4F200E50CC39F5020050C7438250CF866
:1024F700E6FDA68108E6AE0CBE090274FFCDF8E83A
:102507006D60E008E6C0E080F6E50CD39F4027E564
:102517000C2439F8E6AE0CBE090274FFFD18E6CDAF
:10252700F8E5816D6006D0E0F61880F5E50C2438F3
:10253700C8F6150C80D3E50C232425F87F04C2AF19
:10254700E630E00310E20C7F0030E10730E3047F60
:102557000854F4547CC6D2AF54804207227838A678
:102567008174096006FF0876FFDFFB7F0AE47824A1
:10257700F608F608DFFA78257630905666740193E8
:10258700C0E0E493C0E0438901758A3C758CF6D2BC
:072597008CD2AFD2A922098A
:0533AE009003F5EDF0B5
:1033B300E49003FCF0A3F09003F8E0FFA3E0900394
:1033C300FECFF0A3EFF09003F6E0FFA3E09004003C
:1033D300CFF0A3EFF0E49003FAF0A3F09003F5E04D
:1033E300FF9003FAE0FCA3E0FDC39F7480F8EC6454
:1033F300809840030234A8ED25E0FFEC338F82F57B
:1034030083120FE1FFC39003FFE09F9003FEE0955B
:10341300F0501D9003FBE025E0FF9003FAE0338FAB
:1034230082F583120FE1FF9003FEE5F0F0A3EFF0C6
:103433009003FBE025E0FF9003FAE0338F82F583EE
:10344300120FE1FFD3900401E09F900400E095F098
:10345300401D9003FBE025E0FF9003FAE0338F82E9
:10346300F583120FE1FF900400E5F0F0A3EFF09075
:1034730003FBE025E0FF9003FAE0338F82F583122C
:103483000FE1FFAEF09003FDE02FF09003FCE03E70
:10349300F09003FBE004F060030233DF9003FAE0F3
:1034A30004F00233DF900400E0FEA3E0FF9003FF8B
:1034B300E02FFF9003FEE03EFEC39003FDE09FFF7D
:1034C3009003FCE09EFEF0A3EFF09003F5E024FEF2
:1034D300FDE434FFFC120F769003FCEEF0A3EFF053
:0134E30022C6
:103ECE00602A0562000000000000000000000000F3
:103EDE0000000000000000000000000000000000D4
:0E3EEE000000000000000000000000000000C6
:10400A009003D9EBF0A3EAF0A3E9F0900003120FB2
:10401A0003FF9003D5E0FBA3E0FAA3E0F9A3E0FED7
:10402A00F582758300EF120F429003D9E0FBA3E0FB
:10403A00FAA3E0F9900002120F03FFEE2401FDE457
:10404A0033FC9003D5E0FBA3E0FAA3E0F98D828C60
:10405A0083EF120F429003D9E0FBA3E0FAA3E0F941
:10406A00900001120F03FFEE2402FDE433FC9003DB
:10407A00D5E0FBA3E0FAA3E0F98D828C83EF120F5F
:10408A00429003D9E0FBA3E0FAA3E0F9120EEAFF9B
:10409A00EE2403FDE433FC9003D5E0FBA3E0FAA38E
:0A40AA00E0F98D828C83EF020F42D3
:055021009003CDEFF04B
:10502600E4A3F09003CDE0FF1240B49003CEE0FE7F
:10503600C39F501774622EF582E43405F583E0FFB2
:0B5046001251C79003CEE004F080D8A8
:01505100223C
:1034E4009003CD1211D09003D1E0FFD3940A40038E
:1034F400023617EF7003023617EF14B40A004003C4
:1035040002361790351575F003A4C58325F0C583DD
:103514007302353302354902356002357702358E40
:103524000235A40235BA0235D00235E60235FC90E4
:1035340003D57401F0A37405F0A37462F0A37401BD
:10354400F0FB0236109003D57401F0A37405F0A3C8
:103554007462F0A37405F07B010236109003D574F5
:1035640001F0A37405F0A37462F0A37409F07B0165
:103574000236109003D57401F0A37405F0A37462AD
:10358400F0A3740DF07B010236109003D57401F0A2
:10359400A37405F0A37462F0A37411F07B01806C32
:1035A4009003D57401F0A37405F0A37462F0A374BE
:1035B40015F07B0180569003D57401F0A37405F0D7
:1035C400A37462F0A37419F07B0180409003D57456
:1035D40001F0A37405F0A37462F0A3741DF07B01E1
:1035E400802A9003D57401F0A37405F0A37462F0EB
:1035F400A37421F07B0180149003D57401F0A374AB
:1036040005F0A37462F0A37425F07B017A0379CDED
:0436140012400A2234
:1040B400EFD3940A5003EF70037F002290056274DB
:1040C40024F0EF14B40A0040030241569040DE7518
:1040D400F003A4C58325F0C583730240FC024105A7
:1040E40002410E02411702412002412902413202DB
:1040F400413B02414402414D9005677405F07F063F
:104104002290056B7409F07F0A2290056F740DF0FC
:104114007F0E229005737411F07F1222900577743C
:1041240015F07F162290057B7419F07F1A229005F2
:104134007F741DF07F1E229005837421F07F22225C
:104144009005877425F07F262290058B7429F07FD3
:054154002A227F002279
:10571400900621EEF0A3EFF0A3EBF0A3EAF0A3E9E7
:02572400F02271
:083EFC00C112C113C114C1156C
:1053730090063E7478F0E490063DF07B017A06795E
:0E5383003D7F02122DA6D2A3D2A4D2A5D2A69F
:0153910022F9
:0A581100EF4E7005EE4F24FFB322A6
:10548500EF24F0600F24F0600E24E0600D243870E6
:0D5495000BA21222A21322A21422A21522A1
:104B7600A2A3E4FE33FF125811500EA2A3E433FFA2
:104B86001258115006D2128002C212A2A4E4FE33B9
:104B9600FF1258115007201306D2138002C213A227
:104BA600A5E4FE33FF1258115007201406D21480D4
:104BB60002C214A2A6E4FE33FF12581150062015B5
:074BC60005D21522C21522E1
:10544900626F726164206C65642077617320696E94
:0E545900697469616C697A656420200D0A002F
:023F0400C118E2
:1052F10090028D7405F0E490028CF07B017A0279C2
:105301008C7F05122DA67BFF7A54794912563BD327
:015311002279
:05587200C2CDD2182296
:05587700D2CDC2182291
:1052CF0090028CEFF090028CE0FF14F0EF6012125E
:1052DF0058727FC812579F1258777FC812579F80F6
:0252EF00E422B7
:03588000A2182249
:06585400900648EFF0226F
:10526000C00790039EE0FCA3E0FDA3E0FEA3E0FFE7
:105270009003A71211D09003A2E0FCA3E0FDD00799
:05528000123A74D32274
:103D240090060DEFF0C007E4FFFE7DB47C43A3E0F2
:103D3400F8A3E0F9A3E0FAA3E0FB1208F8C004C07A
:103D440005C006C00790060DE075F00EA42491F599
:103D540082E43405F583E0FCE4120B15D003D002B1
:103D6400D001D0001208F8C004C005C006C00790F6
:103D7400060DE075F00EA42495F582E43405F58370
:103D8400E0FCA3E0FDA3E0FEA3E0FF7B567A0E79FE
:103D94004978401208F890060DE075F00EA4248DC1
:103DA400F582E43405F583E0F8A3E0F9A3E0FAA38F
:103DB400E0FB1208F8A804A905AA06AB07D007D0AF
:103DC40006D005D004120A01120B4990039E121169
:103DD400D0900612E0FFA3E09003A2CFF0A3EFF08F
:073DE400D007125260D32248
:10494700900614EFF0E0FEFFC00775F00EA4249167
:10495700F582E43405F583E0FCE4120B15900615A7
:10496700E0F8A3E0F9A3E0FAA3E0FB1208F8900649
:1049770014E075F00EA4248DF582E43405F583E088
:10498700F8A3E0F9A3E0FAA3E0FB120A01120B492E
:104997009003A71211D0900619E0FCA3E0FDD00701
:0549A700123A74D32256
:104EA00090063FEAF0A3EBF0C007AE04AF057C012B
:104EB0007D68120F64AC06AD07E4120B1090061566
:104EC0001211D090063FE0FFA3E0900619CFF0A3A7
:094ED000EFF0D007124947D3228C
:0F57CD00EF7006900599EDF0229005A7EDF02200
:10576C00EF75F00EA42499F582E43405F583E0FF7F
:01577C00220A
:1055A100EF7009200904C2A78002D2A7EFB4010954
:0B55B100200904C2A58002D2A5D3226D
:1054A200900649EFF01254BF900649E075F00EA441
:0D54B2002499F582E43405F5837401F0229D
:1056B500EF75F00EA42499F582E43405F583E4F042
:0356C50002546725
:10553100EF7004C2A68002C2A4EF75F00EA42499F4
:0C554100F582E43405F5837401F0D322F8
:10554D00EF7004D2A68002D2A4EF75F00EA42499B8
:0C555D00F582E43405F5837402F0D322DB
:0541590090028CEFF064
:10415E00E4900298F0A374F0F07B017A0279987FD4
:10416E0002122DA690028DE0FCA3E0FDA3E0FEA3BB
:10417E00E0FF90028CE0FB75F00EA4248DF582E436
:10418E003405F5831211D0900291E0FFEB75F00E1D
:10419E00A42491F582E43405F583EFF0900292E0C9
:1041AE00FEA3E0FFEB75F00EA42492F582E4340535
:1041BE00F583EEF0A3EFF0900294E0FCA3E0FDA3F4
:1041CE00E0FEA3E0FFEB75F00EA42495F582E43437
:1041DE0005F5831211D0EB75F00EA42499F582E447
:0A41EE003405F5837401F0025080DF
:10270F004C4344353131302077617320696E6974E1
:10271F0069616C697A6564200D0A00000000000091
:10272F00000000004F000000000700070000147FAA
:10273F00147F1400242A7F2A1200231308646200D6
:10274F00364955225000000503000000001C2241AD
:10275F0000000041221C000014083E081400080865
:10276F003E08080000503000000008080808080064
:10277F000060600000002010080402003E5149452F
:10278F003E0000427F400000426151494600214116
:10279F00454B31001814127F10002745454539006D
:1027AF003C4A49493000017109050300364949493E
:1027BF003600064949291E00003636000000005633
:1027CF0036000000081422410000141414141400E1
:1027DF0000412214080002015109060032497941D3
:1027EF003E007E1111117E007F4949493E003E4156
:1027FF00414122007F4141221C007F49494941004C
:10280F007F09090901003E4149497A007F080808FC
:10281F007F0000417F4100002040413F01007F08C1
:10282F00142241007F40404040007F0204027F009D
:10283F007F0408107F003E4141413E007F09090996
:10284F0006003E4151215E007F0919294600464985
:10285F004949310001017F0101003F4040403F00E5
:10286F001F2040201F003F4038403F0063140814D2
:10287F006300030478040300615149454300007F5E
:10288F004141000015167C1615000041417F0000E4
:10289F0004020102040040404040400000010204D5
:1028AF0000002054545478007F4844443800384482
:1028BF0044442000384444487F003854545418008E
:1028CF00087E090102000C5252523E007F08040498
:1028DF00780000447D4000002040443D00007F1000
:1028EF002844000000417F4000007E020C027C0063
:1028FF007E0402027C003844444438007C141414D3
:10290F000800081414187C007C08040408004854BC
:10291F0054542000043F444020003C4040207C00A1
:10292F001C2040201C003C4030403C004428102814
:10293F0044000C5050503C004464544C4400000878
:10294F003641000000007F00000000413608000003
:10295F0008040810080008082A1C0800081C2A0888
:10296F00080004027F02040010207F2010001C2AA0
:09297F00322A1C001C2244221C17
:10535300C2CBED24FF92CA7E08EF30E704D2C980A6
:0F53630002C2C9C2C8EF25E0FFD2C8DEECD2CB30
:015372002218
:10531200E4FD7F801253537F401253537BF87A018E
:105322007D01E4FF125353EB1B70011AEB4A70F03C
:015332002258
:1056C800AD07E4FF12567A7C547D01E4FF12535370
:0256D800DCF7FD
:0156DA0022AD
:10567A00AC05EF4480FFEC4440FCE4FD125353AF09
:04568A000402535370
:074E2800E0FF04F0A3E0FD30
:104E2F0074E02BFBEF75F006A4FF12567AE4FC75C5
:104E3F00F006EBA4242AF582E5F03427F583E5820A
:104E4F002CF582E43583F583E493FF7D01125353F0
:054E5F000CECB406DAC2
:014E6400222B
:104E6500900626EFF0A3EDF0A3EBF0A3EAF0A3E99B
:104E7500F0900628E0FBA3E0FAA3E0F9120EEAFBA6
:104E85006018900626E0C3940E500F124E28900627
:0B4E950029E475F001120FCB80D7223A
:104D120090062BEFF0A3EDF0A3EBF0A3EAF0A3E9EA
:104D2200F090062DE0FBA3E0FAA3E0F9120EEAFBF5
:104D3200602890062B124E2890062EE475F0011280
:104D42000FCB90062BE0B40E06E4F0A3E004F09043
:0B4D5200062CE0B406CBE4F080C72282
:104CC400E4900641F0A3741FF07B017A0679417FDA
:104CD40005122DA6C2CCD2CCE4FD7F211253537F02
:104CE400061253537F131253537FC81253537F201A
:104CF4001253537F0C1253537F401253537F80122D
:0E4D040053531253127BFF7A27790F02563B4E
:1055690090061BEFF0A3EDF0A37401F0E4A3F0A300
:0C557900F0A3F07B017A06791B024C21A4
:1046BC00E4900604F0301963F0E4FF124A0D900602
:1046CC0004E025E024F0F582E43405F583EEF0A354
:1046DC00EFF0900604E004F0E0C3940A40DB7B01A9
:1046EC007A0579F09003F67404F0A3E4F0A3F0A338
:1046FC00F07D0A1233AEAC06AD07E4120B10900637
:10470C00051211D0900605E0FCA3E0FDA3E0FEA38A
:10471C00E0FFA31211D09006058003900609E0FC7F
:09472C00A3E0FDA3E0FEA3E0FF01
:014735002261
:103F06004205CA0000C116C1174205C2000042059B
:0D3F1600C600004205C400004205C80000BE
:0A3A74009003A5ECF0A3EDF0AB0702
:103A7E00E49003ABF0A3F09003A5E0FEA3E0FFEB10
:103A8E0075F007A424D0F582E43405F583EEF0A397
:103A9E00EFF09003A7E0FCA3E0FDA3E0FEA3E0FFA0
:103AAE00EB75F007A424CCF582E43405F5831211EE
:103ABE00D0EB704F9003A5E0FEA3E0FFD39414EE7D
:103ACE009400403BAB07AA06E4F9F87F807E847D24
:103ADE001EFC124DA7E47B02FAF9F8124DA7C3E4BF
:103AEE009FFFE49E9003ADF0A3EFF0C216438F0448
:103AFE009003ADE0FCA3E0FDECF5D68DD78051D25E
:103B0E0016804D9003A5E0FEA3E0FFD39414EE942F
:103B1E0000403BAB07AA06E4F9F87F807E847D1E49
:103B2E00FC124DA7E47B02FAF9F8124DA7C3E49FED
:103B3E00FFE49E9003ADF0A3EFF0C21743D10190C6
:103B4E0003ADE0FCA3E0FDECF5D48DD58002D217D9
:013B5E00D393
:013B5F002243
:10546700EF75F007A424D2F582E43405F5837401BF
:0E547700F0EF7005438E10800343D108D3225E
:1054BF00EF7005538EEF800353D1F7EF75F007A40C
:0D54CF0024D2F582E43405F583E4F0D32205
:10572600EF75F007A424D2F582E43405F583E0246E
:02573600FF2250
:10508000E490029AF0A304F0FB7A02799A7F03126B
:105090002DA690029B7410F07B017A02799AE4FFAE
:0C50A000122DA6E49005D2F09005D9F086
:0150AC0022E1
:030063000245C68D
:1045C600C0E0C0F0C083C082C0D075D000C000C0BB
:1045D60001C002C003C004C005C006C007E47F02D4
:1045E600FEFDFC9005CCE0F8A3E0F9A3E0FAA3E019
:1045F600FB121019C006C0079005C2E475F001123F
:104606000FCBAFF0AB07FAE4F9F8D007D006C31228
:104616001144400CE4FF1254BF9005C2E4F0A3F02D
:10462600D007D006D005D004D003D002D001D000E8
:0B463600D0D0D082D083D0F0D0E03292
:03009B00024641D9
:10464100C0E0C0F0C083C082C0D075D000C000C03F
:1046510001C002C003C004C005C006C007E47F0258
:10466100FEFDFC9005D3E0F8A3E0F9A3E0FAA3E096
:10467100FB121019C006C0079005C4E475F00112C1
:104681000FCBAFF0AB07FAE4F9F8D007D006C312AD
:104691001144400C7F011254BF9005C4E4F0A3F013
:1046A100D007D006D005D004D003D002D001D0006D
:0B46B100D0D0D082D083D0F0D0E03217
:0F579F007D367C07ED1D70011C144C70F7DFF197
:0157AE0022D8
:03588300A21A2244
:102DA600EFD3940540037F0122120EEAFED394036B
:102DB60040037F0222EF7041EE700B900001120F6C
:102DC60003F452935294120EEAB4010B90000112CE
:102DD6000F034293F45294120EEAFEB4020A9000D4
:102DE60001120F0342934294EEB4030D90000112B8
:102DF6000F03FEF45293EE4294EF64017043120EF9
:102E0600EAFE700B900001120F03F452915292EEFB
:102E1600B4010B900001120F034291F45292120E6C
:102E2600EAB4020A900001120F0342914292120E76
:102E3600EAB4030D900001120F03FEF45291EE4224
:102E460092EF64027043120EEAFE700B90000112BC
:102E56000F03F452955296EEB4010B900001120F37
:102E6600034295F45296120EEAB4020A9000011239
:102E76000F0342954296120EEAB4030D900001121A
:102E86000F03FEF45295EE4296EF64037043120E62
:102E9600EAFE700B900001120F03F452B152B2EE2B
:102EA600B4010B900001120F0342B1F452B2120E9C
:102EB600EAB4020A900001120F0342B142B2120EA6
:102EC600EAB4030D900001120F03FEF452B1EE4274
:102ED600B2EF64047043120EEAFE700B900001120A
:102EE6000F03F452B352B4EEB4010B900001120F6B
:102EF6000342B3F452B4120EEAB4020A900001126D
:102F06000F0342B342B4120EEAB4030D900001124D
:102F16000F03FEF452B3EE42B4EF64057043120E93
:102F2600EAFF700B900001120F03F452C952CAEF68
:102F3600B4010B900001120F0342C9F452CA120EDB
:102F4600EAB4020A900001120F0342C942CA120EE5
:102F5600EAB4030D900001120F03FFF452C9EF42C9
:042F6600CA7F0022FC
:1049AC00900643ECF0A3EDF0AB07900643E0FEA3BA
:1049BC00E0FFE4FCFDEB75F00AA424B4F582E434CA
:1049CC0004F5831211D043BA8053F57FEB75F00ACE
:1049DC00A424BDF582E43404F583E0FF7E00900648
:1049EC0043E0FCA3E0FD120F64AB07AA06E4F9F860
:1049FC00FF7E367D6E7C01124DA712539253BA7F07
:014A0C002287
:1055BC00EF75F00AA424B4F582E43404F583E0FC1E
:0A55CC00A3E0FDA3E0FEA3E0FF2230
:103B6000900630EFF07F337E337D737C3FA3E0F827
:103B7000A3E0F9A3E0FAA3E0FB120A9E600C400A5E
:103B80009006311211DC3F7333337FCD7ECC7DCC78
:103B90007C3C900631E0F8A3E0F9A3E0FAA3E0FB57
:103BA000120A9E500A9006311211DC3CCCCCCD900A
:103BB0000631E0FCA3E0FDA3E0FEA3E0FF900630A9
:103BC000E0FB75F00AA424B9F582E43404F583120D
:103BD00011D043BA80EB75F00AA424BDF582E43419
:103BE00004F583E0FFE4FCFDFEEB75F00AA424B4C9
:103BF000F582E43404F583E0F8A3E0F9A3E0FAA346
:103C0000E0FB121019A804A905AA06AB077F007EE5
:103C1000367D6E7C011210A4E4120B0B900631E08D
:103C2000F8A3E0F9A3E0FAA3E0FB1208F8120B49AD
:103C3000AB07AA06900630E0FF7D0A7C001241F82F
:043C400053BA7F22D2
:1055D600EF75F00AA424B9F582E43404F583E0FCFF
:0A55E600A3E0FDA3E0FEA3E0FF2216
:10577D00EF75F00AA424BDF582E43404F583EDF051
:01578D0022F9
:10578E00EF75F00AA424BDF582E43404F583E0FF3E
:01579E0022E8
:0A581B0043BA8043F58053BA7F22A0
:0A58250043BA8053F57F53BA7F2287
:1051000043BA807401A807088002C333D8FC42F573
:10511000EF75F00AA424B8F582E43404F583740131
:08512000F043F58053BA7F2231
:1052850043BA807401A807088002C333D8FCF452DE
:10529500F5EF75F00AA424B8F582E43404F583E447
:0552A500F053BA7F2266
:10573800EF75F00AA424B8F582E43404F583E02474
:02574800FF223E
:051DD000900645EFF054
:101DD500E4A3F0900646E0FFC39406505AEF75F071
:101DE5000AA424B4F582E43404F5831211DC00005E
:101DF5000000900646E0FF75F00AA424B8F582E4D9
:101E05003404F583E4F0EF75F00AA424B9F582E40F
:101E15003404F5831211DC00000000900646E075DD
:101E2500F00AA424BDF582E43404F5837401F0902E
:101E35000646E004F0809C43BA80120EEAB4010520
:101E450043F180800353F17F900001120F03B40129
:101E550014900645E0FF7401A807088002C333D833
:101E6500FC42F18013900645E0FF7401A807088045
:101E750002C333D8FCF452F1900002120F03B401EF
:101E85000543F540800353F5BF900003120F03B4DB
:101E95000114900645E0FF7401A807088002C333CA
:101EA500D8FC42F58013900645E0FF7401A80708A9
:101EB5008002C333D8FCF452F5900004120F03B42A
:101EC500010575F720800353F7DF900005120F0316
:101ED500B4010575F710800353F7EF900006120F54
:101EE50003B4010575F708800353F7F7900007124F
:101EF5000F03B4010575F704800353F7FB90000841
:101F0500120F03B4010575F702800353F7FD900026
:101F150009120F0390FFF27006E054EFF08004E021
:101F25004410F090FFF2C083C082E0FF90000A12D7
:101F35000F03FEEF4ED082D083F0900645E014608B
:101F45007214700302200B14700302205E147003D8
:101F55000220B114700302210224056003022159F5
:101F650090000B120F0390FF047006E054F7F08009
:101F750004E04408F090000C120F0390FF04B40134
:101F850006E04404F08004E054FBF090000D120FCD
:101F95000390FF04B40106E04402F08004E054FD20
:101FA500F090000E120F0390FF04B4010302214FBD
:101FB50002215590000B120F0390FF147006E05498
:101FC500F7F08004E04408F090000C120F0390FF36
:101FD50014B40106E04404F08004E054FBF09000E2
:101FE5000D120F0390FF14B40106E04402F08004C3
:101FF500E054FDF090000E120F0390FF14B401039E
:1020050002214F02215590000B120F0390FF2470FF
:1020150006E054F7F08004E04408F090000C120F3D
:102025000390FF24B40106E04404F08004E054FB6F
:10203500F090000D120F0390FF24B40106E0440256
:10204500F08004E054FDF090000E120F0390FF2481
:10205500B4010302214F02215590000B120F03908A
:10206500FF347006E054F7F08004E04408F0900077
:102075000C120F0390FF34B40106E04404F0800411
:10208500E054FBF090000D120F0390FF34B40106ED
:10209500E04402F08004E054FDF090000E120F03BE
:1020A50090FF34B4010302214F02215590000B1219
:1020B5000F0390FF447006E054F7F08004E04408F5
:1020C500F090000C120F0390FF44B40106E04404A5
:1020D500F08004E054FBF090000D120F0390FF44D4
:1020E500B40106E04402F08004E054FDF090000ED7
:1020F500120F0390FF44B40102804F805390000BF0
:10210500120F0390FF547006E054F7F08004E0448A
:1021150008F090000C120F0390FF54B40106E04440
:1021250004F08004E054FBF090000D120F0390FFC3
:1021350054B40106E04402F08004E054FDF0900040
:102145000E120F0390FF54B40106E04401F0800421
:10215500E054FEF090000F120F03B4010443F58024
:042165002253F57F8D
:012169002253
:10539200D3E49F74809E90FFF1400AEFF0EE90FFFD
:0F53A200F0F07F002274FFF090FFF0747FF02294
:1041F800EF14602814603A14604C14605E14607008
:104208002405600302428F90FF01EDF0EC90FF005F
:10421800F090FF03EBF0EA90FF02806790FF11ED4A
:10422800F0EC90FF10F090FF13EBF0EA90FF128093
:104238005290FF21EDF0EC90FF20F090FF23EBF07F
:10424800EA90FF22803D90FF31EDF0EC90FF30F0D6
:1042580090FF33EBF0EA90FF32802890FF41EDF0B9
:10426800EC90FF40F090FF43EBF0EA90FF428013A0
:1042780090FF51EDF0EC90FF50F090FF53EBF0EA17
:0A42880090FF52F07F00227F012218
:103F23004105E1024105E2024205E300004205E5E5
:103F330000004205DD00004205DB00004105EF0003
:103F43004105DA004105E0004105DF004405E700D3
:0A3F53000000004405EB0000000030
:104BCD00E49002A4F090028CF0A3F0A3F0A3F0A364
:104BDD00F0900293F090029174A2F0A37440F0E46F
:104BED00900294F0A304F0A3F0A3F0E490029BF0E4
:104BFD00A3F0A304F0A3F0A3F0E49002A3F07B01D3
:104C0D007A0279947F021229887B017A02799C7F3E
:044C1D0003022988DD
:1052AA009005E1E0601EA3E0601AEF24FE600B04A3
:1052BA0070129005E7ECF0A3EDF0AF059005EBEC6A
:0552CA00F0A3EFF0224B
:1055F000EF24FE600804700E9005E780039005EB31
:0A560000E0FEA3E0FF22E4FEFF221B
:10558500EF24FE600C0470139005E9ECF0A3EDF038
:0C55950022AF059005EDECF0A3EFF02232
:10560A00EF24FE600804700E9005E980039005ED12
:0A561A00E0FEA3E0FF22E4FEFF2201
:0E57DC00EF14700953D17F9005E17402F022A2
:1054DC00EF24FE600D0470149005E1E07002D322FD
:0D54EC00C3229005E2E07003D38001C322CB
:1053B100EF24FE600E0470169005E1E0B40102D303
:0F53C10022C3229005E2E0B40103D38001C3228E
:1053D000EF24FE600E0470169005E1E0B40202D3E3
:0F53E00022C3229005E2E0B40203D38001C3226E
:10568E00AE071254DC400CEF14700843D180E49046
:04569E0005E1F02210
:0E57EA00AE071253B1500512568ED322C322C1
:09582F009005DDE0FEA3E0FF227C
:095838009005DBE0FEA3E0FF2275
:06585A009005EFE0FF22C3
:065860009005DAE0FF22D2
:065866009005E0E0FF22C6
:06586C009005DFE0FF22C1
:10298800AD07EDD3940440037F0122ED7073120E5E
:10299800EAFED3940340037F0222C28CC2A9C2B9C3
:1029A8005389F0538E7F538FFE900002120F03B4A9
:1029B8000102D2A9900001120F03B40102D2B9EEAC
:1029C8004289900003120F03FF7003438E80EFB417
:1029D8000203438904900004120F03B40103438FD8
:1029E80001900005120FE1E5F0F58C900005120F3B
:1029F800E1F58A900007120F03B40102D28C7F0020
:102A080022ED64016003022A94C28E900002120F24
:102A180003B40104D2AB8002C2AB900001120F03D1
:102A2800B40104D2BB8002C2BB120EEAFEC39403F7
:102A380040037F0222E58954CF4EF58990000312A6
:102A48000F03FFB40103538EBFEF7003438E40EFB3
:102A5800B4020543894080035389BF900004120FD4
:102A680003B40105438F028003538FFD90000512C4
:102A78000FE1E5F0F58D900005120FE1F58B900060
:102A880007120F03B40102D28E7F0022ED64027098
:102A980078538EEF900002120F03B4010543AF0480
:102AA800800353AFFB900003120F03FED394024040
:102AB800037F0222EEB40103538EFB900003120F32
:102AC800037003438E04900003120F03B4020543FE
:102AD8008E088003538EF7900004120F03B401058B
:102AE800438F048003538FFB900005120FE1E5F03C
:102AF800F5D6900005120FE1F5D7900007120F03E5
:102B0800B40103438E107F0022ED640370609000CF
:102B180003120F03FED3940240037F022253D1F025
:102B280053AFDF900002120F03B4010343AF20EE4E
:102B3800700343D102900003120F03B4020343D180
:102B480006900004120F03B4010343D1019000055D
:102B5800120FE1E5F0F5D4900005120FE1F5D590DC
:102B68000007120F03B4010343D1087F0022ED646C
:102B780004705C900003120F03FED3940240037F9D
:102B8800022253D10F53AFBF900002120F03B401BA
:102B98000343AF40EE700343D120900003120F03AC
:102BA800B4020343D160900005120FE1FDACF0ECD4
:102BB800F5D28DD3900007120F03B4010343D180DF
:102BC800900004120F03B4010343D1107F00227F49
:022BD8000222D7
:10126D0090029AEBF0A3EAF0A3E9F0900299EFF067
:10127D006401600302147F90000004F0E4A3F0A366
:10128D00F0A3F0A3F0A3F0A3F090029DF090029DC7
:10129D00E0FFC39480501474382FF582E43401F5C7
:1012AD0083E4F090029DE004F080E2E490029DF072
:1012BD0090029DE0FFC394805014741C2FF582E4BE
:1012CD003400F583E4F090029DE004F080E290029A
:1012DD009AE0FBA3E0FAA3E0F9120EEAD394C04022
:1012ED00037F022290000A120F03B40104D2BC80C6
:1012FD0002C2BC120EEAFFE598543F4FF598EF6419
:10130D00C06008EF644060030213F99000021211EF
:10131D00A07F807E8D7D5B7C001210A490029E12BA
:10132D0011D0E4FFFE7D01FC90029EE0F8A3E0F9F0
:10133D00A3E0FAA3E0FBC312114440037F02229005
:10134D00029EE0F8A3E0F9A3E0FAA3E0FBC3E49B5F
:10135D00FFE49AFE740199FDE498FC90029E12112F
:10136D00D090029AE0FBA3E0FAA3E0F990000112FD
:10137D000F03FB64017038C28E538EFE5389BF5329
:10138D0089CF438E4090029EE0FCA3E0FDA3E0FEDA
:10139D00A3E0FF78081211558F8D90029EA3A3A391
:1013AD00E0F58BC2AB5389BF538FFDD28E8076EBA8
:1013BD0064027035538EEF438E01538EF7438E04C6
:1013CD0090029EE0FCA3E0FDA3E0FEA3E0FF780801
:1013DD001211558FD690029EA3A3A3E0F5D753AF5C
:1013ED00FB538EF7438E10803C7F022290029AE0D1
:1013FD00FBA3E0FAA3E0F9120EEAFF7013900008C8
:10140D00120F03B40105438E20801A538EDF801511
:10141D00EFB48011900008120F03B40105438780CB
:10142D00800353877F90029AE0FBA3E0FAA3E0F9D3
:10143D00900009120F03B40104D2AC8002C2AC902B
:10144D000007120F03B40104D29C8002C29C9000CD
:10145D000B120F0354C0FFE5A2543F4FF5A29000AD
:10146D000C120F03B4010543971080035397EF7FC0
:10147D000022900299E0640260030215E1900007DA
:10148D007402F0E4A3F0A3F0A3F0A3F0A3F0A3F093
:10149D0090029DF090029DE0FFC39480501474D48F
:1014AD002FF582E43401F583E4F090029DE004F021
:1014BD0080E2E490029DF090029DE0FFC394805085
:1014CD0014749C2FF582E43400F583E4F090029DB2
:1014DD00E004F080E290029AE0FBA3E0FAA3E0F9C9
:1014ED00120EEAFF64C06008EF644060030215A1AC
:1014FD0090000A120F03B4010543B501800353B5E3
:10150D00FE120EEAB4C005439A808003539A7F9071
:10151D0000021211A07F807E8D7D5B7C001210A4D5
:10152D0090029E1211D0E4FFFE7D01FC90029EE020
:10153D00F8A3E0F9A3E0FAA3E0FBC31211444003C2
:10154D007F022290029EE0F8A3E0F9A3E0FAA3E067
:10155D00FBC3E49BFFE49AFE740199FDE498FC90B3
:10156D00029E1211D0538EEF538EF7438E049002CC
:10157D009EE0FCA3E0FDA3E0FEA3E0FF78081211BE
:10158D00558FD690029EA3A3A3E0F5D753AFFB438F
:10159D008E1080037F022290029AE0FBA3E0FAA353
:1015AD00E0F9900009120F03B4010543AF01800368
:1015BD0053AFFE900007120F03B40105439A10803C
:1015CD0003539AEF90000B120F035401FFE5BA5429
:1015DD00FE4FF5BA900299E06403600302179490F0
:1015ED00000E7402F0E4A3F0A3F0A3F0A3F0A3F0B7
:1015FD00A3F090029DF090029DE0FFC3941C501447
:10160D0074542FF582E43402F583E4F090029DE0EA
:10161D0004F080E2E490029DF090029DE0FFC394FF
:10162D001C5014741C2FF582E43401F583E4F09002
:10163D00029DE004F080E290029AE0FBA3E0FAA3A1
:10164D00E0F9120EEAFF64C06008EF644060030227
:10165D00175453ACDFEFB4C00543AC80800353ACDB
:10166D007F90029AE0FBA3E0FAA3E0F9900002124A
:10167D0011A07F807E8D7D5B7C001210A490029E58
:10168D001211D0E4FFFE7D01FC90029EE0F8A3E074
:10169D00F9A3E0FAA3E0FBC312114440037F022239
:1016AD0090029EE0F8A3E0F9A3E0FAA3E0FBC3E407
:1016BD009BFFE49AFE740199FDE498FC90029E1242
:1016CD0011D090029AE0FBA3E0FAA3E0F99000019B
:1016DD00120F03FB6402703253ACBF538EEF538E67
:1016ED00F7438E0490029EE0FCA3E0FDA3E0FEA371
:1016FD00E0FF78081211558FD690029EA3A3A3E0A8
:10170D00F5D753AFFB438E108040EB64017035432A
:10171D00AC4053D1F053AFDF43D10253D1FB53D182
:10172D00FE90029EE0FCA3E0FDA3E0FEA3E0FF78A7
:10173D00081211558FD490029EA3A3A3E0F5D543B3
:10174D00D10880067F02227F022290029AE0FBA33D
:10175D00E0FAA3E0F9900009120F03B4010543AFBD
:10176D0008800353AFF7900007120F03B401054330
:10177D00AC10800353ACEF90000B120F035402FF1B
:10178D00E5BA54FD021944900299E0640460030225
:10179D00194A9000157402F0E4A3F0A3F0A3F0A38E
:1017AD00F0A3F0A3F090029DF090029DE0FFC39492
:1017BD001C501474702FF582E43402F583E4F0901C
:1017CD00029DE004F080E2E490029DF090029DE025
:1017DD00FFC3941C501474B82FF582E43401F583C3
:1017ED00E4F090029DE004F080E290029AE0FBA309
:1017FD00E0FAA3E0F9120EEAFF64C06008EF64405E
:10180D0060030219075384DFEFB4C0054384808061
:10181D000353847F90029AE0FBA3E0FAA3E0F990D2
:10182D0000021211A07F807E8D7D5B7C001210A4C2
:10183D0090029E1211D0E4FFFE7D01FC90029EE00D
:10184D00F8A3E0F9A3E0FAA3E0FBC31211444003AF
:10185D007F022290029EE0F8A3E0F9A3E0FAA3E054
:10186D00FBC3E49BFFE49AFE740199FDE498FC90A0
:10187D00029E1211D090029AE0FBA3E0FAA3E0F9C8
:10188D00900001120F03FB640270325384BF538E1C
:10189D00EF538EF7438E0490029EE0FCA3E0FDA370
:1018AD00E0FEA3E0FF78081211558FD690029EA39B
:1018BD00A3A3E0F5D753AFFB438E108040EB64023A
:1018CD00703543844053D10F53AFBF43D12053D113
:1018DD00BF53D1EF90029EE0FCA3E0FDA3E0FEA379
:1018ED00E0FF78081211558FD290029EA3A3A3E0BA
:1018FD00F5D343D18080067F02227F022290029A87
:10190D00E0FBA3E0FAA3E0F9900009120F03B40184
:10191D000543AF10800353AFEF900007120F03B4D0
:10192D00010543841080035384EF90000B120F03C5
:0F193D005404FFE5BA54FB4FF5BA7F00227F0335
:01194C002278
:1051C700900002E02438F582E43401F583EFF09093
:1051D7000002E004F0C394804002E4F0900003E092
:0751E700700404F0D29922CC
:10512800900009E024D4F582E43401F583EFF0908F
:105138000009E004F0C394804002E4F090000AE023
:08514800700504F0439A0222F5
:10515000900010E02454F582E43402F583EFF090DF
:105160000010E004F0C3941C4002E4F0900011E051
:08517000700504F043AC0222BB
:10517800900017E02470F582E43402F583EFF09094
:105188000017E004F0C3941C4002E4F0900018E01B
:08519800700504F043840222BB
:10563B00C2AF120EEAFF600C1251C7740129F9E4D4
:07564B003AFA80EED2AF2213
:1056DB00120EEAFF600C125128740129F9E43AFA10
:0356EB0080EE222C
:1056EE00120EEAFF600C125150740129F9E43AFAD5
:0356FE0080EE2219
:10570100120EEAFF600C125178740129F9E43AFA99
:0357110080EE2205
:030023000245474C
:10454700C0E0C083C082C0D075D000C006C00730AD
:10455700982DC298900006E07025900004E0C3945F
:10456700804002E4F0900004E0FF04F0741C2FF593
:1045770082E43400F583E599F09000057405F03086
:104587009930C299900002E0FF900001E0FE6F6051
:104597001C74382EF582E43401F583E0F599900018
:1045A70001E004F0C394804009E4F0800590000323
:0F45B700E4F0D007D006D0D0D082D083D0E0324D
:030043000243B8BD
:1043B800C0E0C083C082C0D075D000C006C007E589
:1043C8009A30E02E539AFE90000DE0702590000B75
:1043D800E0C394804002E4F090000BE0FF04F07426
:1043E8009C2FF582E43400F583E59BF090000C7473
:1043F80005F0E59A30E131539AFD900009E0FF900D
:104408000008E0FE6F601C74D42EF582E43401F5D8
:1044180083E0F59B900008E004F0C394804009E431
:10442800F0800590000AE4F0D007D006D0D0D08202
:05443800D083D0E0324A
:03008B0002443DEF
:10443D00C0E0C083C082C0D075D000C006C007E503
:10444D00AC30E02E53ACFE900014E07025900012BD
:10445D00E0C3941C4002E4F0900012E0FF04F074FD
:10446D001C2FF582E43401F583E5ADF09000137453
:10447D0005F0E5AC30E13153ACFD900010E0FF905C
:10448D00000FE0FE6F601C74542EF582E43402F5CB
:10449D0083E0F5AD90000FE004F0C3941C4009E4F7
:1044AD00F08005900011E4F0D007D006D0D0D08276
:0544BD00D083D0E032C5
:030093000244C262
:1044C200C0E0C083C082C0D075D000C006C007E57E
:1044D2008430E02E5384FE90001BE070259000197A
:1044E200E0C3941C4002E4F0900019E0FF04F07471
:1044F200B82FF582E43401F583E585F090001A7453
:1045020005F0E58430E1315384FD900017E0FF901F
:104512000016E0FE6F601C74542EF582E43402F53E
:1045220083E0F585900016E004F0C3941C4009E492
:10453200F08005900018E4F0D007D006D0D0D082E9
:05454200D083D0E0323F
:104C2100120EEAF59D900001120F03FFE5BC549F9F
:104C31004FF5BC900002120F03B4010543BC808004
:104C41000353BC7F900003120F03B4010543972067
:104C510080035397DF900005120F03B40104D2AD16
:104C61008002C2AD900004120F03B40103D2BD2231
:034C7100C2BD229F
:0C580500EFB4010443BC802253BC7F229E
:104A0D00EFD3940740028051E4F5BDF5BEE5BC54EB
:104A1D00E044084FF5BC00000000E4FBE5BC30E4C9
:104A2D003353BCEFE59730E509E5BD5403ADBEFC4E
:104A3D00801DAFBD7C00AD07ED7E007802C333CE87
:104A4D0033CED8F9FFE5BE5403FDEEFCEF4DFDAFBF
:0D4A5D0005AE04220BEBB4FAC37E047F000B
:014A6A002229
:03002B0002587CFC
:04587C0053BCEF32F8
:10259E00EFD3940940037FFF2274252F2FF8E620F6
:1025AE00E5F4C2AFE64430F6D2AFAE0CEEC39F50A8
:1025BE00210E74382EF8E6F908E618BE090274FFEB
:1025CE00FDED69600909E71919F7090980F3161677
:1025DE0080DAEED39F400405810581EED39F402221
:1025EE0074382EF808E6F9EEB50C02A98118060625
:1025FE00E6FDED6960091919E70909F71980F31E5F
:10260E0080D9EF2438F8E604F8EF2F04905666933D
:09261E00F608EF2F93F67F00226D
:10262700EFD3940940037FFF22EF232425F8E630F8
:10263700E5F4C2AFE6548CF6D2AFE50CB5070A74E1
:10264700382FF8E6F5810224D4502E74392FF8E696
:10265700BF090274FFFD18E6F974382FF8FBE6FC92
:10266700E96C6008A805E7F61D1980F4A803A6051C
:102677001FE50CB507E37F002274392FF8E6FD1834
:1026870086010F74382FF8A601088604E50CB507F4
:1026970002AC81ED6C60080D09A805E6F780F4E54A
:0926A7000CB507DE89817F0022D9
:1026B0008FF0E4FFFEE50C232424F8C2A930F70DC7
:1026C0007F08E6600B2DF660325030800730F1064F
:1026D000EDF660277E020830F010C2AFE610E72565
:1026E0000E30E20CD2AF7F048014C2AFE610E715C3
:1026F00054EC4EF6D2AFD2A90224D47F0808EF449E
:0F27000083F4C2AF56C6D2AFD2A954804FFF2286
:10080000020BB5E86480F8E933E83360110460F066
:10081000ED33EC337009E8FCE9FDEAFEEBFF22045E
:1008200060DED3EB9FEA9EE99DE8C2E78CF0C2F759
:1008300095F0400CE8CCF8E9CDF9EACEFAEBCFFB25
:10084000120B8085D0F05804700320D5B3E80470F3
:10085000075002B2D5020BBF92D5EC0460F7E4CC8E
:10086000C0E0C398F8603B94186008400DD0E0FBEE
:10087000020B97E4FBFAC9FC8028E830E406E4C9DF
:10088000FBE4CAFCE830E305E4C9CACBFCE8540742
:100890006010F8C3E913F9EA13FAEB13FBEC13FC4D
:1008A000D8F130F52FC3E49CFCEF9BFFEE9AFEEDF0
:1008B00099FDD0E0FBEF4E4D4C701222DB03020B92
:1008C000BCEC2CFCEF33FFEE33FEED33FDED30E7F7
:1008D000EB020B97EF2BFFEE3AFEED39FDD0E0FB7C
:1008E00050130BBB0003020BBFED13FDEE13FEEF25
:0808F00013FFEC13FC020B974F
:1008F800EC4D6011E8497017ED33EC3304600DE4FA
:10090800FCFFFEFD22E933E8330470F8020BB51250
:100918000B8058046009E4CC248150062850090251
:100928000BBF284003020BBCC0E0EB4A7044B980FF
:1009380006D0E0FB020BABEF4E701CBD8008EBFF4E
:10094800EAFEE9FD80EBE98DF0A4FEE5F00209E19D
:10095800E9CDF9EAFEEBFFEF89F0A4FCE5F0CE89DA
:10096800F0A42EFFE435F0CD89F0A42DFEE435F097
:100978008067EF4E7005BD80D780C3EF8BF0A4ACC5
:10098800F0EE8BF0A42CFCE435F0F8EF8AF0A42C00
:10099800E5F038FCE433CB8DF0A42CFCE5F03BF813
:1009A800EE8AF0A42CFCE5F038F8E433CF89F0A403
:1009B8002CFCE5F038CF3400CE89F0A42FFFE5F009
:1009C8003EFEE433C98DF0A42EFEE5F039CD8AF061
:1009D800A42FFFE5F03EFEE43DFD33D0E0FB5007D9
:1009E8000BBB000F020BBFEC2CFCEF33FFEE33FE0A
:0609F800ED33FD020B9738
:1009FE00020BBFEC5D046005E859047003020BB5F1
:100A0E00120B80580460F6EC4860F2EC7004FDFEA8
:100A1E00FF22C860DB2481C85009C39860025006CB
:100A2E00020BBC9850CAF582E9294B4A7005AB827D
:100A3E00020BAB75F0007C1A7880C3EF9BEE9AED3B
:100A4E0099400DC3EF9BFFEE9AFEED99FDE842F043
:100A5E00DC23ACF0D0E0FFD0E0FED0E0FDAB822096
:100A6E00E7101BEB60BAEC2CFCEF33FFEE33FEED20
:100A7E0033FD020B97E803F830E705C0F075F00080
:100A8E00EF2FFFEE33FEED33FD40B830E7C280AA04
:100A9E0074F8CC6480CCC86480C8F582046043C30B
:100AAE00EB9FF5F0EA9E42F0E99D42F0E89C45F09E
:100ABE0060305018E5825FFFE582F42B5582FB50C3
:100ACE00210ABA001D09B90019088016E5825BFBE0
:100ADE00E582F42F5582FF50090EBE00050DBD00B4
:100AEE00010CC3EB9FF5F0EA9E42F0E99D42F0E85F
:0D0AFE009C45F06007CC4820E701B3EC22D6
:100B0B0075F020800E75F010800575F0087D007E65
:100B1B00007F003392D530D503121136EC334010E1
:100B2B00EF33FFEE33FEED33FDEC33FCD5F0ED226E
:0E0B3B00E5F0247EA2D513CC92E7CDCEFF22AA
:100B4900EDD2E7CD33EC3392D524814006E4FFFEA4
:100B5900FDFC22FCE4CFCECDCC24E0501174FF8003
:100B6900EDC3CC13CCCD13CDCE13CECF13CF0470A0
:070B7900F030D5DE02113659
:10194D00E51224A0F582E43403F583E0051222901C
:10195D00039D3010039003A0E475F00112120D02E7
:10196D000EEA2009E97F2ED2098018EF540F24903A
:10197D00D43440D4FF300D0BEF24BFB41A00500304
:10198D002461FFE513600215130516E516700205B7
:10199D001530100E90039DE475F00112120DEF023B
:1019AD000F300251EE7403D2108003E4C210F51211
:1019BD0090039D121224E4F513F515F516E5136049
:1019CD00077F2012199080F57514FFC20AC209C253
:1019DD000BC20CC20EC20FC21112195CFF700D307A
:1019ED0010057F001219A1AF16AE1522B4255FC2E6
:1019FD00D5C20D12195CFF24D0B40A00501A75F02F
:101A0D000A781330D50508B6FF0106C6A426F620C0
:101A1D00D5047002D20C80D924CFB41A00EF500433
:101A2D00C2E5D20D021C93D20A80C6D20980C0D263
:101A3D000B80BCD2D580BAD20E80B47F2012199003
:101A4D00200B077401B5130040F112194DFF121947
:101A5D00900219CAD211D20F809512194DFB12198D
:101A6D004DFA12194DF94A4B700679917A1D7BFF8B
:101A7D00200B2EE513602A7E008E82758300120FD7
:101A8D000360060EEE651470F0C2D5EBC0E0EAC03F
:101A9D00E0E9C0E0EE121CF4D0E0F9D0E0FAD0E0BD
:101AAD00FB120EEAFF60AAEBC0E0EAC0E0E9C0E07D
:101ABD00121990D0E02401F9D0E03400FAD0E0FB07
:101ACD00E5140460DCD514D98087D20B80A2121CDA
:101ADD00D660F7E514700104120BF5A914600DE53D
:101AED0014600914F514121D7EEF60F3EA30E7025D
:101AFD00F404C3995079EAF425140430E701E404A1
:101B0D00F514800D121CD660C1EA05142514120BB4
:101B1D00F5EA9003CCF030E701E4251404D5140464
:101B2D00200E0114121CF4E4C0E0121D7E9003CCB3
:101B3D00E0601320E70714F0121978802204F0D02A
:101B4D00E014C0E07F00121978E514600712196FD8
:101B5D001514800B300E0312196FD0E00219CAD084
:101B6D00E00480C4121CD6609EE51404120BF5909F
:101B7D0003CCEAF0E514200E026001042404121CCB
:011B8D00F463
:101B8E0074FF04C0E0121D7E121978E514200E02B7
:101B9E00600312196FD0E0B514E87F4512198290D8
:101BAE0003CCE07F2B30E7047F2DF404C0E0121944
:101BBE0090D0E075F00A84C0F0121979D0E01219B5
:101BCE00790219CA791080027908C20FC2118008F1
:101BDE00D2D5790A8004790AC2D5E514047002F5CB
:101BEE0014E4FAFDFEFF12194DFC7B08200A1312B5
:101BFE00194DFD7B1030090A12194DFE12194DFFB9
:101C0E007B20EC3382D592D55013C3E43009069F66
:101C1E00FFE49EFEE4200A039DFDE49CFCE4CBF869
:101C2E00C20AEC700CCFCECDCCE824F8F870F3805D
:101C3E0017C3EF33FFEE33FEED33FDEC33FCEB3326
:101C4E00FB994002FB0FD8E9EB300A05F8D0E0C44F
:101C5E0048B20AC0E00AEC4D4E4F78207B0070C2AD
:101C6E00EAB5140040BCC0E0121CF6D0F0D0E02063
:101C7E000A04C4C0E0C4B20AC0F0121979D0F0D57B
:101C8E00F0EB0219CA12122D1A67531BD2581A38CA
:101C9E004C1A34421BD64F1BDE441BDE491A4D43F1
:101CAE001BE4551B11461B71451ADB471DB1501A1B
:101CBE003C2D1A402E1A632B1A44231A61201D9AAA
:101CCE002A19FC4800001A5BE514B4FF03751406CC
:101CDE0012194DFC12194DFD12194DFE12194DFF20
:101CEE009003C5020C32790AA2D5200C14300E09CD
:101CFE00B910020404B9080104A2D5200F02500144
:101D0E0004200B68920BB513005034C0E07F2030D6
:101D1E000C197F30A20B720F720E500F121D4DC296
:101D2E000BC20FC20EC2117F30800F300E03E9C0FE
:101D3E00E0121990300E03D0E0F9D0E0B513CC309C
:101D4E000E177F30B9100C1219907F58300D077F87
:101D5E00788003B90803121990300B057F2D0219F4
:101D6E00907F202011F87F2B200FF322920B80CF33
:101D7E007F00B40700500B24C5F582E43403F583CD
:101D8E00E0FF22286E756C6C2900D20A12194D30B4
:101D9E000AF8C20A781330D50108F60219FC2D5044
:101DAE0043495812194D2403B405004001E4901D17
:101DBE00AC93121981743A121981D20C7513040264
:021DCE001BD226
:0D57F800ED33EC3360065004EC6480FC22BD
:103F5E00020BB522EDA2E7D2E7F9EC3340F260F3A3
:103F6E00B4FF08ED547F70E8020BBFF82481C2E065
:103F7E00C0E0F40428FAC313FCED92E7FD9003AD04
:103F8E001211D0EEA2E7E9BA7F02C31334009400F7
:103F9E00FA75F091A4E5F013F494FE8AF0A433E5DB
:103FAE00F033248CD313FDE492E7FE7F007C3F7543
:103FBE008302ECC0E0F8EDC0E0F9EEC0E0FAEFC02D
:103FCE00E0FB8583F09003AD12116885F083120A31
:103FDE0001D0E0FBD0E0FAD0E0F9D0E0F81208070B
:103FEE00ED6480FD30E7011CD583C7ED33CC33F88B
:0C3FFE00D0E0A2E71328C313CC13FD226F
:102F6A003A70FA83BCAAE9E43E81E0F8BF9DE9E63B
:102F7A003F80000039283C1ABB9969663DA335E3B6
:102F8A00BF255DE73FC90FDB418DDBCCC44936EE77
:102F9A0045C9913FC5B0F83D3F800000C317F534DD
:102FAA00452FFA73C60AFDDD12307304A2E1921BA3
:102FBA001420E015902F6A7404120D3780301230F5
:102FCA007330E102B21B20E0EBA883A98290063598
:102FDA001211D089828883902F7E7404120D37854E
:102FEA0082F090063512118485F0821208F8ED4CB1
:102FFA006007301B04EC6480FC22123073C0E0A826
:10300A0083A9829006351211D089828883902FA2D3
:10301A007403120D378582F090063512118485F0FB
:10302A00821208F8900635E0CCF0A3E0CDF0A3E0D8
:10303A00CEF0A3E0CFF0902F927403120D37D08216
:10304A008582F090063512118485F082E58230E09F
:10305A0007120A01B21B8096EFCBFFEECAFEEDC93A
:10306A00FDECC8FC120A018085ED33EC547FCC33A9
:10307A00921B24605007D0E0D0E0020BB57B837A24
:10308A00F97922783E1208F8EDF933ECF833248105
:10309A005011EFFBEEFA120B49120B0BECB2E7FCE4
:1030AA00120807ED33EC33602F2403F8C313FCED49
:1030BA0092E7FDE82481E4501FECF8EDF9EEFAEF0F
:1030CA00FB120B49EF04C2E0FCF582120B15ECB2BD
:1030DA00E7FC120807E58203FAED33EC33600714C4
:0830EA0013FCED92E7FDEA2260
:1030F2009003AA1211D0E4FFFE7D807C3F9003AAC8
:10310200E0F8A3E0F9A3E0FAA3E0FB120A9E70063E
:103112009003AA02324C9003AAE0FCA3E0FDA3E0D4
:10312200FEA3E0FF120BCAFBA3E0FCA3E0FDA3E0B9
:10313200FEA3E0FF120BCAFFB40108E4FFFE7D808C
:103142007C3F22EF64046029EB64046024EBB40149
:1031520030E4FFFEFDFC9003AEE0F8A3E0F9A3E04B
:10316200FAA3E0FB120A9E60084006E4FFFEFDFCA3
:10317200229003AE1211DCFFFFFFFF9003AE02327A
:103182004CE49003B2F0A3F0FFFEFDFC9003AAE032
:10319200F8A3E0F9A3E0FAA3E0FB120A9E505F90C5
:1031A20003AEE0FCA3E0FDA3E0FEA3E0FF120B49A7
:1031B2009003B2EEF0A3EFF0FDCCEECCEC120B10CC
:1031C200C8ECC8C9EDC9CAEECACBEFCB9003AEE0DA
:1031D200FCA3E0FDA3E0FEA3E0FF120803E4FBFA78
:1031E200F9F8120A9E708A9003AAE0FCA3E0FDA3FC
:1031F200E0FEA3E0FF120BE49003AA1211D09003A9
:10320200AAE0FCA3E0FDA3E0FEA3E0FF12364C908F
:1032120003AEE0F8A3E0F9A3E0FAA3E0FB1208F89A
:103222001242CA9003AE1211D09003B3E030E017FD
:103232009003AEE0FCA3E0FDA3E0FEA3E0FF120BCF
:10324200E49003AE1211D09003AEE0FCA3E0FDA324
:06325200E0FEA3E0FF22F4
:100B8000E9D2E7C933E833F892D5EDD2E7CD33ECBB
:070B900033FC5002B2D52234
:100B9700EC30E7100FBF000C0EBE00080DBD0004BF
:100BA7000BEB6014A2D5EB13FCED92E7FD2274FF6B
:100BB700FCFDFEFF22E480F8A2D574FF13FC7D80C4
:030BC700E480EFD8
:100BCA00ED33EC33601004700FED547F700574023E
:0A0BDA0092E0227404220422E422B7
:100BE400ED33EC33600A047003BD8004ECB2E7FC1F
:010BF40022DE
:100BF500F920E73624F950037907E4F42402FBE5EC
:100C050082158270021583DBF6E024FB501BE96038
:100C150014E4F0E582158270021583E004F0B40A4D
:0D0C250008E4F0D9EE7401F00A22C2D522D5
:100C3200ED33EC3392D5FA602AB4FF33EDC2E77B91
:100C4200FF60067A0C7957E4227A0C796020D50489
:100C52007A0C795B224E614E002B494E46002D499B
:100C62004E4600E47A08F0A3DAFC7B00740722C047
:100C720083C082ECC0E0EDC0E0EEC0E0EFC0E0EA8D
:100C820075F010A4CAABF075F04DA42BFBE435F05F
:100C9200FCEA2410FAEB34C5FBEC34D9FCEDC2E7D4
:100CA200FF75F056A4F42411C5F0F434C58FF0A4F6
:100CB2002AE5F03BE43CF020E714120DB4D0E0FF4B
:100CC200D0E0FED0E0FDD0E0FC120A018014F40472
:100CD200120DB4D0E0FFD0E0FED0E0FDD0E0FC1277
:100CE20008F8D082D083E0FAEDD2E7CD33EC33249A
:100CF20082FBE4C3CF33CFCE33CECD33CD33DBF360
:100D02007B0775F00A846004F0A31B0AE5F0F0A3E8
:100D12008FF0740AA4FFACF08EF0740AA42CFEAC1F
:100D2200F050010C8DF0740AA42CFDE435F0F0A310
:050D3200DBDE74072266
:100D3700C0E0EFFBEEFAEDF9ECF81208F8D0E0F5B9
:100D4700F0EFFBEEFAEDF9ECF8121174A3A3A3A3ED
:100D5700E8C0E0E9C0E0EAC0E0EBC0E0C0F012089C
:100D6700F8121190A3A3A3A3120807D0F0D0E0FBB9
:0D0D7700D0E0FAD0E0F9D0E0F8D5F0D422B9
:1042920033DA929E35B16011377FE5FE3921848988
:1042A2003AAEC3FF3C1D955B3D6358473E75FDF03A
:1042B2003F3172183F800000C2D5020BBF020BB51E
:1042C200BD80FA50F3020BBCED33EC330460F17B9A
:1042D2003B7AAA79B8783F1208F8ED33EC3392D5DD
:1042E200247B5011A2D570DB500BED448024045086
:1042F20004A2D580CEEFFBEEFAEDF9ECF8120B49F1
:10430200EFF582F404FC120B15120807C0829042EA
:10431200927409120D46ED33CC33D0F092D525F0CC
:0A432200A2D57001C313CC13FD22D5
:103618003E9248DA3ECCCCCD3F2AAAAB400000000F
:103628003F8000003F9837F03FB504F33FD744FC94
:103638003E3172173EB172173F0515913EDE5BD9D8
:10364800D2098002C209EDD2E7F8CD33EC33047019
:103658000BBD800592D5020BBF020BB540FBD314FE
:1036680060F2F5F07C3FEE7A00C39496C8948B40E4
:10367800230AC89469C8941A401A0AC89468C89456
:103688001F40110AC8945AC89425400805F07A00CA
:10369800CDC2E7CDC0F09003B41211D0EA2323C005
:1036A800E02428F582E43436F583121190120807D5
:1036B800ECC0E0EDC0E0EEC0E0EFC0E012117490A5
:1036C80003B4121184120803D0E0FBD0E0FAD0E072
:1036D800F9D0E0B2E7F8120A019003B41211D090C1
:1036E80036187403120D379003B41211841208F8B7
:1036F800D0E0600F2434F582E43436F5831211905B
:103708001208079003B41211D0D0E0C3947FFDE4EF
:103718009400FC120B107B187A727931783F1208EA
:10372800F89003B412118412080730090B7BD97A78
:093738005B79DE783E1208F822EC
:100D84003F8000004120000042C80000447A000077
:100D9400461C400047C35000497424004B189680F9
:100DA4004CBEBC205A0E1BCA6753C21C749DC5AEF0
:100DB400FB60065407601C2323120DE2EB543860D9
:100DC40009120DCE120DDD1208F8ECF8EDF9EEFA69
:100DD400EFCB22EB120DDD80F1543803241C900D6F
:100DE40084FE93FC0EEE93FD0EEE930ECE93FF2243
:0300000002432C8C
:0C432C00787FE4F6D8FD758141024373F0
:100DF400E709F608DFFA8046E709F208DFFA803EE1
:100E040088828C83E709F0A3DFFA8032E309F608CD
:100E1400DFFA8078E309F208DFFA807088828C8335
:100E2400E309F0A3DFFA806489828A83E0A3F608E9
:100E3400DFFA805889828A83E0A3F208DFFA804CC3
:100E440080D280FA80C680D4806980F2803380109A
:100E540080A680EA809A80A880DA80E280CA803303
:100E640089828A83ECFAE493A3C8C582C8CCC5837B
:100E7400CCF0A3C8C582C8CCC583CCDFE9DEE7804B
:100E84000D89828A83E493A3F608DFF9ECFAA9F0CA
:100E9400EDFB2289828A83ECFAE0A3C8C582C8CC20
:100EA400C583CCF0A3C8C582C8CCC583CCDFEADE39
:100EB400E880DB89828A83E493A3F208DFF980CC9B
:100EC40088F0EF60010E4E60C388F0ED2402B40494
:100ED4000050B9F582EB2402B4040050AF2323453B
:060EE4008223900E44730E
:100EEA00BB010689828A83E0225002E722BBFE0206
:090EFA00E32289828A83E4932239
:100F0300BB010CE58229F582E5833AF583E02250A3
:100F130006E92582F8E622BBFE06E92582F8E222ED
:0D0F2300E58229F582E5833AF583E4932207
:100F3000BB010689828A83F0225002F722BBFE01A0
:020F4000F3229A
:100F4200F8BB010DE58229F582E5833AF583E8F0E5
:100F5200225006E92582C8F622BBFE05E92582C891
:020F6200F22279
:100F6400EF8DF0A4A8F0CF8CF0A428CE8DF0A42EA1
:020F7400FE225B
:100F7600BC000BBE0029EF8DF084FFADF022E4CC5F
:100F8600F875F008EF2FFFEE33FEEC33FCEE9DEC28
:100F9600984005FCEE9DFE0FD5F0E9E4CEFD22ED6E
:100FA600F8F5F0EE8420D21CFEADF075F008EF2FB8
:100FB600FFED33FD4007985006D5F0F222C398FDA9
:050FC6000FD5F0EA2246
:100FCB00C5F0F8A3E028F0C5F0F8E58215827002B1
:060FDB001583E038F0224E
:100FE100BB0110E58229F582E5833AF583E0F5F04E
:100FF100A3E0225009E92582F886F008E622BBFE2B
:101001000AE92582F8E2F5F008E222E5832AF58370
:08101100E993F5F0A3E9932235
:10101900E88FF0A4CC8BF0A42CFCE98EF0A42CFC76
:101029008AF0EDA42CFCEA8EF0A4CDA8F08BF0A4F4
:101039002DCC3825F0FDE98FF0A42CCD35F0FCEB53
:101049008EF0A4FEA9F0EB8FF0A4CFC5F02ECD3918
:0F105900FEE43CFCEAA42DCE35F0FDE43CFC2285
:1010680075F008758200EF2FFFEE33FECD33CDCC3F
:1010780033CCC58233C5829BED9AEC99E5829840C2
:101088000CF582EE9BFEED9AFDEC99FC0FD5F0D69F
:10109800E4CEFBE4CDFAE4CCF9A88222B800C1B9C9
:1010A8000059BA002DEC8BF084CFCECDFCE5F0CB07
:1010B800F97818EF2FFFEE33FEED33FDEC33FCEB40
:1010C80033FB10D703994004EB99FB0FD8E5E4F9FB
:1010D800FA227818EF2FFFEE33FEED33FDEC33FCE8
:1010E800C933C910D7059BE99A4007EC9BFCE99ADC
:1010F800F90FD8E0E4C9FAE4CCFB2275F010EF2F21
:10110800FFEE33FEED33FDCC33CCC833C810D70720
:101118009BEC9AE899400AED9BFDEC9AFCE899F85B
:0E1128000FD5F0DAE4CDFBE4CCFAE4C8F922EE
:104DA700C2D5E830E70FB2D5E4C39BFBE49AFAE437
:104DB70099F9E498F8EC30E717B2D5124DDD1210E7
:104DC700A4E4C39BFBE49AFAE499F9E498F8800316
:104DD7001210A430D50DE4C39FFFE49EFEE49DFDB1
:044DE700E49CFC222A
:0E113600C3E49FFFE49EFEE49DFDE49CFC22CA
:10114400EB9FF5F0EA9E42F0E99D42F0E89C45F001
:011154002278
:10115500E8600FECC313FCED13FDEE13FEEF13FF78
:03116500D8F1229C
:0C116800E0FCA3E0FDA3E0FEA3E0FF22FA
:10117400E493FC740193FD740293FE740393FF22C1
:0C118400E0F8A3E0F9A3E0FAA3E0FB22EE
:10119000E493F8740193F9740293FA740393FB22B5
:1011A000BB010DE58229F582E5833AF583021184BE
:1011B0005007E92582F8021253BBFE07E92582F8A1
:1011C000021260E58229F582E5833AF583021190E7
:0C11D000ECF0A3EDF0A3EEF0A3EFF02292
:1011DC00A8828583F0D083D0821211F31211F312FE
:1011EC0011F31211F3E473E493A3C583C5F0C58323
:1011FC00C8C582C8F0A3C583C5F0C583C8C582C85D
:01120C0022BF
:10120D00F8E0FBA3A3E0F925F0F0E582158270026A
:07121D001583E0FA38F0220E
:09122400EBF0A3EAF0A3E9F022CB
:10122D00D083D082F8E4937012740193700DA3A350
:10123D0093F8740193F5828883E473740293686064
:06124D00EFA3A3A380DF64
:1051EE00EFB40A07740D1251F9740A309811A89988
:1051FE00B8130CC2983098FDA899C298B811F63021
:07520E0099FDC299F59922F8
:10433800022564E493A3F8E493A34003F68001F212
:1043480008DFF48029E493A3F85407240CC8C33386
:10435800C4540F4420C8834004F456800146F6DF55
:10436800E4800B0102040810204080903EAAE47EFD
:10437800019360BCA3FF543F30E509541FFEE4934A
:10438800A360010ECF54C025E060A840B8E493A311
:10439800FAE493A3F8E493A3C8C582C8CAC583CA3C
:1043A800F0A3C8C582C8CAC583CADFE9DEE780BEF4
:013F5D000063
:0D125300E6FB08E6F908E6FA08E6CBF8220B
:0D126000E2FB08E2F908E2FA08E2CBF8220E
:00000001FF
