:0252AF004A3380
:0252B1004FD8D4
:0252B3004FF6B4
:0252B5004E01A8
:0252BF0051D3C9
:104C89002825662C25662920697320617272697648
:104C9900616C0A002825662C256629206973206124
:104CA90072726976616C2C746D70203D20256420C8
:024CB9000A00EF
:103EA5004403A640F000004403AA41A000004403D7
:0C3EB5007E0000000044038200000000BA
:104A33001252017F02124EB89003AAE0FCA3E0FDDC
:104A4300A3E0FEA3E0FF9002901211D09003A6E032
:104A5300FCA3E0FDA3E0FEA3E0FF1250C47F01121C
:104A630027327F021227327F031227327F08122751
:064A730032E4FF0227BB44
:10523D001253BABF010CE4FBFA7D057F021228441C
:02524D0080EEF1
:01524F00223C
:104CE8009003AAE0FCA3E0FDA3E0FEA3E0FF90028E
:104CF800F21211D09003A6E0FCA3E0FDA3E0FEA30E
:0B4D0800E0FF1250E012523D024ABDD5
:1048AC0090058B1211D01253B378E17C037D017EFD
:1048BC00007F08120EC490058BE0FCA3E0FDA3E082
:1048CC00FEA3E0FF9003E5E0F8A3E0F9A3E0FAA370
:1048DC00E0FB1208079002F21211D09003E1E0FC09
:1048EC00A3E0FDA3E0FEA3E0FF1250E012523D0254
:0248FC004ABDB3
:1048FE0090058F1211D01253B378E17C037D017EA7
:10490E00007F08120EC490058FE0F8A3E0F9A3E033
:10491E00FAA3E0FB9003E5E0FCA3E0FDA3E0FEA319
:10492E00E0FF1208039002F21211D09003E1E0FCB6
:10493E00A3E0FDA3E0FEA3E0FF1250E012523D0201
:02494E004ABD60
:1046DC009005931211D01253B378E17C037D017EC7
:1046EC00007F08120EC4900593E0F8A3E0F9A3E054
:1046FC00FAA3E0FB9003E1E0FCA3E0FDA3E0FEA342
:10470C00E0FF120803C004C005C006C0079003E513
:10471C00E0FCA3E0FDA3E0FEA3E0FF9002F2121187
:10472C00D0D007D006D005D0041250E012523D0272
:02473C004ABD74
:10473E009005971211D01253B378E17C037D017E60
:10474E00007F08120EC4900597E0FCA3E0FDA3E0E5
:10475E00FEA3E0FF9003E1E0F8A3E0F9A3E0FAA3E3
:10476E00E0FB120807C004C005C006C0079003E5B1
:10477E00E0FCA3E0FDA3E0FEA3E0FF9002F2121125
:10478E00D0D007D006D005D0041250E012523D0210
:02479E004ABD12
:10461000E490059BF0A3F0E490059BF0A3F07FCD20
:104620007ECC7DCC7C3D1248AC90059CE004F070C3
:104630000690059BE004F0C390059CE0946490050F
:104640009BE0940040D8E490059BF0A3F0C3900554
:104650009CE0946490059BE0940050BB7FCD7ECCA1
:104660007DCC7C3D1248FE90059CE004F070DE900D
:07467000059BE004F080D679
:104BE4009005A97406F09005A9E0FCE4120B1512D7
:104BF40048AC9005A9E0FCE4120B1512473E900561
:104C0400A9E0FCE4120B151248FE9005A9E0FCE4AF
:084C1400120B151246DC80CEE4
:103B7700E490059DF0A3F090059DF0A3F09003510C
:103B870074FFF0A3744CF0A37489F090037EE0FCFB
:103B9700A3E0FDA3E0FEA3E0FF9003541211D09031
:103BA7000382E0FCA3E0FDA3E0FEA3E0FF9003583F
:103BB7001211D07B017A0379AE121E637B017A035F
:103BC70079AE1251EA90037EE0FCA3E0FDA3E0FE8C
:103BD700A3E0FFE4FBFA7980783F12080790037EA1
:103BE7001211D0E4FFFEFD7C4090037EE0F8A3E0D5
:103BF700F9A3E0FAA3E0FB1208F89003821211D0B0
:103C0700900382E0FCA3E0FDA3E0FEA3E0FF9002A7
:103C1700F21211D090037EE0FCA3E0FDA3E0FEA327
:103C2700E0FF1250E012523D124ABD90059EE0049B
:103C3700F0700690059DE004F0C390059EE0940E99
:103C470090059DE0648094805003023B84024CE819
:062D6E009002D41211D006
:102D7400E49002DCF0A3F09003A6E0FCA3E0FDA342
:102D8400E0FEA3E0FF9002DE1211D09003AAE0FC63
:102D9400A3E0FDA3E0FEA3E0FF9002E21211D090B5
:102DA40002E61211DC448000009002EA1211DC43B6
:102DB400B40000E49002DCF0A3F09002DCE0FCA399
:102DC400E0FDEC120B109002E6E0F8A3E0F9A3E0BA
:102DD400FAA3E0FB120A9E5003022F3790035174AA
:102DE400FFF0A3744CF0A3749DF09002DEE0FCA30A
:102DF400E0FDA3E0FEA3E0FF9003541211D0900283
:102E0400E2E0FCA3E0FDA3E0FEA3E0FF9003581280
:102E140011D09002DCE0FFA3E090035CCFF0A3EFBD
:102E2400F07B017A0379AE121E637B017A0379AEDB
:102E34001251EA9002EAE0FCA3E0FDA3E0FEA3E065
:102E4400FFC004C005C006C0079002E6E0F8A3E096
:102E5400F9A3E0FAA3E0FBE4FFFE7DB47C43120A8D
:102E640001A804A905AA06AB07D007D006D005D04F
:102E7400041208039002EA1211D07F4D7EF37D8E76
:102E84007C3C9002EAE0F8A3E0F9A3E0FAA3E0FBBB
:102E94001208F8123146E4FBFA79A078401208F8D7
:102EA4009002D4E0F8A3E0F9A3E0FAA3E0FB12084F
:102EB400079002DE1211D07F4D7EF37D8E7C3C9014
:102EC40002EAE0F8A3E0F9A3E0FAA3E0FB1208F8B1
:102ED40012315CE4FBFA79A078401208F89002D829
:102EE400E0F8A3E0F9A3E0FAA3E0FB1208079002DC
:102EF400E21211D09002E2E0FCA3E0FDA3E0FEA305
:102F0400E0FF9002F21211D09002DEE0FCA3E0FD9B
:102F1400A3E0FEA3E0FF1250E012523D124ABD901E
:102F240002DDE004F06003022DBE9002DCE004F058
:062F3400022DBE024CE874
:1051D3009002D81211DC41F000007F007E007D6058
:0751E3007C41122D6E80E9F2
:104FD800E4FF1252D35004E4FD80037D02E4FF1283
:0E4FE800534BE4FBFA7D017F0212284480E265
:104FF6007F011252D35004E4FD80027D027F01122C
:0E500600534BE4FBFA7D017F0212284480E246
:104E0100E4FF125308EF60087F01125308EF7004AA
:104E11007F018002E4FF1253C0E4FBFA7D037F02AD
:054E210012284480DBB3
:10377F0063757272656E744C656674576972654CC9
:10378F00656E6774682069732025660D0A0063757E
:10379F007272656E745269676874576972654C65A9
:1037AF006E6774682069732025660D0A0074617254
:1037BF006765744C656674576972654C656E67749E
:1037CF00682069732025660D0A007461726765743D
:1037DF005269676874576972654C656E67746820C3
:1037EF0069732025660D0A00445F6C65667457691E
:1037FF0072654C656E6774682069732025660D0AC3
:10380F0000445F7269676874576972654C656E67CB
:10381F0074682069732025660D0A006C6566746DE7
:10382F006F746F7250756C73652069732025640D0A
:10383F000A0072696768746D6F746F7250756C737C
:10384F00652069732025640D0A004B2069732025BC
:10385F00660D0A007269676874537465706D6F74D2
:10386F006F725370656564206973202564200D0A9B
:10387F00006C656674537465706D6F746F725370FE
:0D388F00656564206973202564200D0A0022
:0653BA00900445E0FF2213
:0653C000900445EFF0220D
:104ABD009004457401F012194DE4FF1252507F011C
:104ACD00125250900446E0FCA3E0FDA3E0FEA3E0EB
:104ADD00FF90044E1211D090044AE0FCA3E0FDA318
:0D4AED00E0FEA3E0FF9004521211D0D3228E
:1052F700E4FF12506D7F0112506DE4900445F0D326
:015307002283
:1050C40090044E1211D0900290E0FCA3E0FDA3E006
:0C50D400FEA3E0FF9004521211D0D32282
:1050E0009004461211D09002F2E0FCA3E0FDA3E090
:0C50F000FEA3E0FF90044A1211D0D3226E
:0753B3007B017A04794E2210
:1049E90090028D1211DC3FE666669002917410F018
:1049F900A37403F0A374E8F0A31211DC4079999A27
:104A0900E4FF123C5790028D1211DC3FE666669076
:104A190002917410F0A37403F0A374E8F0A31211C7
:0A4A2900DC4079999A7F01023C57A6
:10389C00E0FCA3E0FDA3E0FEA3E0FF9003531211B4
:0338AC00D0E4FF66
:0238AF00AB0765
:1038B1009003571211DC00000000EB900353705489
:1038C100E0F8A3E0F9A3E0FAA3E0FBE4FFFE7D52F8
:1038D1007C42120803C004C005C006C00790035F04
:1038E1001211DC40000000D007D006D005D0041230
:1038F1003286C004C005C006C00790035F1211DC08
:103901004000000090034FE0FCA3E0FDA3E0FEA314
:10391100E0FF806CE0F8A3E0F9A3E0FAA3E0FBE4A8
:10392100FFFE7D527C42120803C004C005C006C0E0
:103931000790035F1211DC40000000D007D006D0D1
:1039410005D004123286C004C005C006C00790032A
:103951004FE0F8A3E0F9A3E0FAA3E0FBE4FFFE7D6A
:10396100F07C41120803C004C005C006C0079003E3
:103971005F1211DC40000000D007D006D005D00452
:10398100123286D003D002D001D000120807123FB4
:10399100559003571211D0900357E0FCA3E0FDA30B
:0539A100E0FEA3E0FFC1
:0139A60022FE
:103DE60090034E1211D090035AE0F8A3E0F9A3E035
:103DF600FAA3E0FB900352E0FCA3E0FDA3E0FEA3E0
:103E0600E0FF120803C004C005C006C00790035AAD
:103E1600E0F8A3E0F9A3E0FAA3E0FB900352E0FC8C
:103E2600A3E0FDA3E0FEA3E0FF120803D003D00247
:103E3600D001D0001208F8C004C005C006C0079023
:103E46000356E0F8A3E0F9A3E0FAA3E0FB90034EE3
:103E5600E0FCA3E0FDA3E0FEA3E0FF120803C0041C
:103E6600C005C006C007900356E0F8A3E0F9A3E03A
:103E7600FAA3E0FB90034EE0FCA3E0FDA3E0FEA363
:103E8600E0FF120803D003D002D001D0001208F8D8
:0F3E9600D003D002D001D000120807123F5522EE
:0B4C1C00E0FCA3E0FDA3E0FEA3E0FF2E
:104C270090034E1211D0E4FFFE7DB47C4590034EF5
:104C3700E0F8A3E0F9A3E0FAA3E0FB1208F87B5839
:0D4C47007A3679B77841120A01120B492222
:10194D00E4900320F0A3F090044EE0FCA3E0FDA38F
:10195D00E0FEA3E0FF90034F1211D0900452123815
:10196D009C9003321211D090044EE0FCA3E0FDA335
:10197D00E0FEA3E0FF90034F1211D0900452E0FC63
:10198D00A3E0FDA3E0FEA3E0FF9003531211D07F6F
:10199D00011238AF9003361211D090035174FFF03D
:1019AD00A37437F0A3747FF0900332E0FCA3E0FD45
:1019BD00A3E0FEA3E0FF9003541211D07B017A0245
:1019CD0079EE121E6390035174FFF0A37437F0A3E8
:1019DD00749DF0900336E0FCA3E0FDA3E0FEA3E0D0
:1019ED00FF9003541211D07B017A0279EE121E631F
:1019FD00900446E0FCA3E0FDA3E0FEA3E0FF90030E
:101A0D004F1211D090044A12389C90033A1211D003
:101A1D00900446E0FCA3E0FDA3E0FEA3E0FF9003ED
:101A2D004F1211D090044AE0FCA3E0FDA3E0FEA309
:101A3D00E0FF9003531211D07F011238AF90033E97
:101A4D001211D090035174FFF0A37437F0A374BC3E
:101A5D00F090033AE0FCA3E0FDA3E0FEA3E0FF90CD
:101A6D0003541211D07B017A0279EE121E6390039A
:101A7D005174FFF0A37437F0A374D9F090033EE0D6
:101A8D00FCA3E0FDA3E0FEA3E0FF9003541211D0F0
:101A9D007B017A0279EE121E63900332E0F8A3E027
:101AAD00F9A3E0FAA3E0FB90033AE0FCA3E0FDA369
:101ABD00E0FEA3E0FF12080312537690032A1211E1
:101ACD00D0900336E0F8A3E0F9A3E0FAA3E0FB9091
:101ADD00033EE0FCA3E0FDA3E0FEA3E0FF1208033C
:101AED0012537690032E1211D090035174FFF0A370
:101AFD007437F0A374F7F090032AE0FCA3E0FDA384
:101B0D00E0FEA3E0FF9003541211D07B017A02791D
:101B1D00EE121E6390035174FFF0A37438F0A3749A
:101B2D0010F090032EE0FCA3E0FDA3E0FEA3E0FF88
:101B3D009003541211D07B017A0279EE121E63903C
:101B4D000332E0FCA3E0FDA3E0FEA3E0FF90033A27
:101B5D00E0F8A3E0F9A3E0FAA3E0FB120A9E40042B
:101B6D00D2098002C209E4FF125150900336E0FC05
:101B7D00A3E0FDA3E0FEA3E0FF90033EE0F8A3E0A9
:101B8D00F9A3E0FAA3E0FB120A9E4004C209800209
:101B9D00D2097F0112515090032A124C1CE4FCFD16
:101BAD009003261211D090032E124C1CE4FCFD90D4
:101BBD0003221211D090044AE0FCA3E0FDA3E0FE45
:101BCD00A3E0FF9003521211D090044EE0FCA3E06D
:101BDD00FDA3E0FEA3E0FF9003561211D090045236
:101BED00E0FCA3E0FDA3E0FEA3E0FF90035A121179
:101BFD00D0900446E0FCA3E0FDA3E0FEA3E0FF12BD
:101C0D003DE690034A1211D0900322E0FCA3E0FDC3
:101C1D00A3E0FEA3E0FFE4120B0BC004C005C00659
:101C2D00C007900326E0FCA3E0FDA3E0FEA3E0FFC8
:101C3D00E4120B0BA804A905AA06AB07D007D00622
:101C4D00D005D004120A019003421211D090035115
:101C5D0074FFF0A37438F0A3742AF0900326E0FC0F
:101C6D00A3E0FDA3E0FEA3E0FF9003541211D07B8F
:101C7D00017A0279EE121E6390035174FFF0A37482
:101C8D0038F0A37441F0900322E0FCA3E0FDA3E043
:101C9D00FEA3E0FF9003541211D07B017A0279EE7E
:101CAD00121E6390035174FFF0A37438F0A374599E
:101CBD00F0900342E0FCA3E0FDA3E0FEA3E0FF9063
:101CCD0003541211D07B017A0279EE121E637B014F
:101CDD007A0279EE1251EA7F007E807DA27C4490DB
:101CED000342E0F8A3E0F9A3E0FAA3E0FB1208F841
:101CFD00120B49900346EEF0A3EFF0C39414EE944B
:101D0D000540349003467405F0A37414F090034617
:101D1D00E0FCA3E0FDE4120B10900342E0F8A3E019
:101D2D00F9A3E0FAA3E0FB120A01120B4990034854
:101D3D00EEF0A3EFF0800A9003487405F0A374143D
:101D4D00F090035174FFF0A37438F0A37463F09016
:101D5D000346E0FFA3E0900354CFF0A3EFF07B0127
:101D6D007A0279EE121E637B017A0279EE1251EA44
:101D7D0090035174FFF0A37438F0A37480F09003B6
:101D8D0048E0FFA3E0900354CFF0A3EFF07B017A7E
:101D9D000279EE121E637B017A0279EE1251EA90FE
:101DAD000326E0FCA3E0FDA3E0FEA3E0FF90034FBC
:101DBD001211D0900348E0FFA3E0900353CFF0A39E
:101DCD00EFF0E4FF124E26900322E0FCA3E0FDA30A
:101DDD00E0FEA3E0FF90034F1211D0900346E0FF09
:101DED00A3E0900353CFF0A3EFF07F01124E26D363
:011DFD0022C3
:104F1C00535443313577346B3538733427732055FC
:104F2C0041525431206973206F70656E200D0A0058
:104C540090028C7440F0A37401F0A31211D090025E
:104C6400937401F0E4A3F0A304F0A3F0E4A3F0A38D
:104C7400F07B017A02798C7F0112126D7BFF7A4FEF
:054C8400791C0251EA59
:0153F4002296
:105201007F007EC27D017C00124C54124858124E20
:04521100DA0249E98B
:0153F5002295
:0153F6002294
:0153F7002293
:0153F8002292
:0153F9002291
:03000B00022620AA
:10261B00C2AF80FE3212261F85D00B75D008AAE000
:10262B00C28CE58A2443F58AE58C34F6F58CD28C82
:10263B00EC2418F8E6BC080274FFC39581B41400AF
:10264B0040CE7909782416E608700BC2AFE630E16C
:10265B00034418F6D2AF08D9EDEA8BD022E50CFF74
:10266B00232425F80F0808BF09047F007825E630DE
:10267B00E4F200E50CC39F5020050C7417250CF8F1
:10268B00E6FDA68108E6AE0CBE080274FFCDF8E8A5
:10269B006D60E008E6C0E080F6E50CD39F4027E5CF
:1026AB000C2418F8E6AE0CBE080274FFFD18E6CD3C
:1026BB00F8E5816D6006D0E0F61880F5E50C24177F
:1026CB00C8F6150C80D3E50C232425F87F04C2AF84
:1026DB00E630E00310E20C7F0030E10730E3047FCB
:1026EB000854F4547CC6D2AF54804207227817A604
:1026FB008174086006FF0876FFDFFB7F09E478240E
:10270B00F608F608DFFA782576309052AF7401930D
:10271B00C0E0E493C0E0438901758A3C758CF6D226
:07272B008CD2AFD2A92208F5
:0533EC00900547EDF023
:1033F100E490054EF0A3F090054AE0FFA3E09005AC
:1034010050CFF0A3EFF0900548E0FFA3E090055204
:10341100CFF0A3EFF0E490054CF0A3F0900547E066
:10342100FF90054CE0FCA3E0FDC39F7480F8EC64C1
:10343100809840030234E6ED25E0FFEC338F82F5FE
:1034410083120FE1FFC3900551E09F900550E09575
:10345100F0501D90054DE025E0FF90054CE0338FC5
:1034610082F583120FE1FF900550E5F0F0A3EFF034
:1034710090054DE025E0FF90054CE0338F82F58308
:10348100120FE1FFD3900553E09F900552E095F0B4
:10349100401D90054DE025E0FF90054CE0338F8203
:1034A100F583120FE1FF900552E5F0F0A3EFF090E4
:1034B100054DE025E0FF90054CE0338F82F5831246
:1034C1000FE1FFAEF090054FE02FF090054EE03E8A
:1034D100F090054DE004F0600302341D90054CE0CE
:1034E10004F002341D900552E0FEA3E0FF90055167
:1034F100E02FFF900550E03EFEC390054FE09FFF97
:1035010090054EE09EFEF0A3EFF0900547E024FE0B
:10351100FDE434FFFC120F7690054EEEF0A3EFF0C0
:013521002287
:103EC100602A04D000000000000000000000000093
:103ED10000000000000000000000000000000000E1
:0E3EE1000000000000000000000000000000D3
:103FFD0090055BEBF0A3EAF0A3E9F0900003120F3C
:10400D0003FF900557E0FBA3E0FAA3E0F9A3E0FE60
:10401D00F582758300EF120F4290055BE0FBA3E084
:10402D00FAA3E0F9900002120F03FFEE2401FDE464
:10403D0033FC900557E0FBA3E0FAA3E0F98D828CE9
:10404D0083EF120F4290055BE0FBA3E0FAA3E0F9CA
:10405D00900001120F03FFEE2402FDE433FC9005E6
:10406D0057E0FBA3E0FAA3E0F98D828C83EF120FEA
:10407D004290055BE0FBA3E0FAA3E0F9120EEAFF24
:10408D00EE2403FDE433FC900557E0FBA3E0FAA317
:0A409D00E0F98D828C83EF020F42E0
:104B7200900570E0900576F0123522E4900571F010
:104B8200900570E0FF1240A7900571E0FEC39F50B0
:104B92001774D02EF582E43404F583E0FF124DB38E
:084BA200900571E004F080D8D9
:014BAA0022E8
:103522009005721211D0900576E0FFD3940A400301
:10353200023655EF7003023655EF14B40A00400309
:1035420002365590355375F003A4C58325F0C58323
:103552007302357102358702359E0235B50235CCCC
:103562000235E20235F802360E02362402363A906D
:1035720005577401F0A37404F0A374D0F0A374018E
:10358200F0FB02364E9005577401F0A37404F0A3C9
:1035920074D0F0A37405F07B0102364E9005577487
:1035A20001F0A37404F0A374D0F0A37409F07B01BA
:1035B20002364E9005577401F0A37404F0A374D040
:1035C200F0A3740DF07B0102364E9005577401F0A2
:1035D200A37404F0A374D0F0A37411F07B01806C87
:1035E2009005577401F0A37404F0A374D0F0A3748F
:1035F20015F07B0180569005577401F0A37404F016
:10360200A374D0F0A37419F07B0180409005577425
:1036120001F0A37404F0A374D0F0A3741DF07B0135
:10362200802A9005577401F0A37404F0A374D0F0BB
:10363200A37421F07B0180149005577401F0A374E8
:1036420004F0A374D0F0A37425F07B017A0579729B
:04365200123FFD2204
:1040A700EFD3940A5003EF70037F00229004D0747B
:1040B70024F0EF14B40A0040030241499040D1753F
:1040C700F003A4C58325F0C583730240EF0240F8CF
:1040D70002410102410A02411302411C0241250229
:1040E700412E0241370241409004D57405F07F0606
:1040F700229004D97409F07F0A229004DD740DF030
:104107007F0E229004E17411F07F12229004E5746F
:1041170015F07F16229004E97419F07F1A22900493
:10412700ED741DF07F1E229004F17421F07F22228E
:104137009004F57425F07F26229004F97429F07F06
:054147002A227F002286
:1052C100900577EEF0A3EFF0A3EBF0A3EAF0A3E9EA
:0252D100F022C9
:083EEF00C112C113C114C11579
:104F5C009005A07478F0E490059FF07B017A0579B8
:0E4F6C009F7F02122F3AD2A3D2A4D2A5D2A6C2
:014F7A002214
:0A538300EF4E7005EE4F24FFB32239
:10505000EF24F0600F24F0600E24E0600D2438701F
:0D5060000BA21222A21322A21422A21522DA
:10480100A2A3E4FE33FF125383500EA2A3E433FFAD
:104811001253835006D2128002C212A2A4E4FE33C4
:10482100FF1253835007201306D2138002C213A232
:10483100A5E4FE33FF1253835007201406D21480DF
:1048410002C214A2A6E4FE33FF12538350062015C0
:0748510005D21522C2152259
:10501400626F726164206C65642077617320696ECD
:0E502400697469616C697A656420200D0A0068
:023EF700C118F0
:104EDA0090028D7405F0E490028CF07B017A0279DD
:104EEA008C7F05122F3A7BFF7A5079141251EAD33C
:014EFA002295
:0553E400C2CDD2182229
:0553E900D2CDC2182224
:104EB80090028CEFF090028CE0FF14F0EF60121279
:104EC80053E47FC812533B1253E97FC812533B8007
:024ED800E422D2
:0353EE00A21822E0
:0653C6009005AAEFF022A1
:104E95000D0A20737465704D6F746F72202575202F
:104EA50077617320696E697469616C697A656420DC
:034EB5000D0A00E3
:104E2600C00790034FE0FCA3E0FDA3E0FEA3E0FF74
:104E36009003581211D0900353E0FCA3E0FDD00775
:054E46001239A7D32280
:103D1F0090055EEFF0C007E4FFFE7DB47C43A3E0A7
:103D2F00F8A3E0F9A3E0FAA3E0FB1208F8C004C07F
:103D3F0005C006C00790055EE075F00EA424FFF5E0
:103D4F0082E43404F583E0FCE4120B15D003D002B7
:103D5F00D001D0001208F8C004C005C006C00790FB
:103D6F00055EE075F00EA42403F582E43405F583B7
:103D7F00E0FCA3E0FDA3E0FEA3E0FF7B567A0E7903
:103D8F004978401208F890055EE075F00EA424FB08
:103D9F00F582E43404F583E0F8A3E0F9A3E0FAA395
:103DAF00E0FB1208F8A804A905AA06AB07D007D0B4
:103DBF0006D005D004120A01120B4990034F1211BD
:103DCF00D0900563E0FFA3E0900353CFF0A3EFF093
:073DDF00D007124E26D3228B
:10467700900565EFF0E0FEFFC00775F00EA424FF7C
:10468700F582E43404F583E0FCE4120B159005662B
:10469700E0F8A3E0F9A3E0FAA3E0FB1208F890051D
:1046A70065E075F00EA424FBF582E43404F583E09D
:1046B700F8A3E0F9A3E0FAA3E0FB120A01120B4901
:1046C7009003581211D090056AE0FCA3E0FDD007D3
:0546D7001239A7D322F7
:104BAB009005A1EAF0A3EBF0C007AE04AF057C01C2
:104BBB007D68120F64AC06AD07E4120B109005660E
:104BCB001211D09005A1E0FFA3E090056ACFF0A3EE
:094BDB00EFF0D007124677D32257
:0F534B00EF7006900507EDF022900515EDF022AA
:10530800EF75F00EA42407F582E43405F583E0FF79
:015318002272
:10515000EF7009200904C2A78002D2A7EFB40109A9
:0B516000200904C2A58002D2A5D322C2
:10506D009005ABEFF012508A9005ABE075F00EA4F1
:0D507D002407F582E43405F5837401F02268
:10525000EF75F00EA42407F582E43405F583E4F03D
:03526000025032C7
:1050FC00EF7004C2A68002C2A4EF75F00EA42407C0
:0C510C00F582E43405F5837401F0D32231
:10511800EF7004D2A68002D2A4EF75F00EA4240783
:0C512800F582E43405F5837402F0D32214
:053C570090028CEFF06B
:103C5C00E49002A2F0A374F0F07B017A0279A27FC7
:103C6C0002122F3A90028DE0FCA3E0FDA3E0FEA32C
:103C7C00E0FF90028CE0FB75F00EA424FBF582E4CF
:103C8C003404F5831211D0900291E0FFEB75F00E25
:103C9C00A424FFF582E43404F583EFF0900292E063
:103CAC00FEA3E0FFEB75F00EA42400F582E43405CE
:103CBC00F583EEF0A3EFF0900294E0FCA3E0FDA3FB
:103CCC00E0FEA3E0FFEB75F00EA42403F582E434D0
:103CDC0005F5831211D0EB75F00EA42407F582E4E0
:103CEC003405F5837401F0124CBB90035174FFF052
:103CFC00A3744EF0A37495F090028CE004900354DE
:103D0C00F07B017A027998121E637B017A02799812
:033D1C000251EA67
:1028A3004C4344353131302077617320696E69744C
:1028B30069616C697A6564200D0A000000000000FC
:1028C300000000004F000000000700070000147F15
:1028D300147F1400242A7F2A120023130864620041
:1028E300364955225000000503000000001C224118
:1028F30000000041221C000014083E0814000808D0
:102903003E080800005030000000080808080800CE
:102913000060600000002010080402003E51494599
:102923003E0000427F400000426151494600214180
:10293300454B31001814127F1000274545453900D7
:102943003C4A4949300001710905030036494949A8
:102953003600064949291E0000363600000000569D
:10296300360000000814224100001414141414004B
:10297300004122140800020151090600324979413D
:102983003E007E1111117E007F4949493E003E41C0
:10299300414122007F4141221C007F4949494100B6
:1029A3007F09090901003E4149497A007F08080867
:1029B3007F0000417F4100002040413F01007F082C
:1029C300142241007F40404040007F0204027F0008
:1029D3007F0408107F003E4141413E007F09090901
:1029E30006003E4151215E007F09192946004649F0
:1029F3004949310001017F0101003F4040403F0050
:102A03001F2040201F003F4038403F00631408143C
:102A13006300030478040300615149454300007FC8
:102A23004141000015167C1615000041417F00004E
:102A3300040201020400404040404000000102043F
:102A430000002054545478007F48444438003844EC
:102A530044442000384444487F00385454541800F8
:102A6300087E090102000C5252523E007F08040402
:102A7300780000447D4000002040443D00007F106A
:102A83002844000000417F4000007E020C027C00CD
:102A93007E0402027C003844444438007C1414143D
:102AA3000800081414187C007C0804040800485427
:102AB30054542000043F444020003C4040207C000C
:102AC3001C2040201C003C4030403C00442810287F
:102AD30044000C5050503C004464544C44000008E3
:102AE3003641000000007F0000000041360800006E
:102AF30008040810080008082A1C0800081C2A08F3
:102B0300080004027F02040010207F2010001C2A0A
:092B1300322A1C001C2244221C81
:104F3C00C2CBED24FF92CA7E08EF30E704D2C980C1
:0F4F4C0002C2C9C2C8EF25E0FFD2C8DEECD2CB4B
:014F5B002233
:104EFB00E4FD7F80124F3C7F40124F3C7BF87A01E0
:104F0B007D01E4FF124F3CEB1B70011AEB4A70F072
:014F1B002273
:10526300AD07E4FF1252157C547D01E4FF124F3C5D
:02527300DCF766
:015275002216
:10521500AC05EF4480FFEC4440FCE4FD124F3CAF8D
:0452250004024F3CF4
:074AFA00E0FF04F0A3E0FD62
:104B010074E02BFBEF75F006A4FF125215E4FC755F
:104B1100F006EBA424BEF582E5F03428F583E582A6
:104B21002CF582E43583F583E493FF7D01124F3C3C
:054B31000CECB406DAF3
:014B3600225C
:104B370090057CEFF0A3EDF0A3EBF0A3EAF0A3E977
:104B4700F090057EE0FBA3E0FAA3E0F9120EEAFB82
:104B5700601890057CE0C3940E500F124AFA900536
:0B4B67007FE475F001120FCB80D72215
:10499E00900581EFF0A3EDF0A3EBF0A3EAF0A3E90D
:1049AE00F0900583E0FBA3E0FAA3E0F9120EEAFB18
:1049BE006028900581124AFA900584E475F0011280
:1049CE000FCB900581E0B40E06E4F0A3E004F09066
:0B49DE000582E0B406CBE4F080C722A5
:10495000E49005A3F0A3741FF07B017A0579A37F8F
:1049600005122F3AC2CCD2CCE4FD7F21124F3C7FFE
:1049700006124F3C7F13124F3C7FC8124F3C7F20E2
:10498000124F3C7F0C124F3C7F40124F3C7F8012F5
:0E4990004F3C124EFB7BFF7A2879A30251EABE
:103EF90042051E0000C116C1174205160000420501
:0D3F09001A0000420518000042051C0000CF
:0A39A700900356ECF0A3EDF0AB071F
:1039B100E490035CF0A3F0900356E0FEA3E0FFEB7C
:1039C10075F007A42424F582E43405F583EEF0A311
:1039D100EFF0900358E0FCA3E0FDA3E0FEA3E0FFBD
:1039E100EB75F007A42420F582E43405F583121168
:1039F100D0EB704F900356E0FEA3E0FFD39414EE9A
:103A01009400403BAB07AA06E4F9F87F807E847DF1
:103A11001EFC124A79E47B02FAF9F8124A79C3E4EE
:103A21009FFFE49E90035EF0A3EFF0C216438F0464
:103A310090035EE0FCA3E0FDECF5D68DD78051D27A
:103A410016804D900356E0FEA3E0FFD39414EE944C
:103A510000403BAB07AA06E4F9F87F807E847D1E17
:103A6100FC124A79E47B02FAF9F8124A79C3E49F1D
:103A7100FFE49E90035EF0A3EFF0C21743D10190E3
:103A8100035EE0FCA3E0FDECF5D48DD58002D217F6
:013A9100D361
:013A92002211
:10503200EF75F007A42426F582E43405F5837401A4
:0E504200F0EF7005438E10800343D108D32297
:10508A00EF7005538EEF800353D1F7EF75F007A445
:0D509A002426F582E43405F583E4F0D322EA
:1052D300EF75F007A42426F582E43405F583E02472
:0252E300FF22A8
:104CBB00E49002A4F0A304F0FB7A0279A47F031220
:104CCB002F3A9002A57410F07B017A0279A4E4FFCD
:0C4CDB00122F3AE4900526F090052DF011
:014CE70022AA
:0300630002451A39
:10451A00C0E0C0F0C083C082C0D075D000C000C067
:10452A0001C002C003C004C005C006C007E47F0280
:10453A00FEFDFC900520E0F8A3E0F9A3E0FAA3E071
:10454A00FB121019C006C007900516E475F0011297
:10455A000FCBAFF0AB07FAE4F9F8D007D006C312D5
:10456A001144400CE4FF12508A900516E4F0A3F0BF
:10457A00D007D006D005D004D003D002D001D00095
:0B458A00D0D0D082D083D0F0D0E0323F
:03009B0002459586
:10459500C0E0C0F0C083C082C0D075D000C000C0EC
:1045A50001C002C003C004C005C006C007E47F0205
:1045B500FEFDFC900527E0F8A3E0F9A3E0FAA3E0EF
:1045C500FB121019C006C007900518E475F001121A
:1045D5000FCBAFF0AB07FAE4F9F8D007D006C3125A
:1045E5001144400C7F0112508A900518E4F0A3F0A5
:1045F500D007D006D005D004D003D002D001D0001A
:0B460500D0D0D082D083D0F0D0E032C3
:0F533B007D367C07ED1D70011C144C70F7DFF1FF
:01534A002240
:0353F100A21922DC
:102F3A00EFD3940540037F0122120EEAFED39403D5
:102F4A0040037F0222EF7041EE700B900001120FD6
:102F5A0003F452935294120EEAB4010B9000011238
:102F6A000F034293F45294120EEAFEB4020A90003E
:102F7A0001120F0342934294EEB4030D9000011222
:102F8A000F03FEF45293EE4294EF64017043120E63
:102F9A00EAFE700B900001120F03F452915292EE66
:102FAA00B4010B900001120F034291F45292120ED7
:102FBA00EAB4020A900001120F0342914292120EE1
:102FCA00EAB4030D900001120F03FEF45291EE428F
:102FDA0092EF64027043120EEAFE700B9000011227
:102FEA000F03F452955296EEB4010B900001120FA2
:102FFA00034295F45296120EEAB4020A90000112A4
:10300A000F0342954296120EEAB4030D9000011284
:10301A000F03FEF45295EE4296EF64037043120ECC
:10302A00EAFE700B900001120F03F452B152B2EE95
:10303A00B4010B900001120F0342B1F452B2120E06
:10304A00EAB4020A900001120F0342B142B2120E10
:10305A00EAB4030D900001120F03FEF452B1EE42DE
:10306A00B2EF64047043120EEAFE700B9000011274
:10307A000F03F452B352B4EEB4010B900001120FD5
:10308A000342B3F452B4120EEAB4020A90000112D7
:10309A000F0342B342B4120EEAB4030D90000112B8
:1030AA000F03FEF452B3EE42B4EF64057043120EFE
:1030BA00EAFF700B900001120F03F452C952CAEFD3
:1030CA00B4010B900001120F0342C9F452CA120E46
:1030DA00EAB4020A900001120F0342C942CA120E50
:1030EA00EAB4030D900001120F03FFF452C9EF4234
:0430FA00CA7F002267
:1047A0009005A5ECF0A3EDF0AB079005A5E0FEA306
:1047B000E0FFE4FCFDEB75F00AA424E9F582E434A3
:1047C00003F5831211D043BA8053F57FEB75F00ADD
:1047D000A424F2F582E43403F583E0FF7E00900523
:1047E000A5E0FCA3E0FD120F64AB07AA06E4F9F80C
:1047F000FF7E367D6E7C01124A79124F7B53BA7F61
:014800002295
:10516B00EF75F00AA424E9F582E43403F583E0FC3F
:0A517B00A3E0FDA3E0FEA3E0FF2285
:103A9300900586EFF07F337E337D737C3FA3E0F8A0
:103AA300A3E0F9A3E0FAA3E0FB120A9E600C400A2C
:103AB3009005871211DC3F7333337FCD7ECC7DCCF1
:103AC3007C3C900587E0F8A3E0F9A3E0FAA3E0FBD0
:103AD300120A9E500A9005871211DC3CCCCCCD9083
:103AE3000587E0FCA3E0FDA3E0FEA3E0FF900586CD
:103AF300E0FB75F00AA424EEF582E43403F58312A7
:103B030011D043BA80EB75F00AA424F2F582E434B1
:103B130003F583E0FFE4FCFDFEEB75F00AA424E962
:103B2300F582E43403F583E0F8A3E0F9A3E0FAA314
:103B3300E0FB121019A804A905AA06AB077F007EB3
:103B4300367D6E7C011210A4E4120B0B900587E006
:103B5300F8A3E0F9A3E0FAA3E0FB1208F8120B497B
:103B6300AB07AA06900586E0FF7D0A7C0012414C54
:043B730053BA7F22A0
:10518500EF75F00AA424EEF582E43403F583E0FC20
:0A519500A3E0FDA3E0FEA3E0FF226B
:10531900EF75F00AA424F2F582E43403F583EDF085
:015329002261
:10532A00EF75F00AA424F2F582E43403F583E0FF72
:01533A002250
:0A538D0043BA8043F58053BA7F2233
:0A53970043BA8053F57F53BA7F221A
:104D130043BA807401A807088002C333D8FC42F564
:104D2300EF75F00AA424EDF582E43403F5837401EE
:084D3300F043F58053BA7F2222
:104E4B0043BA807401A807088002C333D8FCF4521C
:104E5B00F5EF75F00AA424EDF582E43403F583E451
:054E6B00F053BA7F22A4
:1052E500EF75F00AA424EDF582E43403F583E02498
:0252F500FF2296
:052281009005A7EFF03D
:10228600E4A3F09005A8E0FFC39406505AEF75F05A
:102296000AA424E9F582E43403F5831211DC000074
:1022A60000009005A8E0FF75F00AA424EDF582E48D
:1022B6003403F583E4F0EF75F00AA424EEF582E426
:1022C6003403F5831211DC000000009005A8E075C8
:1022D600F00AA424F2F582E43403F5837401F09045
:1022E60005A8E004F0809C43BA80120EEAB401050A
:1022F60043F180800353F17F900001120F03B40174
:10230600149005A7E0FF7401A807088002C333D81C
:10231600FC42F180139005A7E0FF7401A80708802E
:1023260002C333D8FCF452F1900002120F03B40139
:102336000543F540800353F5BF900003120F03B425
:1023460001149005A7E0FF7401A807088002C333B3
:10235600D8FC42F580139005A7E0FF7401A8070892
:102366008002C333D8FCF452F5900004120F03B474
:10237600010575F720800353F7DF900005120F0360
:10238600B4010575F710800353F7EF900006120F9E
:1023960003B4010575F708800353F7F79000071299
:1023A6000F03B4010575F704800353F7FB9000088B
:1023B600120F03B4010575F702800353F7FD900071
:1023C60009120F0390FFF27006E054EFF08004E06C
:1023D6004410F090FFF2C083C082E0FF90000A1222
:1023E6000F03FEEF4ED082D083F09005A7E0146075
:1023F600721470030224BC14700302250F147003B8
:102406000225621470030225B32405600302260A1E
:1024160090000B120F0390FF047006E054F7F08053
:1024260004E04408F090000C120F0390FF04B4017E
:1024360006E04404F08004E054FBF090000D120F17
:102446000390FF04B40106E04402F08004E054FD6A
:10245600F090000E120F0390FF04B4010302260051
:1024660002260690000B120F0390FF147006E0542C
:10247600F7F08004E04408F090000C120F0390FF80
:1024860014B40106E04404F08004E054FBF090002C
:102496000D120F0390FF14B40106E04402F080040D
:1024A600E054FDF090000E120F0390FF14B40103E8
:1024B60002260002260690000B120F0390FF2470DE
:1024C60006E054F7F08004E04408F090000C120F88
:1024D6000390FF24B40106E04404F08004E054FBBA
:1024E600F090000D120F0390FF24B40106E04402A1
:1024F600F08004E054FDF090000E120F0390FF24CC
:10250600B4010302260002260690000B120F039068
:10251600FF347006E054F7F08004E04408F09000C1
:102526000C120F0390FF34B40106E04404F080045B
:10253600E054FBF090000D120F0390FF34B4010637
:10254600E04402F08004E054FDF090000E120F0308
:1025560090FF34B4010302260002260690000B12F7
:102566000F0390FF447006E054F7F08004E044083F
:10257600F090000C120F0390FF44B40106E04404EF
:10258600F08004E054FBF090000D120F0390FF441E
:10259600B40106E04402F08004E054FDF090000E21
:1025A600120F0390FF44B40102804F805390000B3A
:1025B600120F0390FF547006E054F7F08004E044D5
:1025C60008F090000C120F0390FF54B40106E0448B
:1025D60004F08004E054FBF090000D120F0390FF0E
:1025E60054B40106E04402F08004E054FDF090008B
:1025F6000E120F0390FF54B40106E04401F080046C
:10260600E054FEF090000F120F03B4010443F5806E
:042616002253F57FD7
:01261A00229D
:104F7B00D3E49F74809E90FFF1400AEFF0EE90FF18
:0F4F8B00F0F07F002274FFF090FFF0747FF022AF
:10414C00EF14602814603A14604C14605E146070B4
:10415C00240560030241E390FF01EDF0EC90FF00B9
:10416C00F090FF03EBF0EA90FF02806790FF11EDF7
:10417C00F0EC90FF10F090FF13EBF0EA90FF128040
:10418C005290FF21EDF0EC90FF20F090FF23EBF02C
:10419C00EA90FF22803D90FF31EDF0EC90FF30F083
:1041AC0090FF33EBF0EA90FF32802890FF41EDF066
:1041BC00EC90FF40F090FF43EBF0EA90FF4280134D
:1041CC0090FF51EDF0EC90FF50F090FF53EBF0EAC4
:0A41DC0090FF52F07F00227F0122C5
:103F160041053502410536024205370000420539A2
:103F26000000420531000042052F00004105430014
:103F360041052E00410534004105330044053B0090
:0A3F460000000044053F00000000E9
:10485800E49002A4F090028CF0A3F0A3F0A3F0A3DC
:10486800F0900293F090029174A2F0A37440F0E4E7
:10487800900294F0A304F0A3F0A3F0E490029BF05C
:10488800A3F0A304F0A3F0A3F0E49002A3F07B014B
:104898007A0279947F02122B1C7B017A02799C7F21
:0448A80003022B1CC0
:104E7000900535E0601EA3E0601AEF24FE600B048D
:104E8000701290053BECF0A3EDF0AF0590053FEC00
:054E9000F0A3EFF02289
:10519F00EF24FE600804700E90053B800390053FDE
:0A51AF00E0FEA3E0FF22E4FEFF2271
:10513400EF24FE600C04701390053DECF0A3EDF039
:0C51440022AF05900541ECF0A3EFF02233
:1051B900EF24FE600804700E90053D8003900541C0
:0A51C900E0FEA3E0FF22E4FEFF2257
:0E535A00EF14700953D17F9005357402F022D4
:1050A700EF24FE600D047014900535E07002D322E2
:0D50B700C322900536E07003D38001C322B0
:104F9A00EF24FE600E047016900535E0B40102D3CA
:0F4FAA0022C322900536E0B40103D38001C32255
:104FB900EF24FE600E047016900535E0B40202D3AA
:0F4FC90022C322900536E0B40203D38001C32235
:10522900AE071250A7400CEF14700843D180E490E8
:045239000535F02225
:0E536800AE07124F9A5005125229D322C322CB
:0953A100900531E0FEA3E0FF22BB
:0953AA0090052FE0FEA3E0FF22B4
:0653CC00900543E0FF2202
:0653D20090052EE0FF2211
:0653D800900534E0FF2205
:0653DE00900533E0FF2200
:102B1C00AD07EDD3940440037F0122ED7073120EC8
:102B2C00EAFED3940340037F0222C28CC2A9C2B92D
:102B3C005389F0538E7F538FFE900002120F03B413
:102B4C000102D2A9900001120F03B40102D2B9EE16
:102B5C004289900003120F03FF7003438E80EFB481
:102B6C000203438904900004120F03B40103438F42
:102B7C0001900005120FE1E5F0F58C900005120FA5
:102B8C00E1F58A900007120F03B40102D28C7F008A
:102B9C0022ED64016003022C28C28E900002120FF9
:102BAC0003B40104D2AB8002C2AB900001120F033C
:102BBC00B40104D2BB8002C2BB120EEAFEC3940362
:102BCC0040037F0222E58954CF4EF5899000031211
:102BDC000F03FFB40103538EBFEF7003438E40EF1E
:102BEC00B4020543894080035389BF900004120F3F
:102BFC0003B40105438F028003538FFD900005122F
:102C0C000FE1E5F0F58D900005120FE1F58B9000CA
:102C1C0007120F03B40102D28E7F0022ED64027002
:102C2C0078538EEF900002120F03B4010543AF04EA
:102C3C00800353AFFB900003120F03FED3940240AA
:102C4C00037F0222EEB40103538EFB900003120F9C
:102C5C00037003438E04900003120F03B402054368
:102C6C008E088003538EF7900004120F03B40105F5
:102C7C00438F048003538FFB900005120FE1E5F0A6
:102C8C00F5D6900005120FE1F5D7900007120F034F
:102C9C00B40103438E107F0022ED6403706090003A
:102CAC0003120F03FED3940240037F022253D1F090
:102CBC0053AFDF900002120F03B4010343AF20EEB9
:102CCC00700343D102900003120F03B4020343D1EB
:102CDC0006900004120F03B4010343D101900005C8
:102CEC00120FE1E5F0F5D4900005120FE1F5D59047
:102CFC000007120F03B4010343D1087F0022ED64D7
:102D0C0004705C900003120F03FED3940240037F07
:102D1C00022253D10F53AFBF900002120F03B40124
:102D2C000343AF40EE700343D120900003120F0316
:102D3C00B4020343D160900005120FE1FDACF0EC3E
:102D4C00F5D28DD3900007120F03B4010343D18049
:102D5C00900004120F03B4010343D1107F00227FB3
:022D6C00022241
:10126D0090029AEBF0A3EAF0A3E9F0900299EFF067
:10127D006401600302147F90000004F0E4A3F0A366
:10128D00F0A3F0A3F0A3F0A3F090029DF090029DC7
:10129D00E0FFC39480501474382FF582E43401F5C7
:1012AD0083E4F090029DE004F080E2E490029DF072
:1012BD0090029DE0FFC394805014741C2FF582E4BE
:1012CD003400F583E4F090029DE004F080E290029A
:1012DD009AE0FBA3E0FAA3E0F9120EEAD394C04022
:1012ED00037F022290000A120F03B40104D2BC80C6
:1012FD0002C2BC120EEAFFE598543F4FF598EF6419
:10130D00C06008EF644060030213F99000021211EF
:10131D00A07F807E8D7D5B7C001210A490029E12BA
:10132D0011D0E4FFFE7D01FC90029EE0F8A3E0F9F0
:10133D00A3E0FAA3E0FBC312114440037F02229005
:10134D00029EE0F8A3E0F9A3E0FAA3E0FBC3E49B5F
:10135D00FFE49AFE740199FDE498FC90029E12112F
:10136D00D090029AE0FBA3E0FAA3E0F990000112FD
:10137D000F03FB64017038C28E538EFE5389BF5329
:10138D0089CF438E4090029EE0FCA3E0FDA3E0FEDA
:10139D00A3E0FF78081211558F8D90029EA3A3A391
:1013AD00E0F58BC2AB5389BF538FFDD28E8076EBA8
:1013BD0064027035538EEF438E01538EF7438E04C6
:1013CD0090029EE0FCA3E0FDA3E0FEA3E0FF780801
:1013DD001211558FD690029EA3A3A3E0F5D753AF5C
:1013ED00FB538EF7438E10803C7F022290029AE0D1
:1013FD00FBA3E0FAA3E0F9120EEAFF7013900008C8
:10140D00120F03B40105438E20801A538EDF801511
:10141D00EFB48011900008120F03B40105438780CB
:10142D00800353877F90029AE0FBA3E0FAA3E0F9D3
:10143D00900009120F03B40104D2AC8002C2AC902B
:10144D000007120F03B40104D29C8002C29C9000CD
:10145D000B120F0354C0FFE5A2543F4FF5A29000AD
:10146D000C120F03B4010543971080035397EF7FC0
:10147D000022900299E0640260030215E1900007DA
:10148D007402F0E4A3F0A3F0A3F0A3F0A3F0A3F093
:10149D0090029DF090029DE0FFC39480501474D48F
:1014AD002FF582E43401F583E4F090029DE004F021
:1014BD0080E2E490029DF090029DE0FFC394805085
:1014CD0014749C2FF582E43400F583E4F090029DB2
:1014DD00E004F080E290029AE0FBA3E0FAA3E0F9C9
:1014ED00120EEAFF64C06008EF644060030215A1AC
:1014FD0090000A120F03B4010543B501800353B5E3
:10150D00FE120EEAB4C005439A808003539A7F9071
:10151D0000021211A07F807E8D7D5B7C001210A4D5
:10152D0090029E1211D0E4FFFE7D01FC90029EE020
:10153D00F8A3E0F9A3E0FAA3E0FBC31211444003C2
:10154D007F022290029EE0F8A3E0F9A3E0FAA3E067
:10155D00FBC3E49BFFE49AFE740199FDE498FC90B3
:10156D00029E1211D0538EEF538EF7438E049002CC
:10157D009EE0FCA3E0FDA3E0FEA3E0FF78081211BE
:10158D00558FD690029EA3A3A3E0F5D753AFFB438F
:10159D008E1080037F022290029AE0FBA3E0FAA353
:1015AD00E0F9900009120F03B4010543AF01800368
:1015BD0053AFFE900007120F03B40105439A10803C
:1015CD0003539AEF90000B120F035401FFE5BA5429
:1015DD00FE4FF5BA900299E06403600302179490F0
:1015ED00000E7402F0E4A3F0A3F0A3F0A3F0A3F0B7
:1015FD00A3F090029DF090029DE0FFC3941C501447
:10160D0074542FF582E43402F583E4F090029DE0EA
:10161D0004F080E2E490029DF090029DE0FFC394FF
:10162D001C5014741C2FF582E43401F583E4F09002
:10163D00029DE004F080E290029AE0FBA3E0FAA3A1
:10164D00E0F9120EEAFF64C06008EF644060030227
:10165D00175453ACDFEFB4C00543AC80800353ACDB
:10166D007F90029AE0FBA3E0FAA3E0F9900002124A
:10167D0011A07F807E8D7D5B7C001210A490029E58
:10168D001211D0E4FFFE7D01FC90029EE0F8A3E074
:10169D00F9A3E0FAA3E0FBC312114440037F022239
:1016AD0090029EE0F8A3E0F9A3E0FAA3E0FBC3E407
:1016BD009BFFE49AFE740199FDE498FC90029E1242
:1016CD0011D090029AE0FBA3E0FAA3E0F99000019B
:1016DD00120F03FB6402703253ACBF538EEF538E67
:1016ED00F7438E0490029EE0FCA3E0FDA3E0FEA371
:1016FD00E0FF78081211558FD690029EA3A3A3E0A8
:10170D00F5D753AFFB438E108040EB64017035432A
:10171D00AC4053D1F053AFDF43D10253D1FB53D182
:10172D00FE90029EE0FCA3E0FDA3E0FEA3E0FF78A7
:10173D00081211558FD490029EA3A3A3E0F5D543B3
:10174D00D10880067F02227F022290029AE0FBA33D
:10175D00E0FAA3E0F9900009120F03B4010543AFBD
:10176D0008800353AFF7900007120F03B401054330
:10177D00AC10800353ACEF90000B120F035402FF1B
:10178D00E5BA54FD021944900299E0640460030225
:10179D00194A9000157402F0E4A3F0A3F0A3F0A38E
:1017AD00F0A3F0A3F090029DF090029DE0FFC39492
:1017BD001C501474702FF582E43402F583E4F0901C
:1017CD00029DE004F080E2E490029DF090029DE025
:1017DD00FFC3941C501474B82FF582E43401F583C3
:1017ED00E4F090029DE004F080E290029AE0FBA309
:1017FD00E0FAA3E0F9120EEAFF64C06008EF64405E
:10180D0060030219075384DFEFB4C0054384808061
:10181D000353847F90029AE0FBA3E0FAA3E0F990D2
:10182D0000021211A07F807E8D7D5B7C001210A4C2
:10183D0090029E1211D0E4FFFE7D01FC90029EE00D
:10184D00F8A3E0F9A3E0FAA3E0FBC31211444003AF
:10185D007F022290029EE0F8A3E0F9A3E0FAA3E054
:10186D00FBC3E49BFFE49AFE740199FDE498FC90A0
:10187D00029E1211D090029AE0FBA3E0FAA3E0F9C8
:10188D00900001120F03FB640270325384BF538E1C
:10189D00EF538EF7438E0490029EE0FCA3E0FDA370
:1018AD00E0FEA3E0FF78081211558FD690029EA39B
:1018BD00A3A3E0F5D753AFFB438E108040EB64023A
:1018CD00703543844053D10F53AFBF43D12053D113
:1018DD00BF53D1EF90029EE0FCA3E0FDA3E0FEA379
:1018ED00E0FF78081211558FD290029EA3A3A3E0BA
:1018FD00F5D343D18080067F02227F022290029A87
:10190D00E0FBA3E0FAA3E0F9900009120F03B40184
:10191D000543AF10800353AFEF900007120F03B4D0
:10192D00010543841080035384EF90000B120F03C5
:0F193D005404FFE5BA54FB4FF5BA7F00227F0335
:01194C002278
:104DB300900002E02438F582E43401F583EFF090AB
:104DC3000002E004F0C394804002E4F0900003E0AA
:074DD300700404F0D29922E4
:104D3B00900009E024D4F582E43401F583EFF09080
:104D4B000009E004F0C394804002E4F090000AE014
:084D5B00700504F0439A0222E6
:104D6300900010E02454F582E43402F583EFF090D0
:104D73000010E004F0C3941C4002E4F0900011E042
:084D8300700504F043AC0222AC
:104D8B00900017E02470F582E43402F583EFF09085
:104D9B000017E004F0C3941C4002E4F0900018E00C
:084DAB00700504F043840222AC
:1051EA00C2AF120EEAFF600C124DB3740129F9E442
:0751FA003AFA80EED2AF2269
:10527600120EEAFF600C124D3B740129F9E43AFA6A
:0352860080EE2295
:10528900120EEAFF600C124D63740129F9E43AFA2F
:0352990080EE2282
:10529C00120EEAFF600C124D8B740129F9E43AFAF4
:0352AC0080EE226F
:0300230002449BF9
:10449B00C0E0C083C082C0D075D000C006C007305A
:1044AB00982DC298900006E07025900004E0C3940C
:1044BB00804002E4F0900004E0FF04F0741C2FF540
:1044CB0082E43400F583E599F09000057405F03033
:1044DB009930C299900002E0FF900001E0FE6F60FE
:1044EB001C74382EF582E43401F583E0F5999000C5
:1044FB0001E004F0C394804009E4F08005900003D0
:0F450B00E4F0D007D006D0D0D082D083D0E032F9
:0300430002430C69
:10430C00C0E0C083C082C0D075D000C006C007E535
:10431C009A30E02E539AFE90000DE0702590000B21
:10432C00E0C394804002E4F090000BE0FF04F074D2
:10433C009C2FF582E43400F583E59BF090000C741F
:10434C0005F0E59A30E131539AFD900009E0FF90B9
:10435C000008E0FE6F601C74D42EF582E43401F585
:10436C0083E0F59B900008E004F0C394804009E4DE
:10437C00F0800590000AE4F0D007D006D0D0D082AF
:05438C00D083D0E032F7
:03008B000243919C
:10439100C0E0C083C082C0D075D000C006C007E5B0
:1043A100AC30E02E53ACFE900014E070259000126A
:1043B100E0C3941C4002E4F0900012E0FF04F074AA
:1043C1001C2FF582E43401F583E5ADF09000137400
:1043D10005F0E5AC30E13153ACFD900010E0FF9009
:1043E100000FE0FE6F601C74542EF582E43402F578
:1043F10083E0F5AD90000FE004F0C3941C4009E4A4
:10440100F08005900011E4F0D007D006D0D0D08222
:05441100D083D0E03271
:030093000244160E
:10441600C0E0C083C082C0D075D000C006C007E52A
:104426008430E02E5384FE90001BE0702590001926
:10443600E0C3941C4002E4F0900019E0FF04F0741D
:10444600B82FF582E43401F583E585F090001A74FF
:1044560005F0E58430E1315384FD900017E0FF90CC
:104466000016E0FE6F601C74542EF582E43402F5EB
:1044760083E0F585900016E004F0C3941C4009E43F
:10448600F08005900018E4F0D007D006D0D0D08296
:05449600D083D0E032EC
:10273200EFD3940840037FFF2274252F2FF8E62061
:10274200E5F4C2AFE64430F6D2AFAE0CEEC39F5012
:10275200210E74172EF8E6F908E618BE080274FF77
:10276200FDED69600909E71919F7090980F31616E1
:1027720080DAEED39F400405810581EED39F40228B
:1027820074172EF808E6F9EEB50C02A981180606B0
:10279200E6FDED6960091919E70909F71980F31EC9
:1027A20080D9EF2417F8E604F8EF2F049052AF9384
:0927B200F608EF2F93F67F0022D8
:1027BB00EFD3940840037FFF22EF232425F8E63064
:1027CB00E5F4C2AFE6548CF6D2AFE50CB5070A744C
:1027DB00172FF8E6F581022668502E74182FF8E6AD
:1027EB00BF080274FFFD18E6F974172FF8FBE6FC1F
:1027FB00E96C6008A805E7F61D1980F4A803A60587
:10280B001FE50CB507E37F002274182FF8E6FD18BF
:10281B0086010F74172FF8A601088604E50CB5077F
:10282B0002AC81ED6C60080D09A805E6F780F4E5B4
:09283B000CB507DE89817F002243
:102844008FF0E4FFFEE50C232424F8C2A930F70D31
:102854007F08E6600B2DF660325030800730F106B9
:10286400EDF660277E020830F010C2AFE610E725CF
:102874000E30E20CD2AF7F048014C2AFE610E7152D
:1028840054EC4EF6D2AFD2A90226687F0808EF4472
:0F28940083F4C2AF56C6D2AFD2A954804FFF22F1
:10080000020BB5E86480F8E933E83360110460F066
:10081000ED33EC337009E8FCE9FDEAFEEBFF22045E
:1008200060DED3EB9FEA9EE99DE8C2E78CF0C2F759
:1008300095F0400CE8CCF8E9CDF9EACEFAEBCFFB25
:10084000120B8085D0F05804700320D5B3E80470F3
:10085000075002B2D5020BBF92D5EC0460F7E4CC8E
:10086000C0E0C398F8603B94186008400DD0E0FBEE
:10087000020B97E4FBFAC9FC8028E830E406E4C9DF
:10088000FBE4CAFCE830E305E4C9CACBFCE8540742
:100890006010F8C3E913F9EA13FAEB13FBEC13FC4D
:1008A000D8F130F52FC3E49CFCEF9BFFEE9AFEEDF0
:1008B00099FDD0E0FBEF4E4D4C701222DB03020B92
:1008C000BCEC2CFCEF33FFEE33FEED33FDED30E7F7
:1008D000EB020B97EF2BFFEE3AFEED39FDD0E0FB7C
:1008E00050130BBB0003020BBFED13FDEE13FEEF25
:0808F00013FFEC13FC020B974F
:1008F800EC4D6011E8497017ED33EC3304600DE4FA
:10090800FCFFFEFD22E933E8330470F8020BB51250
:100918000B8058046009E4CC248150062850090251
:100928000BBF284003020BBCC0E0EB4A7044B980FF
:1009380006D0E0FB020BABEF4E701CBD8008EBFF4E
:10094800EAFEE9FD80EBE98DF0A4FEE5F00209E19D
:10095800E9CDF9EAFEEBFFEF89F0A4FCE5F0CE89DA
:10096800F0A42EFFE435F0CD89F0A42DFEE435F097
:100978008067EF4E7005BD80D780C3EF8BF0A4ACC5
:10098800F0EE8BF0A42CFCE435F0F8EF8AF0A42C00
:10099800E5F038FCE433CB8DF0A42CFCE5F03BF813
:1009A800EE8AF0A42CFCE5F038F8E433CF89F0A403
:1009B8002CFCE5F038CF3400CE89F0A42FFFE5F009
:1009C8003EFEE433C98DF0A42EFEE5F039CD8AF061
:1009D800A42FFFE5F03EFEE43DFD33D0E0FB5007D9
:1009E8000BBB000F020BBFEC2CFCEF33FFEE33FE0A
:0609F800ED33FD020B9738
:1009FE00020BBFEC5D046005E859047003020BB5F1
:100A0E00120B80580460F6EC4860F2EC7004FDFEA8
:100A1E00FF22C860DB2481C85009C39860025006CB
:100A2E00020BBC9850CAF582E9294B4A7005AB827D
:100A3E00020BAB75F0007C1A7880C3EF9BEE9AED3B
:100A4E0099400DC3EF9BFFEE9AFEED99FDE842F043
:100A5E00DC23ACF0D0E0FFD0E0FED0E0FDAB822096
:100A6E00E7101BEB60BAEC2CFCEF33FFEE33FEED20
:100A7E0033FD020B97E803F830E705C0F075F00080
:100A8E00EF2FFFEE33FEED33FD40B830E7C280AA04
:100A9E0074F8CC6480CCC86480C8F582046043C30B
:100AAE00EB9FF5F0EA9E42F0E99D42F0E89C45F09E
:100ABE0060305018E5825FFFE582F42B5582FB50C3
:100ACE00210ABA001D09B90019088016E5825BFBE0
:100ADE00E582F42F5582FF50090EBE00050DBD00B4
:100AEE00010CC3EB9FF5F0EA9E42F0E99D42F0E85F
:0D0AFE009C45F06007CC4820E701B3EC22D6
:100B0B0075F020800E75F010800575F0087D007E65
:100B1B00007F003392D530D503121136EC334010E1
:100B2B00EF33FFEE33FEED33FDEC33FCD5F0ED226E
:0E0B3B00E5F0247EA2D513CC92E7CDCEFF22AA
:100B4900EDD2E7CD33EC3392D524814006E4FFFEA4
:100B5900FDFC22FCE4CFCECDCC24E0501174FF8003
:100B6900EDC3CC13CCCD13CDCE13CECF13CF0470A0
:070B7900F030D5DE02113659
:101DFE00E5122451F582E43403F583E005122290B6
:101E0E00034E301003900351E475F00112120D02CF
:101E1E000EEA2009E97F2ED2098018EF540F249084
:101E2E00D43440D4FF300D0BEF24BFB41A0050034E
:101E3E002461FFE513600215130516E51670020501
:101E4E001530100E90034EE475F00112120DEF02D4
:101E5E000F30024DDA7403D2108003E4C210F51273
:101E6E0090034E121224E4F513F515F516E51360E2
:101E7E00077F20121E4180F57514FFC20AC209C2E7
:101E8E000BC20CC20EC20FC211121E0DFF700D300E
:101E9E0010057F00121E52AF16AE1522B4255FC27A
:101EAE00D5C20D121E0DFF24D0B40A00501A75F0C3
:101EBE000A781330D50508B6FF0106C6A426F6200B
:101ECE00D5047002D20C80D924CFB41A00EF50047E
:101EDE00C2E5D20D022144D20A80C6D20980C0D2F8
:101EEE000B80BCD2D580BAD20E80B47F20121E4198
:101EFE00200B077401B5130040F1121DFEFF121ED8
:101F0E0041021E7BD211D20F8095121DFEFB121DB7
:101F1E00FEFA121DFEF94A4B700679427A227BFFB9
:101F2E00200B2EE513602A7E008E82758300120F21
:101F3E000360060EEE651470F0C2D5EBC0E0EAC089
:101F4E00E0E9C0E0EE1221A5D0E0F9D0E0FAD0E051
:101F5E00FB120EEAFF60AAEBC0E0EAC0E0E9C0E0C7
:101F6E00121E41D0E02401F9D0E03400FAD0E0FB9B
:101F7E00E5140460DCD514D98087D20B80A212211F
:101F8E008760F7E514700104120BF5A914600DE5D6
:101F9E0014600914F51412222FEF60F3EA30E702F1
:101FAE00F404C3995079EAF425140430E701E404EB
:101FBE00F514800D12218760C1EA05142514120B49
:101FCE00F5EA90037DF030E701E4251404D51404FE
:101FDE00200E01141221A5E4C0E012222F90037DE1
:101FEE00E0601320E70714F0121E29802204F0D0BF
:101FFE00E014C0E07F00121E29E5146007121E20B7
:10200E001514800B300E03121E20D0E0021E7BD062
:10201E00E00480C4122187609EE51404120BF59033
:10202E00037DEAF0E514200E02600104240412215F
:01203E00A5FC
:10203F0074FF04C0E012222F121E29E514200E0295
:10204F006003121E20D0E0B514E87F45121E3390B6
:10205F00037DE07F2B30E7047F2DF404C0E0121ED8
:10206F0041D0E075F00A84C0F0121E2AD0E0121E93
:10207F002A021E7B791080027908C20FC2118008D4
:10208F00D2D5790A8004790AC2D5E514047002F515
:10209F0014E4FAFDFEFF121DFEFC7B08200A13124A
:1020AF001DFEFD7B1030090A121DFEFE121DFEFFE4
:1020BF007B20EC3382D592D55013C3E43009069FB1
:1020CF00FFE49EFEE4200A039DFDE49CFCE4CBF8B4
:1020DF00C20AEC700CCFCECDCCE824F8F870F380A8
:1020EF0017C3EF33FFEE33FEED33FDEC33FCEB3371
:1020FF00FB994002FB0FD8E9EB300A05F8D0E0C49A
:10210F0048B20AC0E00AEC4D4E4F78207B0070C2F7
:10211F00EAB5140040BCC0E01221A7D0F0D0E020F7
:10212F000A04C4C0E0C4B20AC0F0121E2AD0F0D50F
:10213F00F0EB021E7B12122D1F18532083581EE93D
:10214F004C1EE54220874F208F44208F491EFE43AF
:10215F002095551FC2462022451F8C472262501ED4
:10216F00ED2D1EF12E1F142B1EF5231F1220224BB7
:10217F002A1EAD4800001F0CE514B4FF03751406AA
:10218F00121DFEFC121DFEFD121DFEFE121DFEFF96
:10219F00900376020C32790AA2D5200C14300E0966
:1021AF00B910020404B9080104A2D5200F0250018E
:1021BF0004200B68920BB513005034C0E07F203021
:1021CF000C197F30A20B720F720E500F1221FEC22C
:1021DF000BC20FC20EC2117F30800F300E03E9C049
:1021EF00E0121E41300E03D0E0F9D0E0B513CC3031
:1021FF000E177F30B9100C121E417F58300D077F1C
:10220F00788003B90803121E41300B057F2D021E83
:10221F00417F202011F87F2B200FF322920B80CFCC
:10222F007F00B40700500B2476F582E43403F58366
:10223F00E0FF22286E756C6C2900D20A121DFE3049
:10224F000AF8C20A781330D50108F6021EAD2D50D8
:10225F00434958121DFE2403B405004001E49022A7
:10226F005D93121E32743A121E32D20C7513040291
:02227F002083BA
:0D537600ED33EC3360065004EC6480FC2243
:103F5100020BB522EDA2E7D2E7F9EC3340F260F3B0
:103F6100B4FF08ED547F70E8020BBFF82481C2E072
:103F7100C0E0F40428FAC313FCED92E7FD90035E60
:103F81001211D0EEA2E7E9BA7F02C3133400940004
:103F9100FA75F091A4E5F013F494FE8AF0A433E5E8
:103FA100F033248CD313FDE492E7FE7F007C3F7550
:103FB1008302ECC0E0F8EDC0E0F9EEC0E0FAEFC03A
:103FC100E0FB8583F090035E12116885F083120A8D
:103FD10001D0E0FBD0E0FAD0E0F9D0E0F812080718
:103FE100ED6480FD30E7011CD583C7ED33CC33F898
:0C3FF100D0E0A2E71328C313CC13FD227C
:1030FE003A70FA83BCAAE9E43E81E0F8BF9DE9E6A6
:10310E003F80000039283C1ABB9969663DA335E320
:10311E00BF255DE73FC90FDB418DDBCCC44936EEE1
:10312E0045C9913FC5B0F83D3F800000C317F53447
:10313E00452FFA73C60AFDDD12320704A2E1920989
:10314E001420E0159030FE7404120D3780301232C8
:10315E000730E102B20920E0EBA883A9829002EECB
:10316E001211D0898288839031127404120D378522
:10317E0082F09002EE12118485F0821208F8ED4C66
:10318E006007300904EC6480FC22123207C0E0A80C
:10319E0083A9829002EE1211D089828883903136F3
:1031AE007403120D378582F09002EE12118485F0B1
:1031BE00821208F89002EEE0CCF0A3E0CDF0A3E08E
:1031CE00CEF0A3E0CFF09031267403120D37D082EB
:1031DE008582F09002EE12118485F082E58230E055
:1031EE0007120A01B2098096EFCBFFEECAFEEDC9B7
:1031FE00FDECC8FC120A018085ED33EC547FCC3314
:10320E00920924605007D0E0D0E0020BB57B837AA0
:10321E00F97922783E1208F8EDF933ECF83324816F
:10322E005011EFFBEEFA120B49120B0BECB2E7FC4E
:10323E00120807ED33EC33602F2403F8C313FCEDB3
:10324E0092E7FDE82481E4501FECF8EDF9EEFAEF79
:10325E00FB120B49EF04C2E0FCF582120B15ECB227
:10326E00E7FC120807E58203FAED33EC336007142E
:08327E0013FCED92E7FDEA22CA
:1032860090035B1211D0E4FFFE7D807C3F90035BD0
:10329600E0F8A3E0F9A3E0FAA3E0FB120A9E7006A9
:1032A60090035B0233E090035BE0FCA3E0FDA3E048
:1032B600FEA3E0FF120BCAFBA3E0FCA3E0FDA3E024
:1032C600FEA3E0FF120BCAFFB40108E4FFFE7D80F7
:1032D6007C3F22EF64046029EB64046024EBB401B4
:1032E60030E4FFFEFDFC90035FE0F8A3E0F9A3E005
:1032F600FAA3E0FB120A9E60084006E4FFFEFDFC0E
:103306002290035F1211DCFFFFFFFF90035F023381
:10331600E0E4900363F0A3F0FFFEFDFC90035BE0A6
:10332600F8A3E0F9A3E0FAA3E0FB120A9E505F902F
:10333600035FE0FCA3E0FDA3E0FEA3E0FF120B4960
:10334600900363EEF0A3EFF0FDCCEECCEC120B1085
:10335600C8ECC8C9EDC9CAEECACBEFCB90035FE093
:10336600FCA3E0FDA3E0FEA3E0FF120803E4FBFAE2
:10337600F9F8120A9E708A90035BE0FCA3E0FDA3B5
:10338600E0FEA3E0FF120BE490035B1211D0900362
:103396005BE0FCA3E0FDA3E0FEA3E0FF12368A900B
:1033A600035FE0F8A3E0F9A3E0FAA3E0FB1208F854
:1033B60012421E90035F1211D0900364E030E017B2
:1033C60090035FE0FCA3E0FDA3E0FEA3E0FF120B89
:1033D600E490035F1211D090035FE0FCA3E0FDA32D
:0633E600E0FEA3E0FF225F
:100B8000E9D2E7C933E833F892D5EDD2E7CD33ECBB
:070B900033FC5002B2D52234
:100B9700EC30E7100FBF000C0EBE00080DBD0004BF
:100BA7000BEB6014A2D5EB13FCED92E7FD2274FF6B
:100BB700FCFDFEFF22E480F8A2D574FF13FC7D80C4
:030BC700E480EFD8
:100BCA00ED33EC33601004700FED547F700574023E
:0A0BDA0092E0227404220422E422B7
:100BE400ED33EC33600A047003BD8004ECB2E7FC1F
:010BF40022DE
:100BF500F920E73624F950037907E4F42402FBE5EC
:100C050082158270021583DBF6E024FB501BE96038
:100C150014E4F0E582158270021583E004F0B40A4D
:0D0C250008E4F0D9EE7401F00A22C2D522D5
:100C3200ED33EC3392D5FA602AB4FF33EDC2E77B91
:100C4200FF60067A0C7957E4227A0C796020D50489
:100C52007A0C795B224E614E002B494E46002D499B
:100C62004E4600E47A08F0A3DAFC7B00740722C047
:100C720083C082ECC0E0EDC0E0EEC0E0EFC0E0EA8D
:100C820075F010A4CAABF075F04DA42BFBE435F05F
:100C9200FCEA2410FAEB34C5FBEC34D9FCEDC2E7D4
:100CA200FF75F056A4F42411C5F0F434C58FF0A4F6
:100CB2002AE5F03BE43CF020E714120DB4D0E0FF4B
:100CC200D0E0FED0E0FDD0E0FC120A018014F40472
:100CD200120DB4D0E0FFD0E0FED0E0FDD0E0FC1277
:100CE20008F8D082D083E0FAEDD2E7CD33EC33249A
:100CF20082FBE4C3CF33CFCE33CECD33CD33DBF360
:100D02007B0775F00A846004F0A31B0AE5F0F0A3E8
:100D12008FF0740AA4FFACF08EF0740AA42CFEAC1F
:100D2200F050010C8DF0740AA42CFDE435F0F0A310
:050D3200DBDE74072266
:100D3700C0E0EFFBEEFAEDF9ECF81208F8D0E0F5B9
:100D4700F0EFFBEEFAEDF9ECF8121174A3A3A3A3ED
:100D5700E8C0E0E9C0E0EAC0E0EBC0E0C0F012089C
:100D6700F8121190A3A3A3A3120807D0F0D0E0FBB9
:0D0D7700D0E0FAD0E0F9D0E0F8D5F0D422B9
:1041E60033DA929E35B16011377FE5FE3921848935
:1041F6003AAEC3FF3C1D955B3D6358473E75FDF0E7
:104206003F3172183F800000C2D5020BBF020BB5CA
:10421600BD80FA50F3020BBCED33EC330460F17B46
:104226003B7AAA79B8783F1208F8ED33EC3392D589
:10423600247B5011A2D570DB500BED448024045032
:1042460004A2D580CEEFFBEEFAEDF9ECF8120B499D
:10425600EFF582F404FC120B15120807C082904198
:10426600E67409120D46ED33CC33D0F092D525F025
:0A427600A2D57001C313CC13FD2282
:103656003E9248DA3ECCCCCD3F2AAAAB40000000D1
:103666003F8000003F9837F03FB504F33FD744FC56
:103676003E3172173EB172173F0515913EDE5BD99A
:10368600D2098002C209EDD2E7F8CD33EC330470DB
:103696000BBD800592D5020BBF020BB540FBD314C0
:1036A60060F2F5F07C3FEE7A00C39496C8948B40A6
:1036B600230AC89469C8941A401A0AC89468C89418
:1036C6001F40110AC8945AC89425400805F07A008C
:1036D600CDC2E7CDC0F09003651211D0EA2323C016
:1036E600E02466F582E43436F58312119012080759
:1036F600ECC0E0EDC0E0EEC0E0EFC0E01211749067
:103706000365121184120803D0E0FBD0E0FAD0E082
:10371600F9D0E0B2E7F8120A019003651211D090D1
:1037260036567403120D379003651211841208F889
:10373600D0E0600F2472F582E43436F583121190DE
:103746001208079003651211D0D0E0C3947FFDE400
:103756009400FC120B107B187A727931783F1208AC
:10376600F890036512118412080730090B7BD97A89
:093776005B79DE783E1208F822AE
:100D84003F8000004120000042C80000447A000077
:100D9400461C400047C35000497424004B189680F9
:100DA4004CBEBC205A0E1BCA6753C21C749DC5AEF0
:100DB400FB60065407601C2323120DE2EB543860D9
:100DC40009120DCE120DDD1208F8ECF8EDF9EEFA69
:100DD400EFCB22EB120DDD80F1543803241C900D6F
:100DE40084FE93FC0EEE93FD0EEE930ECE93FF2243
:0300000002428039
:0C428000787FE4F6D8FD7581350242C756
:100DF400E709F608DFFA8046E709F208DFFA803EE1
:100E040088828C83E709F0A3DFFA8032E309F608CD
:100E1400DFFA8078E309F208DFFA807088828C8335
:100E2400E309F0A3DFFA806489828A83E0A3F608E9
:100E3400DFFA805889828A83E0A3F208DFFA804CC3
:100E440080D280FA80C680D4806980F2803380109A
:100E540080A680EA809A80A880DA80E280CA803303
:100E640089828A83ECFAE493A3C8C582C8CCC5837B
:100E7400CCF0A3C8C582C8CCC583CCDFE9DEE7804B
:100E84000D89828A83E493A3F608DFF9ECFAA9F0CA
:100E9400EDFB2289828A83ECFAE0A3C8C582C8CC20
:100EA400C583CCF0A3C8C582C8CCC583CCDFEADE39
:100EB400E880DB89828A83E493A3F208DFF980CC9B
:100EC40088F0EF60010E4E60C388F0ED2402B40494
:100ED4000050B9F582EB2402B4040050AF2323453B
:060EE4008223900E44730E
:100EEA00BB010689828A83E0225002E722BBFE0206
:090EFA00E32289828A83E4932239
:100F0300BB010CE58229F582E5833AF583E02250A3
:100F130006E92582F8E622BBFE06E92582F8E222ED
:0D0F2300E58229F582E5833AF583E4932207
:100F3000BB010689828A83F0225002F722BBFE01A0
:020F4000F3229A
:100F4200F8BB010DE58229F582E5833AF583E8F0E5
:100F5200225006E92582C8F622BBFE05E92582C891
:020F6200F22279
:100F6400EF8DF0A4A8F0CF8CF0A428CE8DF0A42EA1
:020F7400FE225B
:100F7600BC000BBE0029EF8DF084FFADF022E4CC5F
:100F8600F875F008EF2FFFEE33FEEC33FCEE9DEC28
:100F9600984005FCEE9DFE0FD5F0E9E4CEFD22ED6E
:100FA600F8F5F0EE8420D21CFEADF075F008EF2FB8
:100FB600FFED33FD4007985006D5F0F222C398FDA9
:050FC6000FD5F0EA2246
:100FCB00C5F0F8A3E028F0C5F0F8E58215827002B1
:060FDB001583E038F0224E
:100FE100BB0110E58229F582E5833AF583E0F5F04E
:100FF100A3E0225009E92582F886F008E622BBFE2B
:101001000AE92582F8E2F5F008E222E5832AF58370
:08101100E993F5F0A3E9932235
:10101900E88FF0A4CC8BF0A42CFCE98EF0A42CFC76
:101029008AF0EDA42CFCEA8EF0A4CDA8F08BF0A4F4
:101039002DCC3825F0FDE98FF0A42CCD35F0FCEB53
:101049008EF0A4FEA9F0EB8FF0A4CFC5F02ECD3918
:0F105900FEE43CFCEAA42DCE35F0FDE43CFC2285
:1010680075F008758200EF2FFFEE33FECD33CDCC3F
:1010780033CCC58233C5829BED9AEC99E5829840C2
:101088000CF582EE9BFEED9AFDEC99FC0FD5F0D69F
:10109800E4CEFBE4CDFAE4CCF9A88222B800C1B9C9
:1010A8000059BA002DEC8BF084CFCECDFCE5F0CB07
:1010B800F97818EF2FFFEE33FEED33FDEC33FCEB40
:1010C80033FB10D703994004EB99FB0FD8E5E4F9FB
:1010D800FA227818EF2FFFEE33FEED33FDEC33FCE8
:1010E800C933C910D7059BE99A4007EC9BFCE99ADC
:1010F800F90FD8E0E4C9FAE4CCFB2275F010EF2F21
:10110800FFEE33FEED33FDCC33CCC833C810D70720
:101118009BEC9AE899400AED9BFDEC9AFCE899F85B
:0E1128000FD5F0DAE4CDFBE4CCFAE4C8F922EE
:104A7900C2D5E830E70FB2D5E4C39BFBE49AFAE468
:104A890099F9E498F8EC30E717B2D5124AAF121049
:104A9900A4E4C39BFBE49AFAE499F9E498F8800347
:104AA9001210A430D50DE4C39FFFE49EFEE49DFDE2
:044AB900E49CFC225B
:0E113600C3E49FFFE49EFEE49DFDE49CFC22CA
:10114400EB9FF5F0EA9E42F0E99D42F0E89C45F001
:011154002278
:10115500E8600FECC313FCED13FDEE13FEEF13FF78
:03116500D8F1229C
:0C116800E0FCA3E0FDA3E0FEA3E0FF22FA
:10117400E493FC740193FD740293FE740393FF22C1
:0C118400E0F8A3E0F9A3E0FAA3E0FB22EE
:10119000E493F8740193F9740293FA740393FB22B5
:1011A000BB010DE58229F582E5833AF583021184BE
:1011B0005007E92582F8021253BBFE07E92582F8A1
:1011C000021260E58229F582E5833AF583021190E7
:0C11D000ECF0A3EDF0A3EEF0A3EFF02292
:1011DC00A8828583F0D083D0821211F31211F312FE
:1011EC0011F31211F3E473E493A3C583C5F0C58323
:1011FC00C8C582C8F0A3C583C5F0C583C8C582C85D
:01120C0022BF
:10120D00F8E0FBA3A3E0F925F0F0E582158270026A
:07121D001583E0FA38F0220E
:09122400EBF0A3EAF0A3E9F022CB
:10122D00D083D082F8E4937012740193700DA3A350
:10123D0093F8740193F5828883E473740293686064
:06124D00EFA3A3A380DF64
:104DDA00EFB40A07740D124DE5740A309811A899B8
:104DEA00B8130CC2983098FDA899C298B811F63039
:074DFA0099FDC299F5992211
:10428C000226F8E493A3F8E493A34003F68001F22A
:10429C0008DFF48029E493A3F85407240CC8C33333
:1042AC00C4540F4420C8834004F456800146F6DF02
:1042BC00E4800B0102040810204080903EA5E47EAF
:1042CC00019360BCA3FF543F30E509541FFEE493F7
:1042DC00A360010ECF54C025E060A840B8E493A3BE
:1042EC00FAE493A3F8E493A3C8C582C8CAC583CAE9
:1042FC00F0A3C8C582C8CAC583CADFE9DEE780BEA1
:013F50000070
:0D125300E6FB08E6F908E6FA08E6CBF8220B
:0D126000E2FB08E2F908E2FA08E2CBF8220E
:00000001FF
