:024D80004D24C0
:084D24001240DF7F040245EF9D
:0C4CD1009003CDE0B40103D38001C322A6
:0B4CE9009003CDE07003D38001C322D4
:014D8200220E
:064D4800E49003CDF0220F
:10457F009003CE120F5D90051BE0FCA3E0FDA3E0BE
:10458F00FEA3E0FF9003D2120F5DE4FF1230CE7F47
:06459F00011230CED32210
:074D2C007B017A0379D62216
:1030CE009005AEEFF09003D26054E0F8A3E0F9A3C0
:1030DE00E0FAA3E0FBE4FFFE7DC87C42120803C0C9
:1030EE0004C005C006C007900508120F6940000015
:1030FE0000D007D006D005D004122742C004C00568
:10310E00C006C007900508120F694000000090032A
:10311E00CEE0FCA3E0FDA3E0FEA3E0FF806CE0F8B0
:10312E00A3E0F9A3E0FAA3E0FBE4FFFE7DC87C4236
:10313E00120803C004C005C006C007900508120F90
:10314E006940000000D007D006D005D004122742F7
:10315E00C004C005C006C0079003CEE0F8A3E0F996
:10316E00A3E0FAA3E0FBE4FFFE7D487C42120803D5
:10317E00C004C005C006C007900508120F694000C4
:10318E000000D007D006D005D004122742D003D0BD
:10319E0002D001D0001208071233DB9005AEE025F5
:1031AE00E025E024DEF582E43403F583120F5D2280
:1049AE00EF25E025E024DEF582E43403F583E0FC18
:0A49BE00A3E0FDA3E0FEA3E0FF224A
:014D8300220D
:104178004E6F6B6961203535313020546573742C6E
:1041880020486168615E5F5E204920616D20736F21
:1041980020676C616420746F2073656520796F7582
:1041A80020616769616E2120446F20796F752074E2
:0941B80068696E6B20736F3F0013
:05371E004205A6417800
:104464009004507440F0A37402F0A3120F5D900402
:10447400577401F0E4A3F0A304F0A3F0E4A3F0A3C1
:0C448400F07B017A0479507F01020FB434
:014D8400220C
:1040DF007F007EC27D017C0012446412352D124494
:1040EF0090900451120F693FE66666900455741064
:1040FF00F0A37407F0A374D0F0E4FF1240389004DB
:10410F0051120F693FE666669004557410F0A37460
:0E411F0007F0A374D0F07F01124038024D84E7
:014D8500220B
:014D8600220A
:014D87002209
:014D88002208
:014D89002207
:03000B000225D5F6
:1025D000C2AF80FE321225D485D00B75D008AAE098
:1025E000C28CE58A2443F58AE58C34F6F58CD28CCE
:1025F000EC2411F8E6BC000274FFC39581B414000A
:1026000040CE7901780E16E608700BC2AFE630E1D5
:10261000034418F6D2AF08D9EDEA8BD03007012277
:10262000D50DFCC0E0C0D0C0F0C083C082C000C0E7
:1026300001C002C003C004C005C006C007E50C23EA
:10264000240FF87440C2AF46F6D2AFD207E50CFFB4
:1026500023240FF80F0808BF01047F00780FE6302D
:10266000E4F200E50CC39F5020050C7410250CF813
:10267000E6FDA68108E6AE0CBE000274FFCDF8E8C8
:102680006D60E008E6C0E080F6E50CD39F4027E5EA
:102690000C2411F8E6AE0CBE000274FFFD18E6CD66
:1026A000F8E5816D6006D0E0F61880F5E50C2410A1
:1026B000C8F6150C80D3750D0AE50C23240FF87F9E
:1026C00004C2AFE610E61E30E00310E20C7F0030DB
:1026D000E10730E3047F0854F4547CC6D2AF548041
:1026E0004207C20722F6D2AFD007D006D005D004E9
:1026F000D003D002D001D000D082D083D0F0D0D08F
:0E270000D0E0C207227810A68174006006FFA8
:10270E000876FFDFFB7F01E4780EF608F608DFFAA5
:10271E00780F7630904D80740193C0E0E493C0E062
:10272E00750D0A438901758A3C758CF6D28CD2AF31
:04273E00D2A92200FA
:102C4F00AB07EB75F039A42494F582E43402F583D5
:102C5F00120F6900000000EB75F039A42498F5827B
:102C6F00E43402F583120F6900000000EB75F039B0
:102C7F00A424ACF582E43402F583120F690000003E
:102C8F0000EB75F039A424A8F582E43402F5831221
:102C9F000F69000000009004EEE0FCA3E0FDA3E04C
:102CAF00FEA3E0FFEB75F039A4249CF582E4340217
:102CBF00F583120F5D9004F2E0FCA3E0FDA3E0FEAC
:102CCF00A3E0FFEB75F039A424A0F582E43402F5FC
:102CDF0083120F5D9004F6E0FCA3E0FDA3E0FEA3DA
:102CEF00E0FFEB75F039A424A4F582E43402F583F8
:102CFF00120F5DEB75F039A4249CF582E43402F5D4
:102D0F0083E0FCA3E0FDA3E0FEA3E0FFEB75F03949
:102D1F00A424B4F582E43402F583120F5DEB75F051
:102D2F0039A424A0F582E43402F583E0FCA3E0FD8E
:102D3F00A3E0FEA3E0FFEB75F039A424B0F582E425
:102D4F003402F583120F5DEB75F039A424A4F582DC
:102D5F00E43402F583E0FCA3E0FDA3E0FEA3E0FF73
:102D6F00EB75F039A424B8F582E43402F583020F31
:012D7F005DF6
:104BDB00EF75F039A424C4F582E43402F583740133
:024BEB00F022B6
:104C2300EF75F039A424C4F582E43402F583E4F08B
:014C3300225E
:101EBF009005AFEFF075F039A424C4F582E4340235
:101ECF00F583E070030220989005AFE0FF75F039BD
:101EDF00A42490F582E43402F583E0F8A3E0F9A39B
:101EEF00E0FAA3E0FBEF75F039A4248CF582E4341B
:101EFF0002F583E0FCA3E0FDA3E0FEA3E0FF1208E0
:101F0F00039005AFE0FB75F039A42494F582E43417
:101F1F0002F583120F5DEB75F039A424A8F582E466
:101F2F003402F583C083C082E0FCA3E0FDA3E0FE92
:101F3F00A3E0FF9005AFE075F039A42494F582E497
:101F4F003402F583E0F8A3E0F9A3E0FAA3E0FB1273
:101F5F000807D082D083120F5D9005AFE0FF75F0B8
:101F6F0039A424A8F582E43402F583E0F8A3E0F95C
:101F7F00A3E0FAA3E0FBEF75F039A424A0F582E407
:101F8F003402F583E0FCA3E0FDA3E0FEA3E0FF1223
:101F9F0008F8C004C005C006C0079005AFE0FF7584
:101FAF00F039A42494F582E43402F583E0F8A3E039
:101FBF00F9A3E0FAA3E0FBEF75F039A4249CF582B6
:101FCF00E43402F583E0FCA3E0FDA3E0FEA3E0FF11
:101FDF001208F8D003D002D001D000120807C004B5
:101FEF00C005C006C0079005AFE0FF75F039A42407
:101FFF0098F582E43402F583E0F8A3E0F9A3E0FA60
:10200F00A3E0FBEF75F039A42494F582E43402F5D4
:10201F0083E0FCA3E0FDA3E0FEA3E0FF1208039022
:10202F0005AFE075F039A424A4F582E43402F583FA
:10203F00E0F8A3E0F9A3E0FAA3E0FB1208F8D0035D
:10204F00D002D001D0001208079005AFE0FB75F069
:10205F0039A424ACF582E43402F583120F5DEB75DD
:10206F00F039A42494F582E43402F583E0FCA3E074
:10207F00FDA3E0FEA3E0FFEB75F039A42498F582F1
:0A208F00E43402F583120F5DD32242
:10461100AB0790054FE0FCA3E0FDA3E0FEA3E0FFA4
:10462100EB75F039A424C0F582E43402F583020F5E
:014631005D2B
:10463200AB07900554E0FCA3E0FDA3E0FEA3E0FF7E
:10464200EB75F039A424BCF582E43402F583020F41
:014652005D0A
:10465300AB07900559E0FCA3E0FDA3E0FEA3E0FF58
:10466300EB75F039A42490F582E43402F583020F4C
:014673005DE9
:10467400AB0790055EE0FCA3E0FDA3E0FEA3E0FF32
:10468400EB75F039A424A0F582E43402F583020F1B
:014694005DC8
:10469500AB07900563E0FCA3E0FDA3E0FEA3E0FF0C
:1046A500EB75F039A4249CF582E43402F583020FFE
:0146B5005DA7
:1046B600AB07900568E0FCA3E0FDA3E0FEA3E0FFE6
:1046C600EB75F039A424A4F582E43402F583020FD5
:0146D6005D86
:1046D700AB0790056DE0FCA3E0FDA3E0FEA3E0FFC0
:1046E700EB75F039A4248CF582E43402F583020FCC
:0146F7005D65
:1049C800EF75F039A4248CF582E43402F583E0FC19
:0A49D800A3E0FDA3E0FEA3E0FF2230
:1049E200EF75F039A42494F582E43402F583E0FCF7
:0A49F200A3E0FDA3E0FEA3E0FF2216
:1049FC00EF75F039A42498F582E43402F583E0FCD9
:0A4A0C00A3E0FDA3E0FEA3E0FF22FB
:104A1600EF75F039A4249CF582E43402F583E0FCBA
:0A4A2600A3E0FDA3E0FEA3E0FF22E1
:104A3000EF75F039A424A0F582E43402F583E0FC9C
:0A4A4000A3E0FDA3E0FEA3E0FF22C7
:104A4A00EF75F039A424A4F582E43402F583E0FC7E
:0A4A5A00A3E0FDA3E0FEA3E0FF22AD
:104A6400EF75F039A424ACF582E43402F583E0FC5C
:0A4A7400A3E0FDA3E0FEA3E0FF2293
:104A7E00EF75F039A424A8F582E43402F583E0FC46
:0A4A8E00A3E0FDA3E0FEA3E0FF2279
:0529E5009004E0EDF09C
:1029EA00E49004E7F0A3F09004E3E0FFA3E090048E
:1029FA00E9CFF0A3EFF09004E1E0FFA3E09004EB4D
:102A0A00CFF0A3EFF0E49004E5F0A3F09004E0E047
:102A1A00FF9004E5E0FCA3E0FDC39F7480F8EC643A
:102A2A0080984003022ADFED25E0FFEC338F82F520
:102A3A0083120D39FFC39004EAE09F9004E9E09500
:102A4A00F0501D9004E6E025E0FF9004E5E0338FA6
:102A5A0082F583120D39FF9004E9E5F0F0A3EFF057
:102A6A009004E6E025E0FF9004E5E0338F82F583E9
:102A7A00120D39FFD39004ECE09F9004EBE095F03F
:102A8A00401D9004E6E025E0FF9004E5E0338F82E4
:102A9A00F583120D39FF9004EBE5F0F0A3EFF09007
:102AAA0004E6E025E0FF9004E5E0338F82F5831227
:102ABA000D39FFAEF09004E8E02FF09004E7E03E15
:102ACA00F09004E6E004F06003022A169004E5E0C0
:102ADA0004F0022A169004EBE0FEA3E0FF9004EA59
:102AEA00E02FFF9004E9E03EFEC39004E8E09FFF78
:102AFA009004E7E09EFEF0A3EFF09004E0E024FEED
:102B0A00FDE434FFFC120CCE9004E7EEF0A3EFF0E4
:012B1A002298
:10372300602A03E600000000000000000000000023
:103733000000000000000000000000000000000086
:0E374300000000000000000000000000000078
:10348300900501EBF0A3EAF0A3E9F0900003120C1E
:103493005BFF9004FDE0FBA3E0FAA3E0F9A3E0FEE9
:1034A300F582758300EF120C9A900501E0FBA3E00F
:1034B300FAA3E0F9900002120C5BFFEE2401FDE495
:1034C30033FC9004FDE0FBA3E0FAA3E0F98D828CCA
:1034D30083EF120C9A900501E0FBA3E0FAA3E0F955
:1034E300900001120C5BFFEE2402FDE433FC900418
:1034F300FDE0FBA3E0FAA3E0F98D828C83EF120CCD
:103503009A900501E0FBA3E0FAA3E0F9120C42FF55
:10351300EE2403FDE433FC9004FDE0FBA3E0FAA3F7
:0A352300E0F98D828C83EF020C9A10
:1043CD00900540E0900575F0122B1BE4900541F02F
:1043DD00900540E0FF1235D6900541E0FEC39F5099
:1043ED001774E62EF582E43403F583E0FF12455889
:0843FD00900541E004F080D8B6
:014405002294
:102B1B00900571120F5D900575E0FFD3940A400389
:102B2B00022C4EEF7003022C4EEF14B40A0040033C
:102B3B00022C4E902B4C75F003A4C58325F0C58356
:102B4B0073022B6A022B80022B97022BAE022BC532
:102B5B00022BDB022BF1022C07022C1D022C3390D3
:102B6B0004FD7401F0A37403F0A374E6F0A37401E5
:102B7B00F0FB022C479004FD7401F0A37403F0A347
:102B8B0074E6F0A37405F07B01022C479004FD74EE
:102B9B0001F0A37403F0A374E6F0A37409F07B01B6
:102BAB00022C479004FD7401F0A37403F0A374E6A8
:102BBB00F0A3740DF07B01022C479004FD7401F01F
:102BCB00A37403F0A374E6F0A37411F07B01806C83
:102BDB009004FD7401F0A37403F0A374E6F0A374E6
:102BEB0015F07B0180569004FD7401F0A37403F083
:102BFB00A374E6F0A37419F07B0180409004FD747C
:102C0B0001F0A37403F0A374E6F0A3741DF07B0131
:102C1B00802A9004FD7401F0A37403F0A374E6F012
:102C2B00A37421F07B0180149004FD7401F0A37454
:102C3B0003F0A374E6F0A37425F07B017A05797198
:042C4B00123483229A
:1035D600EFD3940A5003EF70037F00229003E67442
:1035E60024F0EF14B40A00400302367890360075D2
:1035F600F003A4C58325F0C5837302361E02362761
:1036060002363002363902364202364B0236540250
:10361600365D02366602366F9003EB7405F07F0660
:10362600229003EF7409F07F0A229003F3740DF0E1
:103636007F0E229003F77411F07F12229003FB7421
:1036460015F07F16229003FF7419F07F1A2290045A
:1036560003741DF07F1E229004077421F07F22223E
:1036660090040B7425F07F262290040F7429F07FB6
:053676002A227F002262
:104BED00900576EEF0A3EFF0A3EBF0A3EAF0A3E9C6
:024BFD00F022A4
:08375100C100C101C102C10366
:1047D9009005A97478F0E49005A8F07B017A057931
:0E47E900A87F0212226DD2A3D2A4D2A5D2A61E
:0147F700229F
:0A4CF400EF4E7005EE4F24FFB322CF
:10489100EF24F0600F24F0600E24E0600D243870E6
:0D48A1000BA20022A20122A20222A20322E9
:103FE100A2A3E4FE33FF124CF4500EA2A3E433FF6C
:103FF100124CF45006D2008002C200A2A4E4FE33A7
:10400100FF124CF45007200106D2018002C201A226
:10401100A5E4FE33FF124CF45007200206D20280C1
:1040210002C202A2A6E4FE33FF124CF450062003A2
:0740310005D20322C20322A5
:02375900C108A5
:104490009004517405F0E4900450F07B017A0479A3
:1044A000507F0512226D124D6C7FC8124C88124D40
:0744B000717FC8124C88D394
:0144B70022E2
:054D6C00C2CDD20822B7
:054D7100D2CDC20822B2
:1045EF00900450EFF0900450E0FF14F0EF601212BF
:1045FF004D6C7FC8124C88124D717FC8124C888049
:02460F00E422A3
:034D7A00A208226A
:064D4E009005B0EFF02219
:103A2F0090057BEFF07F337E337D737C3FA3E0F80F
:103A3F00A3E0F9A3E0FAA3E0FB120A9E600C400A90
:103A4F0090057C120F693F7333337FCD7ECC7D4C55
:103A5F007C3D90057CE0F8A3E0F9A3E0FAA3E0FB3E
:103A6F00120A9E500A90057C120F693D4CCCCD90E6
:103A7F00057BE02404FFC007A3E0FCA3E0FDA3E067
:103A8F00FEA3E0FF90046B120F5DD007122FBF90C3
:103A9F00057CE0FCA3E0FDA3E0FEA3E0FF120B49D1
:103AAF0090057BE025E0248BF582E43405F583EF68
:023ABF00F022F3
:104855009005B1EFF02404FF1244B89005B1E025AE
:0E486500E0248AF582E43405F5837401F02224
:1048AE009005B2EFF02404FF1245A59005B2E02565
:0D48BE00E0248AF582E43405F583E4F0225D
:104C7800EF25E0248AF582E43405F583E024FF2259
:103E5F00E49004CBF0A37408F07B017A0479CB7F54
:103E6F000212226D9004CC7404F07B017A0479CB9A
:103E7F007F0212226DD2A2D2A343BA80E49004CD66
:103E8F00F0A3F0A3F0A304F0E4A3F0A3F0A3F0A336
:103E9F00F0A3F0A3F0A3F0A3F0A3F0A3F0A3F0A37B
:103EAF00F07B017A0479CD7F021216947B017A049C
:0A3EBF0079CD7F0312169453BA7FE9
:013EC90022D6
:05209900900410EFF0BF
:10209E00E490041FF0A37480F07B017A04791F7F13
:1020AE000312226DD2B743BA80E4900421F0A3F05C
:1020BE00A3F0A304F0E4A3F0A3F0A3F0A3F0A3F025
:1020CE00A3F0A3740FF0E4A3F0A3F0A3F0A3F0A386
:1020DE00F0900410E0FF7B017A04792112169453DC
:1020EE00BA7F900410E0FF7D10124C56900410E061
:1020FE00FF7D327C00123ECA900411E0FCA3E0FD8D
:10210E00A3E0FEA3E0FF900410E0FB75F025A424ED
:10211E0003F582E43403F583120F5D900415E0FCA1
:10212E00A3E0FDA3E0FEA3E0FFEB75F025A42407DA
:10213E00F582E43403F583120F5D900419E0FCA3DD
:10214E00E0FDA3E0FEA3E0FFEB75F025A42415F55A
:10215E0082E43403F583120F5D90041DE0FEA3E0CC
:10216E00FFEB75F025A4240FF582E43403F583EE1E
:10217E00F0A3EFF0EB75F025A42403F582E434030D
:10218E00F583E0F8A3E0F9A3E0FAA3E0FB900410D6
:10219E00E075F025A42407F582E43403F583E0FC12
:1021AE00A3E0FDA3E0FEA3E0FF120803C004C005F8
:1021BE00C006C007900410E075F025A4240FF58228
:1021CE00E43403F583E0FCA3E0FDE4120B10A80455
:1021DE00A905AA06AB07D007D006D005D004120A6F
:1021EE0001900410E0FB75F025A4240BF582E43475
:1021FE0003F583120F5DEB75F025A4240FF582E431
:10220E003403F583E0FCA3E0FDE4120B10A804A94F
:10221E0005AA06AB07900410E075F025A42415F569
:10222E0082E43403F583E0FCA3E0FDA3E0FEA3E02B
:10223E00FF120A01900410E0FB75F025A42419F595
:10224E0082E43403F583120F5DEB75F025A424119F
:0E225E00F582E43403F583120F6900000000DE
:01226C00224F
:052EA90090050EEFF0A2
:102EAE00A3E0FCA3E0FDA3E0FEA3E0FF90050EE08F
:102EBE00FB75F025A424FEF582E43402F583120F8F
:102ECE005DEB75F025A42419F582E43403F583E057
:102EDE00F8A3E0F9A3E0FAA3E0FB90050FE0FCA352
:102EEE00E0FDA3E0FEA3E0FF120A0190050EE075DF
:102EFE00F025A4240BF582E43403F583E0F8A3E077
:102F0E00F9A3E0FAA3E0FB1208F890050EE075F0C5
:102F1E0025A42403F582E43403F583E0F8A3E0F955
:102F2E00A3E0FAA3E0FB12080790050EE0FB75F094
:102F3E0025A4241FF582E43403F583120F5DEB758F
:102F4E00F025A4241FF582E43403F583E0FCA3E00E
:102F5E00FDA3E0FEA3E0FFE4FBFA79A07841120A9C
:102F6E0001900513120F5D900513E0FCA3E0FDA385
:102F7E00E0FEA3E0FF90046B120F5D90050EE0FFE4
:102F8E00122FBF90050EE0FB75F025A424FEF582EE
:102F9E00E43402F583E0FCA3E0FDA3E0FEA3E0FF32
:102FAE00EB75F025A42411F582E43403F583020FAA
:012FBE005DB5
:104A9800EF75F025A42411F582E43403F583E0FCD6
:0A4AA800A3E0FDA3E0FEA3E0FF225F
:104719009005B3EFF01244B89005B3E075F025A405
:10472900241DF582E43403F583E4F0A304F0D322D5
:1047F8009005B4EFF01245A59005B4E075F025A436
:0F480800241DF582E43403F583E4F0A3F0D322FA
:1037C000900542EFF075F00EA4247AF582E43404FB
:1037D000F583E0FEA3E0FF7C007D63120CCEEF24B6
:1037E00001FFE43EFE900547E0FD7C00120CBCAA00
:1037F00006AB07900542E075F00EA4247AF582E44A
:103800003404F583E0FEA3E0FF7D63120CCEC3EB2E
:103810009FFDEA9EFCC004C005900479E0FCE41220
:103820000B15900543E0F8A3E0F9A3E0FAA3E0FB51
:103830001208F8900475E0F8A3E0F9A3E0FAA3E019
:10384000FB120A01120B49E4FCFD90052A120F5DE0
:0E385000900542E0FFD005D004123F89D3223C
:104406009005B5EBF0C007AE04AF057C017D6812E0
:104416000CBCAC06AD07E4120B10900543120F5D01
:0F4426009005B5E0900547F0D0071237C0D322BC
:104C3400EF75F00EA42471F582E43404F583E0FFEB
:014C4400224D
:074D33009005B6EFF0D3225A
:104922009005B7EFF01247799005B7E075F00EA445
:0C4932002471F582E43404F583E4F022E3
:1048CB009005B8EFF01247599005B8E075F00EA4BB
:0D48DB002471F582E43404F5837401F022A9
:074D3A009005B9EFF0D32250
:074D41009005BAEFF0D32248
:10403800AB07900451E0FCA3E0FDA3E0FEA3E0FF82
:10404800EB75F00EA42475F582E43404F583120FA1
:104058005D900455E0FFEB75F00EA42479F582E439
:104068003404F583EFF0900456E0FEA3E0FFEB750F
:10407800F00EA4247AF582E43404F583EEF0A3EF7D
:04408800F002385EAC
:0F4C9800749A2FF582E43405F5837401F0D3226A
:0E4CA700749A2FF582E43405F583E4F0D322ED
:014D8A002206
:10493E00900548EFF0A3EDF0A37401F0E4A3F0A30B
:0C494E00F0A3F07B017A05794802408C50
:103DE500E49004B5F0300963F0E4FF123F2B900432
:103DF500B5E025E024A1F582E43404F583EEF0A3D3
:103E0500EFF09004B5E004F0E0C3940A40DB7B01D9
:103E15007A0479A19004E17404F0A3E4F0A3F0A37B
:103E2500F07D0A1229E5AC06AD07E4120B109005EA
:103E35001F120F5D90051FE0FCA3E0FDA3E0FEA3AC
:103E4500E0FFA3120F5D90051F8003900523E0FCA2
:093E5500A3E0FDA3E0FEA3E0FFE1
:013E5E002241
:10495A009005BBEFF0D2C87F01124C889005BBE0EE
:0C496A00F5C0D2CA7F01124C88C2CA22DC
:1044350090059DEBF0A3EAF0A3E9F090059DE0FB64
:10444500A3E0FAA3E0F9120C42FFD39400400F1247
:0F445500495A90059EE475F001120D2380DD2277
:1048E800124873D2CCC2CAC2C97F381249767F0C2B
:0D48F8001249767F061249767F010249764B
:104976009005BCEFF0C2C87F01124C88D2CA9005E0
:0C498600BCE0F5C07F01124C88C2CA22C0
:1048730053C9EF43CA1053C9FE53CAFE53C9FD536C
:0E488300CAFD53C9FB53CAFBE4F5B3F5B422DA
:084B1A0090058EECF0A3EDF014
:104B2200E4A3F0A3EFF07B017A057990E4FF02227F
:014B32006D15
:054C45009005BDEFF039
:0B4C4A00E4FF00000FEFB408F90000C9
:014C5500223C
:101A2E000000000000000000004F00000000070052
:101A3E00070000147F147F1400242A7F2A1200232B
:101A4E001308646200364955225000000503000059
:101A5E0000001C224100000041221C000014083E20
:101A6E0008140008083E0808000050300000000866
:101A7E00080808080000606000000020100804023A
:101A8E00003E5149453E0000427F400000426151F8
:101A9E004946002141454B31001814127F10002792
:101AAE0045454539003C4A49493000017109050355
:101ABE0000364949493600064949291E0000363686
:101ACE0000000000563600000008142241000014E9
:101ADE0014141414000041221408000201510906C6
:101AEE0000324979413E007E1111117E007F494935
:101AFE00493E003E41414122007F4141221C007F70
:101B0E0049494941007F09090901003E4149497A85
:101B1E00007F0808087F0000417F410000204041FF
:101B2E003F01007F08142241007F40404040007F6B
:101B3E000204027F007F0408107F003E4141413EB7
:101B4E00007F09090906003E4151215E007F0919F7
:101B5E0029460046494949310001017F0101003FF4
:101B6E004040403F001F2040201F003F4038403F74
:101B7E0000631408146300030478040300615149E0
:101B8E00454300007F4141000015167C16150000EC
:101B9E0041417F00000402010204004040404040E9
:101BAE00000001020400002054545478007F484481
:101BBE00443800384444442000384444487F0038B8
:101BCE005454541800087E090102000C5252523E21
:101BDE00007F080404780000447D4000002040444B
:101BEE003D00007F102844000000417F4000007E31
:101BFE00020C027C007E0402027C0038444444380D
:101C0E00007C1414140800081414187C007C0804BA
:101C1E00040800485454542000043F444020003C23
:101C2E004040207C001C2040201C003C4030403CAA
:101C3E00004428102844000C5050503C004464547A
:101C4E004C440000083641000000007F00000000F8
:101C5E00413608000008040810080008082A1C086D
:101C6E0000081C2A08080004027F02040010207FCE
:0E1C7E002010001C2A322A1C001C2244221CAA
:10473900C2CBED24FF92CA7E08EF30E704D2C980CC
:0F47490002C2C9C2C8EF25E0FFD2C8DEECD2CB56
:01475800223E
:1046F800E4FD7F801247397F401247397BF87A0101
:104708007D01E4FF124739EB1B70011AEB4A70F088
:01471800227E
:104B8F00AD07E4FF124B7B7C547D01E4FF124739E4
:024B9F00DCF741
:014BA10022F1
:104B7B00AC05EF4480FFEC4440FCE4FD124739AF39
:044B8B0004024739A0
:07435500E0FF04F0A3E0FD0E
:10435C0074E02BFBEF75F006A4FF124B7BE4FC75AD
:10436C00F006EBA4242EF582E5F0341AF583E582F1
:10437C002CF582E43583F583E493FF7D01124739F4
:05438C000CECB406DAA0
:014391002209
:10439200900580EFF0A3EDF0A3EBF0A3EAF0A3E920
:1043A200F0900582E0FBA3E0FAA3E0F9120C42FBD5
:1043B2006018900580E0C3940E500F12435590058B
:0B43C20083E475F001120D2380D72268
:10412D00900585EFF0A3EDF0A3EBF0A3EAF0A3E982
:10413D00F0900587E0FBA3E0FAA3E0F9120C42FB37
:10414D006028900585124355900588E475F001129D
:10415D000D23900585E0B40E06E4F0A3E004F09085
:0B416D000586E0B406CBE4F080C7221A
:10429400E49005AAF0A304F0FB7A0579AA7F05123D
:1042A400226DC2CCD2CCE4FD7F211247397F0612A5
:1042B40047397F131247397FC81247397F20124785
:1042C400397F0C1247397F401247397F80124739B2
:0342D4000246F8A7
:10375B004404450000000044044100000000440400
:10376B003D00000000440439000000004404350013
:0A377B0000000044043100000000CB
:103F8900900527EFF0A3ECF0A3EDF0900528E0FCF5
:103F9900A3E0FD7F05123ECA900528E0FEA3E0FFDD
:103FA900900527E0FB75F007A4244DF582E434045D
:103FB900F583EEF0A3EFF090052AE0FCA3E0FDA362
:103FC900E0FEA3E0FFEB75F007A42449F582E43491
:083FD90004F583120F5DD322F1
:104759009005BEEFF07F051244B89005BEE075F0F4
:1047690007A4244FF582E43404F5837401F0D322BD
:104779009005BFEFF02405FF1245A59005BFE07530
:10478900F007A4244FF582E43404F583E4F0D3223E
:104BFF00EF75F007A4244FF582E43404F583E02425
:024C0F00FF2282
:10385E00E4900458F0A37440F07B017A0479587F09
:10386E000112226D9004597480F07B017A0479580C
:10387E007F0112226DD296D29790046B120F693F80
:10388E000000007F04122FBF90046B120F693F00DF
:10389E0000007F05122FBF43BA80E490045AF0A3B4
:1038AE00F0A3F0A304F0E4A3F0A3F0A3F0A3F0A31D
:1038BE00F0A3F0A3740FF0E4A3F0A304F0E4A3F0DC
:1038CE00A304F0E4A3F07B017A04795A7F04121664
:1038DE00947B017A04795A7F0512169453BA7F7D30
:0D38EE00107F04124C567D107F05024C56D1
:0300B3000231BE59
:1031BE00C0E0C0F0C083C082C0D075D000C000C0D7
:1031CE0001C002C003C004C005C006C007E5F6601A
:1031DE002B53F6DF900445120F28900449E0F8A314
:1031EE00E0F9A3E0FAA3E0FBD3120E9C5061900429
:1031FE0049120F69000000007F05802DE5F6602E54
:10320E0053F6EF900441120F28900450E0F8A3E01B
:10321E00F9A3E0FAA3E0FBD3120E9C5032900450B7
:10322E00120F69000000007F041245A58021E5F60B
:10323E00600553F6F78018E5F6600553F6FB800F30
:10324E00E5F6640160028004E5F6600353F6FDD0F6
:10325E0007D006D005D004D003D002D001D000D0C4
:0A326E00D0D082D083D0F0D0E0323F
:10408C00120C42F59D900001120C5BFFE5BC549F95
:10409C004FF5BC900002120C5BB4010543BC808050
:1040AC000353BC7F900003120C5BB40105439720B3
:1040BC0080035397DF900005120C5BB40104D2AD62
:1040CC008002C2AD900004120C5BB40103D2BD227D
:0340DC00C2BD2240
:0C4CDD00EFB4010443BC802253BC7F22D2
:103F2B00EFD3940740028051E4F5BDF5BEE5BC54D8
:103F3B00E044084FF5BC00000000E4FBE5BC30E4B6
:103F4B003353BCEFE59730E509E5BD5403ADBEFC3B
:103F5B00801DAFBD7C00AD07ED7E007802C333CE74
:103F6B0033CED8F9FFE5BE5403FDEEFCEF4DFDAFAC
:0D3F7B0005AE04220BEBB4FAC37E047F00F8
:013F88002216
:03002B00024D760D
:044D760053BCEF3209
:0F4C88007D367C07ED1D70011C144C70F7DFF1B9
:014C970022FA
:034D7D00A20A2265
:10226D00EFD3940540037F0122120C42FED3940359
:10227D0040037F0222EF7041EE700B900001120CB3
:10228D005BF452935294120C42B4010B9000011264
:10229D000C5B4293F45294120C42FEB4020A90006D
:1022AD0001120C5B42934294EEB4030D90000112A7
:1022BD000C5BFEF45293EE4294EF64017043120CEA
:1022CD0042FE700B900001120C5BF452915292EE93
:1022DD00B4010B900001120C5B4291F45292120C5E
:1022ED0042B4020A900001120C5B42914292120C10
:1022FD0042B4030D900001120C5BFEF45291EE42BC
:10230D0092EF64027043120C42FE700B90000112AA
:10231D000C5BF452955296EEB4010B900001120C29
:10232D005B4295F45296120C42B4020A90000112CF
:10233D000C5B42954296120C42B4030D90000112B3
:10234D000C5BFEF45295EE4296EF64037043120C53
:10235D0042FE700B900001120C5BF452B152B2EEC2
:10236D00B4010B900001120C5B42B1F452B2120C8D
:10237D0042B4020A900001120C5B42B142B2120C3F
:10238D0042B4030D900001120C5BFEF452B1EE420B
:10239D00B2EF64047043120C42FE700B90000112F8
:1023AD000C5BF452B352B4EEB4010B900001120C5D
:1023BD005B42B3F452B4120C42B4020A9000011203
:1023CD000C5B42B342B4120C42B4030D90000112E7
:1023DD000C5BFEF452B3EE42B4EF64057043120C85
:1023ED0042FF700B900001120C5BF452C952CAEF00
:1023FD00B4010B900001120C5B42C9F452CA120CCD
:10240D0042B4020A900001120C5B42C942CA120C7E
:10241D0042B4030D900001120C5BFFF452C9EF4260
:04242D00CA7F002240
:10332900EF7034D3ED9498EC940340047C037D98BA
:10333900C3ED9450EC940050047C007D50C2DE90A3
:1033490004BFECF0A3EDF0C374E89D9004BAF074E7
:10335900039C9004B98073EF64017034D3ED9468D1
:10336900EC940B40047C0B7D68C3ED9450EC940005
:1033790050047C007D50C2DE9004C1ECF0A3EDF056
:10338900C374B89D9004BCF0740B9C9004BB803A44
:10339900EF64027038D3ED9480EC940740047C0705
:1033A9007D80C3ED9450EC940050047C007D50C2A4
:1033B900DE9004C3ECF0A3EDF0AE04FFC374D09F1C
:0E33C9009004BEF074079E9004BDF0D2DE2288
:102431009005A0EBF0A3EAF0A3E9F0AD07EDD3948A
:102441000340030225CFED6403704CC2DEF5F9F5BC
:10245100E99005A0E0FBA3E0FAA3E0F9120C42FF2A
:10246100E5A254CF4FF5A2900001120C5BFFE5D914
:1024710054F14FF5D9900004120C5B5401FFE5D9DA
:1024810054FE4FF5D9900005120C5BB40104D2BF84
:102491008002C2BFD2DE229005A0E0FBA3E0FAA336
:1024A100E02404F9E43AFA120C425431120C8890F7
:1024B10005A0E0FBA3E0FAA3E0F9900002120C5B97
:1024C100C39448400FE92404F9E43AFA120C425447
:1024D100CF120C88ED704F9005A0E0FBA3E0FAA3AA
:1024E100E0F9900004120C5BFF900002120C5BFEFD
:1024F1004FF5DA900003120C5BFFE5F2543F4FF504
:10250100F2900006120D39FBAAF09004BFEAF0A385
:10251100EBF0C2049004B6EEF09004C5EAF0A3EB30
:10252100F0F5EAEAF5FAED6401704F9005A0E0FBE1
:10253100A3E0FAA3E0F9900004120C5BFF90000203
:10254100120C5BFE4FF5DB900003120C5BFFE5F311
:10255100543F4FF5F3900006120D39FBAAF0900499
:10256100C1EAF0A3EBF0C2059004B7EEF09004C706
:10257100EAF0A3EBF0F5EBEAF5FBED6402704F90A6
:1025810005A0E0FBA3E0FAA3E0F9900004120C5BC4
:10259100FF900002120C5BFE4FF5DC900003120C61
:1025A1005BFFE5F4543F4FF5F4900006120D39FD41
:1025B100ACF09004C3ECF0A3EDF0C2069004B8EEC9
:0F25C100F09004C9ECF0A3EDF0F5ECECF5FC2282
:1028A8009005A4ECF0A3EDF09005A3EFF0705ED3D3
:1028B800EB9464EA940040047A007B64C3EB9401CF
:1028C800EA940050047A007B01C2DE9005A4E0FE81
:1028D800A3E0FFAD03AC02120CBC7C007D64120CBB
:1028E800CE9004BFEEF0A3EFF07C007D64AF03AEA2
:1028F80002120CCEC374019FFFE49EFE9005A4E073
:10290800FCA3E0FD120CBC9004B90229DD9005A3DC
:10291800E06401705DD3EB9464EA940040047A00AB
:102928007B64C3EB9401EA940050047A007B01C2F3
:10293800DE7C007D64AF03AE02120CCE9005A4E0ED
:10294800FCA3E0FD120CBC9004C1EEF0A3EFF07CF8
:10295800007D64AF03AE02120CCEC374019FFFE486
:102968009EFE9005A4E0FCA3E0FD120CBC9004BB05
:1029780080639005A3E064027062D3EB9464EA94E8
:102988000040047A007B64C3EB9401EA940050048D
:102998007A007B01C2DE7C007D64AF03AE02120CBC
:1029A800CE9005A4E0FCA3E0FD120CBC9004C3EE9D
:1029B800F0A3EFF0AE02AF037C007D64120CCEC32F
:1029C80074019FFFE49EFE9005A4E0FCA3E0FD12C5
:0D29D8000CBC9004BDEEF0A3EFF0D2DE22A7
:03003B0002367B0F
:10367B00C0E0C083C082C0D075D000C006C0073088
:10368B00D82AC2D830A5059004BF80039004B9E0B6
:10369B00FEA3E0FF9004C6E02FF09004C5E03EF0DF
:1036AB009004C5E0FEA3E0F5EAEEF5FA30D92AC2A4
:1036BB00D930A6059004C180039004BBE0FEA3E0C3
:1036CB00FF9004C8E02FF09004C7E03EF09004C7D1
:1036DB00E0FEA3E0F5EBEEF5FB30DA2AC2DA30A719
:1036EB00059004C380039004BDE0FEA3E0FF9004AB
:1036FB00CAE02FF09004C9E03EF09004C9E0FEA3AD
:10370B00E0F5ECEEF5FCD007D006D0D0D082D0831C
:03371B00D0E032C9
:0516940090046AEFF074
:10169900E4A3F090046BE0FFC39406505AEF75F091
:1016A9000AA42448F582E43403F583120F69000083
:1016B900000090046BE0FF75F00AA4244CF582E465
:1016C9003403F583E4F0EF75F00AA4244DF582E4C0
:1016D9003403F583120F690000000090046BE07574
:1016E900F00AA42451F582E43403F5837401F090DF
:1016F900046BE004F0809C43BA80120C42B40105EB
:1017090043F180800353F17F900001120C5BB40117
:101719001490046AE0FF7401A807088002C333D853
:10172900FC42F1801390046AE0FF7401A807088065
:1017390002C333D8FCF452F1900002120C5BB401DD
:101749000543F540800353F5BF900003120C5BB4C9
:10175900011490046AE0FF7401A807088002C333EA
:10176900D8FC42F5801390046AE0FF7401A80708C9
:101779008002C333D8FCF452F5900004120C5BB418
:10178900010575F720800353F7DF900005120C5B04
:10179900B4010575F710800353F7EF900006120C9A
:1017A9005BB4010575F708800353F7F7900007123A
:1017B9000C5BB4010575F704800353F7FB9000082F
:1017C900120C5BB4010575F702800353F7FD900015
:1017D90009120C5B90FFF27006E054EFF08004E010
:1017E9004410F090FFF2C083C082E0FF90000A121B
:1017F9000C5BFEEF4ED082D083F090046AE0146057
:10180900721470030218CF147003021922147003A2
:101819000219751470030219C624056003021A1D02
:1018290090000B120C5B90FF047006E054F7F080F7
:1018390004E04408F090000C120C5B90FF04B40122
:1018490006E04404F08004E054FBF090000D120C13
:101859005B90FF04B40106E04402F08004E054FD0B
:10186900F090000E120C5B90FF04B40103021A13EE
:10187900021A1990000B120C5B90FF147006E054C9
:10188900F7F08004E04408F090000C120C5B90FF24
:1018990014B40106E04404F08004E054FBF0900025
:1018A9000D120C5B90FF14B40106E04402F08004B1
:1018B900E054FDF090000E120C5B90FF14B401038C
:1018C900021A13021A1990000B120C5B90FF247074
:1018D90006E054F7F08004E04408F090000C120C84
:1018E9005B90FF24B40106E04404F08004E054FB5B
:1018F900F090000D120C5B90FF24B40106E0440245
:10190900F08004E054FDF090000E120C5B90FF246F
:10191900B40103021A13021A1990000B120C5B90FE
:10192900FF347006E054F7F08004E04408F09000BA
:101939000C120C5B90FF34B40106E04404F08004FF
:10194900E054FBF090000D120C5B90FF34B40106DB
:10195900E04402F08004E054FDF090000E120C5BAC
:1019690090FF34B40103021A13021A1990000B12E2
:101979000C5B90FF447006E054F7F08004E04408E3
:10198900F090000C120C5B90FF44B40106E0440493
:10199900F08004E054FBF090000D120C5B90FF44C2
:1019A900B40106E04402F08004E054FDF090000E1A
:1019B900120C5B90FF44B40102804F805390000BDE
:1019C900120C5B90FF547006E054F7F08004E04479
:1019D90008F090000C120C5B90FF54B40106E0442F
:1019E90004F08004E054FBF090000D120C5B90FFB2
:1019F90054B40106E04402F08004E054FDF0900084
:101A09000E120C5B90FF54B40106E04401F080040F
:101A1900E054FEF090000F120C5BB4010443F58012
:041A29002253F57FD0
:011A2D002296
:104AB200EF75F00AA42448F582E43403F583E0FCA0
:0A4AC200A3E0FDA3E0FEA3E0FF2245
:104ACC00EF75F00AA4244DF582E43403F583E0FC81
:0A4ADC00A3E0FDA3E0FEA3E0FF222B
:103ECA009005ACECF0A3EDF0AB079005ACE0FEA3D7
:103EDA00E0FFE4FCFDEB75F00AA42448F582E43423
:103EEA0003F583120F5D43BA8053F57FEB75F00A31
:103EFA00A42451F582E43403F583E0FF7E009005A3
:103F0A00ACE0FCA3E0FD120CBCAB07AA06E4F9F88E
:103F1A00FF7E367D6E7C01124250124B4C53BA7FA3
:013F2A002274
:102FBF0090046AEFF07F337E337D737C3FA3E0F89C
:102FCF00A3E0F9A3E0FAA3E0FB120A9E600C400A0B
:102FDF0090046B120F693F7333337FCD7ECC7DCC62
:102FEF007C3C90046BE0F8A3E0F9A3E0FAA3E0FBCC
:102FFF00120A9E500A90046B120F693CCCCCCD90F4
:10300F00046BE0FCA3E0FDA3E0FEA3E0FF90046AE5
:10301F00E0FB75F00AA4244DF582E43403F5831226
:10302F000F5D43BA80EB75F00AA42451F582E434A6
:10303F0003F583E0FFE4FCFDFEEB75F00AA42448E2
:10304F00F582E43403F583E0F8A3E0F9A3E0FAA3F3
:10305F00E0FB120D71A804A905AA06AB077F007E3D
:10306F00367D6E7C01120DFCE4120B0B90046AE0AE
:10307F0075F00AA4244DF582E43403F583E0F8A338
:10308F00E0F9A3E0FAA3E0FB1208F8E4FBFA7920D9
:10309F0078411208F8E4FBFA79A07840120807E4A7
:1030AF00FBFA79207841120A01120B49AB07AA06E5
:0F30BF0090046AE0FFE4FDFC1238FB53BA7F2255
:104C5600EF75F00AA42451F582E43403F583EDF0F0
:014C6600222B
:104C6700EF75F00AA42451F582E43403F583E0FFDD
:014C7700221A
:0A4CFE0043BA8043F58053BA7F22C9
:0A4D080043BA8053F57F53BA7F22AF
:1044B80043BA807401A807088002C333D8FC42F5C8
:1044C800EF75F00AA4244CF582E43403F5837401F3
:0844D800F043F58053BA7F2286
:1045A50043BA807401A807088002C333D8FCF452CB
:1045B500F5EF75F00AA4244CF582E43403F583E4A1
:0545C500F053BA7F2253
:104C1100EF75F00AA4244CF582E43403F583E02413
:024C2100FF2270
:104B4C00D3E49F74809E400D90FFF1EFF0EE90FF48
:084B5C00F0F07F00227F01222E
:1038FB00EF14602814603A14604C14605E1460700E
:10390B002405600302399290FF01EDF0EC90FF006B
:10391B00F090FF03EBF0EA90FF02806790FF11ED50
:10392B00F0EC90FF10F090FF13EBF0EA90FF128099
:10393B005290FF21EDF0EC90FF20F090FF23EBF085
:10394B00EA90FF22803D90FF31EDF0EC90FF30F0DC
:10395B0090FF33EBF0EA90FF32802890FF41EDF0BF
:10396B00EC90FF40F090FF43EBF0EA90FF428013A6
:10397B0090FF51EDF0EC90FF50F090FF53EBF0EA1D
:0A398B0090FF52F07F00227F01221E
:1032780054696D65723120696E697469616C697A27
:10328800696E672073756363656564200A00546915
:103298006D65723120696E697469616C697A696EED
:1032A80067206661696C6564200A0054696D6572FF
:1032B8003320696E697469616C697A696E67207315
:1032C800756363656564200A0054696D657233200F
:1032D800696E697469616C697A696E67206661698B
:1032E8006C6564200A0054696D65723420696E69E2
:1032F8007469616C697A696E672073756363656563
:1033080064200A0054696D65723420696E697469B5
:10331800616C697A696E67206661696C6564200A08
:0133280000A4
:1037850041049202410493024204940000420496CB
:10379500000042048E000042048C00004104A00099
:1037A50041048B00410491004104900044049800B9
:0A37B50000000044049C0000000026
:10352D00E4900460F0900450F0A3F0A304F0E4A341
:10353D00F0A3F0900457F090045574A2F0A37440DA
:10354D00F0E4900458F0A3F0A304F0E4A3F0A3F08A
:10355D0090045F04F090045D74FFF0A37410F07F8D
:10356D0001121C8C900460EFF070087BFF7A3279A9
:10357D0078800A900460E07BFF7A327996124B6472
:10358D007F03121C8C900460EFF070087BFF7A3281
:10359D0079B3800A900460E07BFF7A3279D1124BC7
:1035AD00647B017A0479587F04121C92900460EFB9
:1035BD00F070087BFF7A3279EE800A900460E07B30
:0835CD00FF7A33790C124B6404
:0135D50022D3
:1045CA00900492E0601EA3E0601AEF24FE600B04E0
:1045DA007012900498ECF0A3EDF0AF0590049CECF7
:0545EA00F0A3EFF02238
:104AE600EF24FE600804700E900498800390049CE6
:0A4AF600E0FEA3E0FF22E4FEFF2231
:10499200EF24FE600C04701390049AECF0A3EDF087
:0C49A20022AF0590049EECF0A3EFF02281
:104B0000EF24FE600804700E90049A800390049EC7
:0A4B1000E0FEA3E0FF22E4FEFF2216
:104B3300EF24FE600A047010C28E90049280065324
:094B4300D1F79004937402F022F2
:10490500EF24FE600D047014900492E07002D3222F
:0D491500C322900493E07003D38001C322FD
:10481700EF24FE600E047016900492E0B40102D3F8
:0F48270022C322900493E0B40103D38001C32283
:10483600EF24FE600E047016900492E0B40202D3D8
:0F48460022C322900493E0B40203D38001C32263
:10479900AE071249054018EF24FE600B047010D2D1
:1047A9008EE4900492F02243D108E4900493F0221D
:0E4CB500AE071248175005124799D322C322AA
:094D120090048EE0FEA3E0FF22F4
:094D1B0090048CE0FEA3E0FF22ED
:064D54009004A0E0FF2224
:064D5A0090048BE0FF2233
:064D6000900491E0FF2227
:064D6600900490E0FF2222
:03001B0002420995
:10420900C0E0C0F0C083C082C0D075D000C000C07B
:1042190006900494E475F001120D23FED3900499DD
:10422900E095F0900498E09E500EC28E900494E4BC
:10423900F0A3F090049204F0D006D000D0D0D08240
:07424900D083D0F0D0E03279
:03009B000241C15E
:1041C100C0E0C0F0C083C082C0D075D000C000C0C4
:1041D10006900496E475F001120D23FED390049D20
:1041E100E095F090049CE09E500F53D1F790049617
:1041F100E4F0A3F090049304F0D006D000D0D0D026
:0842010082D083D0F0D0E0323E
:0300A300023B4DD0
:103B4D00C0E0C0F0C083C082C0D075D000C000C03E
:103B5D0006C2AF90048EE475F00A120D23FEC3E584
:103B6D00F094E8EE9403405190048EE4F0A3F090AD
:103B7D00048C75F001120D23FEC3E5F094E8EE946C
:103B8D0003403690048CE4F0A3F09004A0E004F020
:103B9D00943C4025E4F090048BE004F0943C4019F3
:103BAD00E4F0900491E004F09418400DE4F09004DA
:103BBD0090E004F0B4FF02E4F0D2AFD006D000D014
:0A3BCD00D0D082D083D0F0D0E032D7
:061C8C007B017A0479508F
:101C9200AD07EDD3940440037F0122ED7073120C63
:101CA20042FED3940340037F0222C28CC2A9C2B96E
:101CB2005389F0538E7F538FFE900002120C5BB457
:101CC2000102D2A9900001120C5BB40102D2B9EE5A
:101CD2004289900003120C5BFF7003438E80EFB4C5
:101CE2000203438904900004120C5BB40103438F86
:101CF20001900005120D39E5F0F58C900005120DEA
:101D020039F58A900007120C5BB40102D28C7F0075
:101D120022ED64017076120C42FEC3940340037FED
:101D22000222C28EC2ABC2BB53890F538EBF538FE6
:101D3200FD900002120C5BB40102D2AB90000112C2
:101D42000C5BB40102D2BBEEC454F0428990000392
:101D5200120C5BFF7003438E40EFB40203438940D1
:101D6200900004120C5BB40103438F029000051231
:101D72000D39E5F0F58D900005120D39F58B9000C7
:101D820007120C5BB40102D28E7F0022ED64027056
:101D920063900003120C5BFED3940240037F022285
:101DA200538EE353AFFB538FFB900002120C5BB4D4
:101DB200010343AF04EE7003438E04900003120C40
:101DC2005BB40203438E08900004120C5BB401035F
:101DD200438F04900005120D39E5F0F5D690000509
:101DE200120D39F5D7900007120C5BB40103438E34
:101DF200107F0022ED64037060900003120C5BFE02
:101E0200D3940240037F022253D1F053AFDF9000FC
:101E120002120C5BB4010343AF20EE700343D10204
:101E2200900003120C5BB4020343D106900004122B
:101E32000C5BB4010343D101900005120D39E5F0AA
:101E4200F5D4900005120D39F5D5900007120C5B00
:101E5200B4010343D1087F0022ED6404705C90005A
:101E620003120C5BFED3940240037F022253D10F74
:101E720053AFBF900002120C5BB4010343AF40EEBC
:101E8200700343D120900003120C5BB4020343D1D0
:101E920060900004120C5BB4010343D11090000562
:101EA200120D39FDACF0ECF5D28DD3900007120C77
:0D1EB2005BB4010343D1807F00227F022238
:100FB40090045EEBF0A3EAF0A3E9F090045DEFF097
:100FC400640160030211C690000004F0E4A3F0A3DE
:100FD400F0A3F0A3F0A3F0A3F0900461F0900461F7
:100FE400E0FFC39480501474382FF582E43401F583
:100FF40083E4F0900461E004F080E2E4900461F0A2
:10100400900461E0FFC394805014741C2FF582E4B3
:101014003400F583E4F0900461E004F080E290048D
:101024005EE0FBA3E0FAA3E0F9120C42D394C040C3
:10103400037F022290000A120C5BB40104D2BC802C
:1010440002C2BC120C42FFE598543F4FF598EF647E
:10105400C06008EF64406003021140900002120E69
:10106400F87F807E8D7D5B7C00120DFC9004621203
:101074000F5DE4FFFE7D01FC900462E0F8A3E0F95B
:10108400A3E0FAA3E0FBC3120E9C40037F0222906C
:101094000462E0F8A3E0F9A3E0FAA3E0FBC3E49B55
:1010A400FFE49AFE740199FDE498FC900462120F27
:1010B4005D90045EE0FBA3E0FAA3E0F99000011266
:1010C4000C5BFB64017038C28E538EFE5389BF5390
:1010D40089CF438E40900462E0FCA3E0FDA3E0FED0
:1010E400A3E0FF7808120EAD8F8D900462A3A3A332
:1010F400E0F58BC2AB5389BF538FFDD28E8076EB64
:1011040064027035538EEF438E01538EF7438E0481
:10111400900462E0FCA3E0FDA3E0FEA3E0FF7808F6
:10112400120EAD8FD6900462A3A3A3E0F5D753AFFC
:10113400FB538EF7438E10803C7F022290045EE0C6
:10114400FBA3E0FAA3E0F9120C42FF70139000082D
:10115400120C5BB40105438E20801A538EDF801578
:10116400EFB48011900008120C5BB4010543878032
:10117400800353877F90045EE0FBA3E0FAA3E0F9C9
:10118400900009120C5BB40104D2AC8002C2AC9092
:101194000007120C5BB40104D29C8002C29C900034
:1011A4000B120C5B54C0FFE5A2543F4FF5A2900014
:1011B4000C120C5BB4010543971080035397EF7F27
:1011C400002290045DE0640260030213289000078B
:1011D4007402F0E4A3F0A3F0A3F0A3F0A3F0A3F04F
:1011E400900461F0900461E0FFC39480501474D4BF
:1011F4002FF582E43401F583E4F0900461E004F017
:1012040080E2E4900461F0900461E0FFC3948050B4
:1012140014749C2FF582E43400F583E4F0900461A7
:10122400E004F080E290045EE0FBA3E0FAA3E0F9BE
:10123400120C42FF64C06008EF644060030212E8CD
:1012440090000A120C5BB4010543B501800353B549
:10125400FE120C42B4C005439A808003539A7F90D7
:101264000002120EF87F807E8D7D5B7C00120DFCE7
:10127400900462120F5DE4FFFE7D01FC900462E0C5
:10128400F8A3E0F9A3E0FAA3E0FBC3120E9C400329
:101294007F0222900462E0F8A3E0F9A3E0FAA3E05D
:1012A400FBC3E49BFFE49AFE740199FDE498FC906F
:1012B4000462120F5D538EEF538EF7438E04900435
:1012C40062E0FCA3E0FDA3E0FEA3E0FF7808120EB9
:1012D400AD8FD6900462A3A3A3E0F5D753AFFB432D
:1012E4008E1080037F022290045EE0FBA3E0FAA349
:1012F400E0F9900009120C5BB4010543AF018003CF
:1013040053AFFE900007120C5BB40105439A1080A2
:1013140003539AEF90000B120C5B5401FFE5BA548F
:10132400FE4FF5BA90045DE0640360030214DB90A1
:10133400000E7402F0E4A3F0A3F0A3F0A3F0A3F072
:10134400A3F0900461F0900461E0FFC3941C501476
:1013540074542FF582E43402F583E4F0900461E0E0
:1013640004F080E2E4900461F0900461E0FFC3942F
:101374001C5014741C2FF582E43401F583E4F090BE
:101384000461E004F080E290045EE0FBA3E0FAA3D1
:10139400E0F9120C42FF64C06008EF64406003028D
:1013A400149B53ACDFEFB4C00543AC80800353AC53
:1013B4007F90045EE0FBA3E0FAA3E0F99000021240
:1013C4000EF87F807E8D7D5B7C00120DFC900462A4
:1013D400120F5DE4FFFE7D01FC900462E0F8A3E0DF
:1013E400F9A3E0FAA3E0FBC3120E9C40037F0222A0
:1013F400900462E0F8A3E0F9A3E0FAA3E0FBC3E4FD
:101404009BFFE49AFE740199FDE498FC9004621237
:101414000F5D90045EE0FBA3E0FAA3E0F990000105
:10142400120C5BFB6402703253ACBF538EEF538ECD
:10143400F7438E04900462E0FCA3E0FDA3E0FEA366
:10144400E0FF7808120EAD8FD6900462A3A3A3E048
:10145400F5D753AFFB438E108040EB6401703543E6
:10146400AC4053D1F053AFDF43D10253D1FB53D13E
:10147400FE900462E0FCA3E0FDA3E0FEA3E0FF789D
:1014840008120EAD8FD4900462A3A3A3E0F5D54354
:10149400D10880067F02227F022290045EE0FBA333
:1014A400E0FAA3E0F9900009120C5BB4010543AF24
:1014B40008800353AFF7900007120C5BB401054397
:1014C400AC10800353ACEF90000B120C5B5402FF82
:1014D400E5BA54FD02168B90045DE06404600302D7
:1014E40016919000157402F0E4A3F0A3F0A3F0A306
:1014F400F0A3F0A3F0900461F0900461E0FFC394C2
:101504001C501474702FF582E43402F583E4F090D7
:101514000461E004F080E2E4900461F0900461E08E
:10152400FFC3941C501474B82FF582E43401F5837E
:10153400E4F0900461E004F080E290045EE0FBA338
:10154400E0FAA3E0F9120C42FF64C06008EF6440C3
:10155400600302164E5384DFEFB4C00543848080D9
:101564000353847F90045EE0FBA3E0FAA3E0F990C8
:101574000002120EF87F807E8D7D5B7C00120DFCD4
:10158400900462120F5DE4FFFE7D01FC900462E0B2
:10159400F8A3E0F9A3E0FAA3E0FBC3120E9C400316
:1015A4007F0222900462E0F8A3E0F9A3E0FAA3E04A
:1015B400FBC3E49BFFE49AFE740199FDE498FC905C
:1015C4000462120F5D90045EE0FBA3E0FAA3E0F96D
:1015D400900001120C5BFB640270325384BF538E83
:1015E400EF538EF7438E04900462E0FCA3E0FDA366
:1015F400E0FEA3E0FF7808120EAD8FD6900462A33C
:10160400A3A3E0F5D753AFFB438E108040EB6402F5
:10161400703543844053D10F53AFBF43D12053D1CE
:10162400BF53D1EF900462E0FCA3E0FDA3E0FEA36E
:10163400E0FF7808120EAD8FD2900462A3A3A3E05A
:10164400F5D343D18080067F02227F022290045E7C
:10165400E0FBA3E0FAA3E0F9900009120C5BB401EB
:101664000543AF10800353AFEF900007120C5BB437
:10167400010543841080035384EF90000B120C5B2C
:0F1684005404FFE5BA54FB4FF5BA7F00227F03F1
:011693002234
:10455800900002E02438F582E43401F583EFF0900E
:104568000002E004F0C394804002E4F0900003E00D
:07457800700404F0D2992247
:1044E000900009E024D4F582E43401F583EFF090E4
:1044F0000009E004F0C394804002E4F090000AE078
:08450000700504F0439A022249
:10450800900010E02454F582E43402F583EFF09033
:104518000010E004F0C3941C4002E4F0900011E0A5
:08452800700504F043AC02220F
:10453000900017E02470F582E43402F583EFF090E8
:104540000017E004F0C3941C4002E4F0900018E06F
:08455000700504F0438402220F
:104B6400C2AF120C42FF600C124558740129F9E4DB
:074B74003AFA80EED2AF22F5
:104BA200120C42FF600C1244E0740129F9E43AFA53
:034BB20080EE2270
:104BB500120C42FF600C124508740129F9E43AFA17
:034BC50080EE225D
:104BC800120C42FF600C124530740129F9E43AFADC
:034BD80080EE224A
:03002300023D6635
:103D6600C0E0C083C082C0D075D000C006C0073096
:103D7600982DC298900006E07025900004E0C39448
:103D8600804002E4F0900004E0FF04F0741C2FF57C
:103D960082E43400F583E599F09000057405F0306F
:103DA6009930C299900002E0FF900001E0FE6F603A
:103DB6001C74382EF582E43401F583E0F599900001
:103DC60001E004F0C394804009E4F080059000030C
:0F3DD600E4F0D007D006D0D0D082D083D0E03236
:03004300023BD7A6
:103BD700C0E0C083C082C0D075D000C006C007E572
:103BE7009A30E02E539AFE90000DE0702590000B5E
:103BF700E0C394804002E4F090000BE0FF04F0740F
:103C07009C2FF582E43400F583E59BF090000C745B
:103C170005F0E59A30E131539AFD900009E0FF90F5
:103C27000008E0FE6F601C74D42EF582E43401F5C1
:103C370083E0F59B900008E004F0C394804009E41A
:103C4700F0800590000AE4F0D007D006D0D0D082EB
:053C5700D083D0E03233
:03008B00023C5CD8
:103C5C00C0E0C083C082C0D075D000C006C007E5EC
:103C6C00AC30E02E53ACFE900014E07025900012A6
:103C7C00E0C3941C4002E4F0900012E0FF04F074E6
:103C8C001C2FF582E43401F583E5ADF0900013743C
:103C9C0005F0E5AC30E13153ACFD900010E0FF9045
:103CAC00000FE0FE6F601C74542EF582E43402F5B4
:103CBC0083E0F5AD90000FE004F0C3941C4009E4E0
:103CCC00F08005900011E4F0D007D006D0D0D0825F
:053CDC00D083D0E032AE
:03009300023CE14B
:103CE100C0E0C083C082C0D075D000C006C007E567
:103CF1008430E02E5384FE90001BE0702590001963
:103D0100E0C3941C4002E4F0900019E0FF04F07459
:103D1100B82FF582E43401F583E585F090001A743B
:103D210005F0E58430E1315384FD900017E0FF9008
:103D31000016E0FE6F601C74542EF582E43402F527
:103D410083E0F585900016E004F0C3941C4009E47B
:103D5100F08005900018E4F0D007D006D0D0D082D2
:053D6100D083D0E03228
:0E4CC300E4F5C7F5C5F5C675C3FF75C4FF223D
:1042D700AD07AC06C2AF75C78075C501ECF5C3AFB6
:1042E700058FC475C65A75C6A500E5C2120C880DA0
:1042F700BD00010C740129F9E43AFA90053374FF03
:0F430700F5F0120D2345F070D3124CC3D2AF2244
:1047B900AD07AC06C2AFECF5C3AF058FC475C780B2
:1047C90075C50375C65A75C6A500124CC3D2AF226A
:10431600AD07AC06C2AF75C78075C502ECF5C3AF75
:10432600058FC4120C42F5C275C65A75C6A5000D96
:10433600BD00010C740129F9E43AFA90053A74FFBC
:0F434600F5F0120D2345F070D3124CC3D2AF2205
:10080000020BB5E86480F8E933E83360110460F066
:10081000ED33EC337009E8FCE9FDEAFEEBFF22045E
:1008200060DED3EB9FEA9EE99DE8C2E78CF0C2F759
:1008300095F0400CE8CCF8E9CDF9EACEFAEBCFFB25
:10084000120B8085D0F05804700320D5B3E80470F3
:10085000075002B2D5020BBF92D5EC0460F7E4CC8E
:10086000C0E0C398F8603B94186008400DD0E0FBEE
:10087000020B97E4FBFAC9FC8028E830E406E4C9DF
:10088000FBE4CAFCE830E305E4C9CACBFCE8540742
:100890006010F8C3E913F9EA13FAEB13FBEC13FC4D
:1008A000D8F130F52FC3E49CFCEF9BFFEE9AFEEDF0
:1008B00099FDD0E0FBEF4E4D4C701222DB03020B92
:1008C000BCEC2CFCEF33FFEE33FEED33FDED30E7F7
:1008D000EB020B97EF2BFFEE3AFEED39FDD0E0FB7C
:1008E00050130BBB0003020BBFED13FDEE13FEEF25
:0808F00013FFEC13FC020B974F
:1008F800EC4D6011E8497017ED33EC3304600DE4FA
:10090800FCFFFEFD22E933E8330470F8020BB51250
:100918000B8058046009E4CC248150062850090251
:100928000BBF284003020BBCC0E0EB4A7044B980FF
:1009380006D0E0FB020BABEF4E701CBD8008EBFF4E
:10094800EAFEE9FD80EBE98DF0A4FEE5F00209E19D
:10095800E9CDF9EAFEEBFFEF89F0A4FCE5F0CE89DA
:10096800F0A42EFFE435F0CD89F0A42DFEE435F097
:100978008067EF4E7005BD80D780C3EF8BF0A4ACC5
:10098800F0EE8BF0A42CFCE435F0F8EF8AF0A42C00
:10099800E5F038FCE433CB8DF0A42CFCE5F03BF813
:1009A800EE8AF0A42CFCE5F038F8E433CF89F0A403
:1009B8002CFCE5F038CF3400CE89F0A42FFFE5F009
:1009C8003EFEE433C98DF0A42EFEE5F039CD8AF061
:1009D800A42FFFE5F03EFEE43DFD33D0E0FB5007D9
:1009E8000BBB000F020BBFEC2CFCEF33FFEE33FE0A
:0609F800ED33FD020B9738
:1009FE00020BBFEC5D046005E859047003020BB5F1
:100A0E00120B80580460F6EC4860F2EC7004FDFEA8
:100A1E00FF22C860DB2481C85009C39860025006CB
:100A2E00020BBC9850CAF582E9294B4A7005AB827D
:100A3E00020BAB75F0007C1A7880C3EF9BEE9AED3B
:100A4E0099400DC3EF9BFFEE9AFEED99FDE842F043
:100A5E00DC23ACF0D0E0FFD0E0FED0E0FDAB822096
:100A6E00E7101BEB60BAEC2CFCEF33FFEE33FEED20
:100A7E0033FD020B97E803F830E705C0F075F00080
:100A8E00EF2FFFEE33FEED33FD40B830E7C280AA04
:100A9E0074F8CC6480CCC86480C8F582046043C30B
:100AAE00EB9FF5F0EA9E42F0E99D42F0E89C45F09E
:100ABE0060305018E5825FFFE582F42B5582FB50C3
:100ACE00210ABA001D09B90019088016E5825BFBE0
:100ADE00E582F42F5582FF50090EBE00050DBD00B4
:100AEE00010CC3EB9FF5F0EA9E42F0E99D42F0E85F
:0D0AFE009C45F06007CC4820E701B3EC22D6
:100B0B0075F020800E75F010800575F0087D007E65
:100B1B00007F003392D530D503120E8EEC3340108C
:100B2B00EF33FFEE33FEED33FDEC33FCD5F0ED226E
:0E0B3B00E5F0247EA2D513CC92E7CDCEFF22AA
:100B4900EDD2E7CD33EC3392D524814006E4FFFEA4
:100B5900FDFC22FCE4CFCECDCC24E0501174FF8003
:100B6900EDC3CC13CCCD13CDCE13CECF13CF0470A0
:070B7900F030D5DE020E8E04
:1033D700020BB522EDA2E7D2E7F9EC3340F260F336
:1033E700B4FF08ED547F70E8020BBFF82481C2E0F8
:1033F700C0E0F40428FAC313FCED92E7FD900592B0
:10340700120F5DEEA2E7E9BA7F02C31334009400FE
:10341700FA75F091A4E5F013F494FE8AF0A433E56D
:10342700F033248CD313FDE492E7FE7F007C3F75D5
:103437008302ECC0E0F8EDC0E0F9EEC0E0FAEFC0BF
:10344700E0FB8583F0900592120EC085F083120A87
:1034570001D0E0FBD0E0FAD0E0F9D0E0F81208079D
:10346700ED6480FD30E7011CD583C7ED33CC33F81D
:0C347700D0E0A2E71328C313CC13FD2201
:10274200900504120F5DE4FFFE7D807C3F9005043E
:10275200E0F8A3E0F9A3E0FAA3E0FB120A9E7006F8
:1027620090050402289C900504E0FCA3E0FDA3E090
:10277200FEA3E0FF120BCAFBA3E0FCA3E0FDA3E073
:10278200FEA3E0FF120BCAFFB40108E4FFFE7D8046
:102792007C3F22EF64046029EB64046024EBB40103
:1027A20030E4FFFEFDFC900508E0F8A3E0F9A3E0A9
:1027B200FAA3E0FB120A9E60084006E4FFFEFDFC5D
:1027C20022900508120F69FFFFFFFF9005080228FB
:1027D2009CE490050CF0A3F0FFFEFDFC900504E0E4
:1027E200F8A3E0F9A3E0FAA3E0FB120A9E505F907F
:1027F2000508E0FCA3E0FDA3E0FEA3E0FF120B4905
:1028020090050CEEF0A3EFF0FDCCEECCEC120B1029
:10281200C8ECC8C9EDC9CAEECACBEFCB900508E037
:10282200FCA3E0FDA3E0FEA3E0FF120803E4FBFA31
:10283200F9F8120A9E708A900504E0FCA3E0FDA359
:10284200E0FEA3E0FF120BE4900504120F5D900579
:1028520004E0FCA3E0FDA3E0FEA3E0FF122DB49090
:102862000508E0F8A3E0F9A3E0FAA3E0FB1208F8F8
:102872001239CD900508120F5D90050DE030E0177A
:10288200900508E0FCA3E0FDA3E0FEA3E0FF120B2D
:10289200E4900508120F5D900508E0FCA3E0FDA39B
:0628A200E0FEA3E0FF22AE
:100B8000E9D2E7C933E833F892D5EDD2E7CD33ECBB
:070B900033FC5002B2D52234
:100B9700EC30E7100FBF000C0EBE00080DBD0004BF
:100BA7000BEB6014A2D5EB13FCED92E7FD2274FF6B
:100BB700FCFDFEFF22E480F8A2D574FF13FC7D80C4
:030BC700E480EFD8
:100BCA00ED33EC33601004700FED547F700574023E
:0A0BDA0092E0227404220422E422B7
:100BE400ED33EC33600A047003BD8004ECB2E7FC1F
:010BF40022DE
:1039950033DA929E35B16011377FE5FE392184898E
:1039A5003AAEC3FF3C1D955B3D6358473E75FDF040
:1039B5003F3172183F800000C2D5020BBF020BB524
:1039C500BD80FA50F3020BBCED33EC330460F17BA0
:1039D5003B7AAA79B8783F1208F8ED33EC3392D5E3
:1039E500247B5011A2D570DB500BED44802404508C
:1039F50004A2D580CEEFFBEEFAEDF9ECF8120B49F7
:103A0500EFF582F404FC120B15120807C0829039F9
:103A1500957409120C04ED33CC33D0F092D525F012
:0A3A2500A2D57001C313CC13FD22DB
:102D80003E9248DA3ECCCCCD3F2AAAAB40000000B0
:102D90003F8000003F9837F03FB504F33FD744FC35
:102DA0003E3172173EB172173F0515913EDE5BD979
:102DB000D20B8002C20BEDD2E7F8CD33EC330470B6
:102DC0000BBD800592D5020BBF020BB540FBD3149F
:102DD00060F2F5F07C3FEE7A00C39496C8948B4085
:102DE000230AC89469C8941A401A0AC89468C894F7
:102DF0001F40110AC8945AC89425400805F07A006B
:102E0000CDC2E7CDC0F0900596120F5DEA2323C036
:102E1000E02490F582E4342DF583120EE8120807C1
:102E2000ECC0E0EDC0E0EEC0E0EFC0E0120ECC90F0
:102E30000596120EDC120803D0E0FBD0E0FAD0E0D9
:102E4000F9D0E0B2E7F8120A01900596120F5D90F2
:102E50002D807403120BF5900596120EDC1208F803
:102E6000D0E0600F249CF582E4342DF583120EE847
:102E7000120807900596120F5DD0E0C3947FFDE421
:102E80009400FC120B107B187A727931783F12088B
:102E9000F8900596120EDC120807300B0B7BD97ADE
:092EA0005B79DE783E1208F8228D
:100BF500C0E0EFFBEEFAEDF9ECF81208F8D0E0F5FD
:100C0500F0EFFBEEFAEDF9ECF8120ECCA3A3A3A3DB
:100C1500E8C0E0E9C0E0EAC0E0EBC0E0C0F01208DF
:100C2500F8120EE8A3A3A3A3120807D0F0D0E0FBA7
:0D0C3500D0E0FAD0E0F9D0E0F8D5F0D422FC
:03000000023AC100
:0C3AC100787FE4F6D8FD758121023B08F7
:100C4200BB010689828A83E0225002E722BBFE02B0
:090C5200E32289828A83E49322E3
:100C5B00BB010CE58229F582E5833AF583E022504E
:100C6B0006E92582F8E622BBFE06E92582F8E22298
:0D0C7B00E58229F582E5833AF583E49322B2
:100C8800BB010689828A83F0225002F722BBFE014B
:020C9800F32245
:100C9A00F8BB010DE58229F582E5833AF583E8F090
:100CAA00225006E92582C8F622BBFE05E92582C83C
:020CBA00F22224
:100CBC00EF8DF0A4A8F0CF8CF0A428CE8DF0A42E4C
:020CCC00FE2206
:100CCE00BC000BBE0029EF8DF084FFADF022E4CC0A
:100CDE00F875F008EF2FFFEE33FEEC33FCEE9DECD3
:100CEE00984005FCEE9DFE0FD5F0E9E4CEFD22ED19
:100CFE00F8F5F0EE8420D21CFEADF075F008EF2F63
:100D0E00FFED33FD4007985006D5F0F222C398FD53
:050D1E000FD5F0EA22F0
:100D2300C5F0F8A3E028F0C5F0F8E582158270025B
:060D33001583E038F022F8
:100D3900BB0110E58229F582E5833AF583E0F5F0F8
:100D4900A3E0225009E92582F886F008E622BBFED5
:100D59000AE92582F8E2F5F008E222E5832AF5831B
:080D6900E993F5F0A3E99322E0
:100D7100E88FF0A4CC8BF0A42CFCE98EF0A42CFC21
:100D81008AF0EDA42CFCEA8EF0A4CDA8F08BF0A49F
:100D91002DCC3825F0FDE98FF0A42CCD35F0FCEBFE
:100DA1008EF0A4FEA9F0EB8FF0A4CFC5F02ECD39C3
:0F0DB100FEE43CFCEAA42DCE35F0FDE43CFC2230
:100DC00075F008758200EF2FFFEE33FECD33CDCCEA
:100DD00033CCC58233C5829BED9AEC99E58298406D
:100DE0000CF582EE9BFEED9AFDEC99FC0FD5F0D64A
:100DF000E4CEFBE4CDFAE4CCF9A88222B800C1B974
:100E00000059BA002DEC8BF084CFCECDFCE5F0CBB1
:100E1000F97818EF2FFFEE33FEED33FDEC33FCEBEA
:100E200033FB10D703994004EB99FB0FD8E5E4F9A5
:100E3000FA227818EF2FFFEE33FEED33FDEC33FC92
:100E4000C933C910D7059BE99A4007EC9BFCE99A86
:100E5000F90FD8E0E4C9FAE4CCFB2275F010EF2FCB
:100E6000FFEE33FEED33FDCC33CCC833C810D707CB
:100E70009BEC9AE899400AED9BFDEC9AFCE899F806
:0E0E80000FD5F0DAE4CDFBE4CCFAE4C8F92299
:10425000C2D5E830E70FB2D5E4C39BFBE49AFAE499
:1042600099F9E498F8EC30E717B2D5124286120DAE
:10427000FCE4C39BFBE49AFAE499F9E498F8800320
:10428000120DFC30D50DE4C39FFFE49EFEE49DFDBE
:04429000E49CFC228C
:0E0E8E00C3E49FFFE49EFEE49DFDE49CFC2275
:100E9C00EB9FF5F0EA9E42F0E99D42F0E89C45F0AC
:010EAC002223
:100EAD00E8600FECC313FCED13FDEE13FEEF13FF23
:030EBD00D8F12247
:0C0EC000E0FCA3E0FDA3E0FEA3E0FF22A5
:100ECC00E493FC740193FD740293FE740393FF226C
:0C0EDC00E0F8A3E0F9A3E0FAA3E0FB2299
:100EE800E493F8740193F9740293FA740393FB2260
:100EF800BB010DE58229F582E5833AF583020EDC14
:100F08005007E92582F8020F9ABBFE07E92582F807
:100F1800020FA7E58229F582E5833AF583020EE8F8
:100F28007401FF3395E0FEFDFCA3A3A3E0CF2FF0EF
:100F3800E582158270021583E0CE3EF0E5821582C7
:100F480070021583E0CD3DF0E582158270021583AD
:050F5800E0CC3CF0229A
:0C0F5D00ECF0A3EDF0A3EEF0A3EFF02207
:100F6900A8828583F0D083D082120F80120F80125D
:100F79000F80120F80E473E493A3C583C5F0C58382
:100F8900C8C582C8F0A3C583C5F0C583C8C582C8D2
:010F99002235
:103ACD00022705E493A3F8E493A34003F68001F2E3
:103ADD0008DFF48029E493A3F85407240CC8C333FA
:103AED00C4540F4420C8834004F456800146F6DFC9
:103AFD00E4800B010204081020408090371EE47E04
:103B0D00019360BCA3FF543F30E509541FFEE493BD
:103B1D00A360010ECF54C025E060A840B8E493A384
:103B2D00FAE493A3F8E493A3C8C582C8CAC583CAAF
:103B3D00F0A3C8C582C8CAC583CADFE9DEE780BE67
:0137BF000009
:0D0F9A00E6FB08E6F908E6FA08E6CBF822C7
:0D0FA700E2FB08E2F908E2FA08E2CBF822CA
:00000001FF
