:02475F00471001
:084710001242547F04023FEE47
:103B9D004E6F6B6961203535313020546573742C4F
:103BAD0020486168615E5F5E204920616D20736F02
:103BBD0020676C616420746F2073656520796F7563
:103BCD0020616769616E2120446F20796F752074C3
:093BDD0068696E6B20736F3F00F4
:05325F0042053A3B9D11
:103E89009004207440F0A37402F0A3120EAD9004C4
:103E9900277401F0E4A3F0A304F0A3F0E4A3F0A3D2
:0C3EA900F07B017A0479207F01020F20D9
:014761002235
:104254007F007EC27D017C00123E8912306E123EC8
:0E426400B51241D8E4FD7F0112435B024761B1
:014762002234
:014763002233
:014764002232
:014765002231
:014766002230
:03000B000225418A
:10253C00C2AF80FE3212254085D00B75D008AAE0C0
:10254C00C28CE58A2443F58AE58C34F6F58CD28C62
:10255C00EC2411F8E6BC000274FFC39581B414009E
:10256C0040CE7901780E16E608700BC2AFE630E16A
:10257C00034418F6D2AF08D9EDEA8BD0300701220C
:10258C00D50DFCC0E0C0D0C0F0C083C082C000C07C
:10259C0001C002C003C004C005C006C007E50C237F
:1025AC00240FF87440C2AF46F6D2AFD207E50CFF49
:1025BC0023240FF80F0808BF01047F00780FE630C2
:1025CC00E4F200E50CC39F5020050C7410250CF8A8
:1025DC00E6FDA68108E6AE0CBE000274FFCDF8E85D
:1025EC006D60E008E6C0E080F6E50CD39F4027E57F
:1025FC000C2411F8E6AE0CBE000274FFFD18E6CDFB
:10260C00F8E5816D6006D0E0F61880F5E50C241035
:10261C00C8F6150C80D3750D0AE50C23240FF87F32
:10262C0004C2AFE610E61E30E00310E20C7F00306F
:10263C00E10730E3047F0854F4547CC6D2AF5480D5
:10264C004207C20722F6D2AFD007D006D005D0047D
:10265C00D003D002D001D000D082D083D0F0D0D023
:0E266C00D0E0C207227810A68174006006FF3D
:10267A000876FFDFFB7F01E4780EF608F608DFFA3A
:10268A00780F763090475F740193C0E0E493C0E01E
:10269A00750D0A438901758A3C758CF6D28CD2AFC6
:0426AA00D2A922008F
:102A5500AB07EB75F039A42494F582E43402F583D1
:102A6500120EB900000000EB75F039A42498F58228
:102A7500E43402F583120EB900000000EB75F0395D
:102A8500A424ACF582E43402F583120EB9000000EB
:102A950000EB75F039A424A8F582E43402F583121D
:102AA5000EB900000000900495E0FCA3E0FDA3E052
:102AB500FEA3E0FFEB75F039A4249CF582E4340213
:102AC500F583120EAD900499E0FCA3E0FDA3E0FEB2
:102AD500A3E0FFEB75F039A424A0F582E43402F5F8
:102AE50083120EAD90049DE0FCA3E0FDA3E0FEA3E0
:102AF500E0FFEB75F039A424A4F582E43402F583F4
:102B0500120EADEB75F039A4249CF582E43402F580
:102B150083E0FCA3E0FDA3E0FEA3E0FFEB75F03945
:102B2500A424B4F582E43402F583120EADEB75F0FE
:102B350039A424A0F582E43402F583E0FCA3E0FD8A
:102B4500A3E0FEA3E0FFEB75F039A424B0F582E421
:102B55003402F583120EADEB75F039A424A4F58289
:102B6500E43402F583E0FCA3E0FDA3E0FEA3E0FF6F
:102B7500EB75F039A424B8F582E43402F583020E2E
:012B8500ADA2
:1045DE00EF75F039A424C4F582E43402F583740136
:0245EE00F022B9
:10462600EF75F039A424C4F582E43402F583E4F08E
:014636002261
:101E2B00900542EFF075F039A424C4F582E4340236
:101E3B00F583E07003022004900542E0FF75F03952
:101E4B00A42490F582E43402F583E0F8A3E0F9A32F
:101E5B00E0FAA3E0FBEF75F039A4248CF582E434AF
:101E6B0002F583E0FCA3E0FDA3E0FEA3E0FF120874
:101E7B0003900542E0FB75F039A42494F582E43419
:101E8B0002F583120EADEB75F039A424A8F582E4AC
:101E9B003402F583C083C082E0FCA3E0FDA3E0FE27
:101EAB00A3E0FF900542E075F039A42494F582E499
:101EBB003402F583E0F8A3E0F9A3E0FAA3E0FB1208
:101ECB000807D082D083120EAD900542E0FF75F06B
:101EDB0039A424A8F582E43402F583E0F8A3E0F9F1
:101EEB00A3E0FAA3E0FBEF75F039A424A0F582E49C
:101EFB003402F583E0FCA3E0FDA3E0FEA3E0FF12B8
:101F0B0008F8C004C005C006C007900542E0FF7585
:101F1B00F039A42494F582E43402F583E0F8A3E0CD
:101F2B00F9A3E0FAA3E0FBEF75F039A4249CF5824A
:101F3B00E43402F583E0FCA3E0FDA3E0FEA3E0FFA5
:101F4B001208F8D003D002D001D000120807C00449
:101F5B00C005C006C007900542E0FF75F039A42408
:101F6B0098F582E43402F583E0F8A3E0F9A3E0FAF4
:101F7B00A3E0FBEF75F039A42494F582E43402F569
:101F8B0083E0FCA3E0FDA3E0FEA3E0FF12080390B7
:101F9B000542E075F039A424A4F582E43402F583FC
:101FAB00E0F8A3E0F9A3E0FAA3E0FB1208F8D003F2
:101FBB00D002D001D000120807900542E0FB75F06B
:101FCB0039A424ACF582E43402F583120EADEB7523
:101FDB00F039A42494F582E43402F583E0FCA3E009
:101FEB00FDA3E0FEA3E0FFEB75F039A42498F58286
:0A1FFB00E43402F583120EADD32288
:10401000AB079004E6E0FCA3E0FDA3E0FEA3E0FF15
:10402000EB75F039A424C0F582E43402F583020E66
:01403000ADE2
:10403100AB079004EBE0FCA3E0FDA3E0FEA3E0FFEF
:10404100EB75F039A424BCF582E43402F583020E49
:01405100ADC1
:10405200AB079004F0E0FCA3E0FDA3E0FEA3E0FFC9
:10406200EB75F039A42490F582E43402F583020E54
:01407200ADA0
:10407300AB079004F5E0FCA3E0FDA3E0FEA3E0FFA3
:10408300EB75F039A424A0F582E43402F583020E23
:01409300AD7F
:10409400AB079004FAE0FCA3E0FDA3E0FEA3E0FF7D
:1040A400EB75F039A4249CF582E43402F583020E06
:0140B400AD5E
:1040B500AB079004FFE0FCA3E0FDA3E0FEA3E0FF57
:1040C500EB75F039A424A4F582E43402F583020EDD
:0140D500AD3D
:1040D600AB07900504E0FCA3E0FDA3E0FEA3E0FF30
:1040E600EB75F039A4248CF582E43402F583020ED4
:0140F600AD1C
:1043CB00EF75F039A4248CF582E43402F583E0FC1C
:0A43DB00A3E0FDA3E0FEA3E0FF2233
:1043E500EF75F039A42494F582E43402F583E0FCFA
:0A43F500A3E0FDA3E0FEA3E0FF2219
:1043FF00EF75F039A42498F582E43402F583E0FCDC
:0A440F00A3E0FDA3E0FEA3E0FF22FE
:10441900EF75F039A4249CF582E43402F583E0FCBD
:0A442900A3E0FDA3E0FEA3E0FF22E4
:10443300EF75F039A424A0F582E43402F583E0FC9F
:0A444300A3E0FDA3E0FEA3E0FF22CA
:10444D00EF75F039A424A4F582E43402F583E0FC81
:0A445D00A3E0FDA3E0FEA3E0FF22B0
:10446700EF75F039A424ACF582E43402F583E0FC5F
:0A447700A3E0FDA3E0FEA3E0FF2296
:10448100EF75F039A424A8F582E43402F583E0FC49
:0A449100A3E0FDA3E0FEA3E0FF227C
:0527EB00900487EDF0F1
:1027F000E490048EF0A3F090048AE0FFA3E090043C
:1028000090CFF0A3EFF0900488E0FFA3E090049253
:10281000CFF0A3EFF0E490048CF0A3F0900487E0F5
:10282000FF90048CE0FCA3E0FDC39F7480F8EC648F
:10283000809840030228E5ED25E0FFEC338F82F518
:1028400083120CC1FFC3900491E09F900490E09527
:10285000F0501D90048DE025E0FF90048CE0338F54
:1028600082F583120CC1FF900490E5F0F0A3EFF025
:1028700090048DE025E0FF90048CE0338F82F58397
:10288000120CC1FFD3900493E09F900492E095F066
:10289000401D90048DE025E0FF90048CE0338F8292
:1028A000F583120CC1FF900492E5F0F0A3EFF090D5
:1028B000048DE025E0FF90048CE0338F82F58312D5
:1028C0000CC1FFAEF090048FE02FF090048EE03E3C
:1028D000F090048DE004F0600302281C90048CE06A
:1028E00004F002281C900492E0FEA3E0FF90049103
:1028F000E02FFF900490E03EFEC390048FE09FFF26
:1029000090048EE09EFEF0A3EFF0900487E024FE9A
:10291000FDE434FFFC120C5690048EEEF0A3EFF0B1
:012920002294
:10326400602A038400000000000000000000000049
:10327400000000000000000000000000000000004A
:0E32840000000000000000000000000000003C
:102FC4009004A8EBF0A3EAF0A3E9F0900003120B3D
:102FD400E3FF9004A4E0FBA3E0FAA3E0F9A3E0FE7E
:102FE400F582758300EF120C229004A8E0FBA3E0A5
:102FF400FAA3E0F9900002120BE3FFEE2401FDE4D2
:1030040033FC9004A4E0FBA3E0FAA3E0F98D828CE6
:1030140083EF120C229004A8E0FBA3E0FAA3E0F9EA
:10302400900001120BE3FFEE2402FDE433FC900454
:10303400A4E0FBA3E0FAA3E0F98D828C83EF120CE9
:10304400229004A8E0FBA3E0FAA3E0F9120BCAFF64
:10305400EE2403FDE433FC9004A4E0FBA3E0FAA314
:0A306400E0F98D828C83EF020C224C
:103DF2009004DDE090050CF0122921E49004DEF03D
:103E02009004DDE0FF1231179004DEE0FEC39F5004
:103E12001774842EF582E43403F583E0FF123F7DAC
:083E22009004DEE004F080D8FA
:013E2A002275
:10292100900508120EAD90050CE0FFD3940A400308
:10293100022A54EF7003022A54EF14B40A00400330
:10294100022A5490295275F003A4C58325F0C5834A
:102951007302297002298602299D0229B40229CB1A
:102961000229E10229F7022A0D022A23022A3990BB
:1029710004A47401F0A37403F0A37484F0A374019C
:10298100F0FB022A4D9004A47401F0A37403F0A398
:102991007484F0A37405F07B01022A4D9004A474A1
:1029A10001F0A37403F0A37484F0A37409F07B0114
:1029B100022A4D9004A47401F0A37403F0A374845B
:1029C100F0A3740DF07B01022A4D9004A47401F070
:1029D100A37403F0A37484F0A37411F07B01806CE1
:1029E1009004A47401F0A37403F0A37484F0A3749D
:1029F10015F07B0180569004A47401F0A37403F0D8
:102A0100A37484F0A37419F07B0180409004A47432
:102A110001F0A37403F0A37484F0A3741DF07B018F
:102A2100802A9004A47401F0A37403F0A37484F0C9
:102A3100A37421F07B0180149004A47401F0A374A9
:102A410003F0A37484F0A37425F07B017A0579085F
:042A5100122FC4225A
:10311700EFD3940A5003EF70037F00229003847467
:1031270024F0EF14B40A0040030231B9903141751D
:10313700F003A4C58325F0C5837302315F023168AC
:1031470002317102317A02318302318C02319502E8
:10315700319E0231A70231B09003897405F07F06D2
:103167002290038D7409F07F0A22900391740DF069
:103177007F0E229003957411F07F122290039974A9
:1031870015F07F162290039D7419F07F1A22900381
:10319700A1741DF07F1E229003A57421F07F2222C7
:1031A7009003A97425F07F26229003AD7429F07F40
:0531B7002A227F002226
:1045F00090050DEEF0A3EFF0A3EBF0A3EAF0A3E932
:02460000F022A6
:08329200C100C101C102C1032A
:1041D8009004217478F0E4900420F07B017A04794B
:0E41E800207F021221D9D2A3D2A4D2A5D2A642
:0141F60022A6
:0A46E000EF4E7005EE4F24FFB322E9
:1042AE00EF24F0600F24F0600E24E0600D243870CF
:0D42BE000BA20022A20122A20222A20322D2
:103A5400A2A3E4FE33FF1246E0500EA2A3E433FF18
:103A64001246E05006D2008002C200A2A4E4FE3353
:103A7400FF1246E05007200106D2018002C201A2D3
:103A8400A5E4FE33FF1246E05007200206D202806E
:103A940002C202A2A6E4FE33FF1246E0500620034F
:073AA40005D20322C2032238
:02329A00C10869
:103EB5009004217405F0E4900420F07B017A0479E4
:103EC500207F051221D912474B7FC812468B124716
:073ED500507FC812468BD399
:013EDC0022C3
:05474B00C2CDD20822DE
:05475000D2CDC20822D9
:103FEE00900420EFF0900420E0FF14F0EF60121226
:103FFE00474B7FC812468B1247507FC812468B80A4
:02400E00E422AA
:03475900A2082291
:06472D00900543EFF022AD
:10343900900512EFF07F337E337D737C3FA3E0F874
:10344900A3E0F9A3E0FAA3E0FB120A9E600C400A8C
:10345900900513120EB93F7333337FCD7ECC7D4C6B
:103469007C3D900513E0F8A3E0F9A3E0FAA3E0FBA3
:10347900120A9E500A900513120EB93D4CCCCD90FC
:103489000512E02404FFC007A3E0FCA3E0FDA3E0CC
:10349900FEA3E0FF900522120EADD007122C9C90DE
:1034A9000513E0FCA3E0FDA3E0FEA3E0FF120B4936
:1034B900900512E025E02427F582E43405F583EF31
:0234C900F022EF
:10427200900544EFF02404FF123EDD900544E02552
:0E428200E02426F582E43405F5837401F02271
:1042CB00900545EFF02404FF123FA4900545E0252F
:0D42DB00E02426F582E43405F583E4F022AA
:10467B00EF25E02426F582E43405F583E024FF22C0
:10386900E4900460F0A37408F07B017A0479607F26
:10387900021221D99004617404F07B017A04796001
:103889007F021221D9D2A2D2A343BA80E490046262
:10389900F0A3F0A3F0A304F0E4A3F0A3F0A3F0A332
:1038A900F0A3F0A3F0A3F0A3F0A3F0A3F0A3F0A377
:1038B900F07B017A0479627F021216007B017A0497
:0A38C90079627F0312160053BA7FE4
:0138D30022D2
:052005009003AEEFF0B6
:10200A00E49003BDF0A37480F07B017A0379BD7F6D
:10201A00031221D9D2B743BA80E49003BFF0A3F0E8
:10202A00A3F0A304F0E4A3F0A3F0A3F0A3F0A3F0B9
:10203A00A3F0A3740FF0E4A3F0A3F0A3F0A3F0A31A
:10204A00F09003AEE0FF7B017A0379BF12160053CA
:10205A00BA7F9003AEE0FF7D101246599003AEE0BE
:10206A00FF7D327C0012393D9003AFE0FCA3E0FD16
:10207A00A3E0FEA3E0FF9003AEE0FB75F025A424E5
:10208A0003F582E43403F583120EAD9003B3E0FC4A
:10209A00A3E0FDA3E0FEA3E0FFEB75F025A424076F
:1020AA00F582E43403F583120EAD9003B7E0FCA386
:1020BA00E0FDA3E0FEA3E0FFEB75F025A42415F5EF
:1020CA0082E43403F583120EAD9003BBE0FEA3E075
:1020DA00FFEB75F025A4240FF582E43403F583EEB3
:1020EA00F0A3EFF0EB75F025A42403F582E43403A2
:1020FA00F583E0F8A3E0F9A3E0FAA3E0FB9003AECE
:10210A00E075F025A42407F582E43403F583E0FCA6
:10211A00A3E0FDA3E0FEA3E0FF120803C004C0058C
:10212A00C006C0079003AEE075F025A4240FF5821F
:10213A00E43403F583E0FCA3E0FDE4120B10A804E9
:10214A00A905AA06AB07D007D006D005D004120A03
:10215A00019003AEE0FB75F025A4240BF582E4346C
:10216A0003F583120EADEB75F025A4240FF582E476
:10217A003403F583E0FCA3E0FDE4120B10A804A9E4
:10218A0005AA06AB079003AEE075F025A42415F561
:10219A0082E43403F583E0FCA3E0FDA3E0FEA3E0C0
:1021AA00FF120A019003AEE0FB75F025A42419F58D
:1021BA0082E43403F583120EADEB75F025A42411E5
:0E21CA00F582E43403F583120EB90000000024
:0121D80022E4
:052B86009004ABEFF02C
:102B8B00A3E0FCA3E0FDA3E0FEA3E0FF9004ABE019
:102B9B00FB75F025A424FEF582E43402F583120EB6
:102BAB00ADEB75F025A42419F582E43403F583E02D
:102BBB00F8A3E0F9A3E0FAA3E0FB9004ACE0FCA3DC
:102BCB00E0FDA3E0FEA3E0FF120A019004ABE07569
:102BDB00F025A4240BF582E43403F583E0F8A3E09D
:102BEB00F9A3E0FAA3E0FB1208F89004ABE075F050
:102BFB0025A42403F582E43403F583E0F8A3E0F97C
:102C0B00A3E0FAA3E0FB1208079004ABE0FB75F01E
:102C1B0025A4241FF582E43403F583120EADEB7566
:102C2B00F025A4241FF582E43403F583E0FCA3E034
:102C3B00FDA3E0FEA3E0FFE4FBFA79A07841120AC2
:102C4B00019004B0120EAD9004B0E0FCA3E0FDA324
:102C5B00E0FEA3E0FF900522120EAD9004ABE0FF67
:102C6B00122C9C9004ABE0FB75F025A424FEF5829E
:102C7B00E43402F583E0FCA3E0FDA3E0FEA3E0FF58
:102C8B00EB75F025A42411F582E43403F583020ED1
:012C9B00AD8B
:10449B00EF75F025A42411F582E43403F583E0FCD9
:0A44AB00A3E0FDA3E0FEA3E0FF2262
:10411800900546EFF0123EDD900546E075F025A4C7
:10412800241DF582E43403F583E4F0A304F0D322DC
:1041F700900547EFF0123FA4900547E075F025A41E
:0F420700241DF582E43403F583E4F0A3F0D32201
:103301009004DFEFF075F00EA424F9F582E43403A4
:10331100F583E0FEA3E0FF7C007D63120C56EF24F1
:1033210001FFE43EFE9004E4E0FD7C00120C44AA9F
:1033310006AB079004DFE075F00EA424F9F582E4F2
:103341003403F583E0FEA3E0FF7D63120C56C3EB6B
:103351009FFDEA9EFCC004C0059003F8E0FCE41266
:103361000B159004E0E0F8A3E0F9A3E0FAA3E0FB79
:103371001208F89003F4E0F8A3E0F9A3E0FAA3E05F
:10338100FB120A01120B49E4FCFD9004C7120EADB9
:0E3391009004DFE0FFD005D0041239FCD322F7
:103E2B00900548EBF0C007AE04AF057C017D68122E
:103E3B000C44AC06AD07E4120B109004E0120EAD6F
:0F3E4B00900548E09004E4F0D007123301D32231
:10463700EF75F00EA424F0F582E43403F583E0FF70
:014647002250
:07471800900549EFF0D322E8
:10433F0090054AEFF012417890054AE075F00EA40F
:0C434F0024F0F582E43403F583E4F0224E
:1042E80090054BEFF012415890054BE075F00EA485
:0D42F80024F0F582E43403F5837401F02214
:07471F0090054CEFF0D322DE
:0747260090054DEFF0D322D6
:103AAB00AB079004B5E0FCA3E0FDA3E0FEA3E0FFB1
:103ABB00EB75F00EA424F4F582E43403F583120EB7
:103ACB00AD9004B9E0FFEB75F00EA424F8F582E499
:103ADB003403F583EFF09004BAE0FEA3E0FFEB753F
:103AEB00F00EA424F9F582E43403F583EEF0A3EF92
:043AFB00F00238D4C9
:0F469B00742E2FF582E43405F5837401F0D322D9
:0E46AA00742E2FF582E43405F583E4F0D3225C
:01476700222F
:10435B00900420EFF0A3EDF0A37401F0E4A3F0A31D
:0C436B00F0A3F07B017A047920023AFFF5
:1037EF00E490044AF0300963F0E4FF12399E90042C
:1037FF004AE025E02436F582E43404F583EEF0A3A5
:10380F00EFF090044AE004F0E0C3940A40DB7B0140
:10381F007A0479369004887404F0A3E4F0A3F0A33B
:10382F00F07D0A1227EBAC06AD07E4120B109004E3
:10383F00BC120EAD9004BCE0FCA3E0FDA3E0FEA320
:10384F00E0FFA3120EAD9004BC80039004C0E0FC17
:09385F00A3E0FDA3E0FEA3E0FFDD
:01386800223D
:1043770090054EEFF0D2C87F0112468B90054EE0B4
:0C438700F5C0D2CA7F0112468BC2CA22C8
:103E5A00900531EBF0A3EAF0A3E9F0900531E0FB1D
:103E6A00A3E0FAA3E0F9120BCAFFD39400400F12A1
:0F3E7A004377900532E475F001120CAB80DD2226
:10430500124290D2CCC2CAC2C97F381243937F0CE5
:0D4315001243937F061243937F01024393EE
:1043930090054FEFF0C2C87F0112468BD2CA900539
:0C43A3004FE0F5C07F0112468BC2CA2219
:1042900053C9EF43CA1053C9FE53CAFE53C9FD5355
:0E42A000CAFD53C9FB53CAFBE4F5B3F5B422C3
:08451D0090052AECF0A3EDF07B
:10452500E4A3F0A3EFF07B017A05792CE4FF0221E7
:01453500D9AC
:05464800900550EFF0A9
:0B464D00E4FF00000FEFB408F90000CC
:01465800223F
:10199A000000000000000000004F000000000700E7
:1019AA00070000147F147F1400242A7F2A120023C0
:1019BA0013086462003649552250000005030000EE
:1019CA0000001C224100000041221C000014083EB5
:1019DA0008140008083E08080000503000000008FB
:1019EA0008080808000060600000002010080402CF
:1019FA00003E5149453E0000427F4000004261518D
:101A0A004946002141454B31001814127F10002726
:101A1A0045454539003C4A494930000171090503E9
:101A2A0000364949493600064949291E000036361A
:101A3A00000000005636000000081422410000147D
:101A4A00141414140000412214080002015109065A
:101A5A0000324979413E007E1111117E007F4949C9
:101A6A00493E003E41414122007F4141221C007F04
:101A7A0049494941007F09090901003E4149497A1A
:101A8A00007F0808087F0000417F41000020404194
:101A9A003F01007F08142241007F40404040007F00
:101AAA000204027F007F0408107F003E4141413E4C
:101ABA00007F09090906003E4151215E007F09198C
:101ACA0029460046494949310001017F0101003F89
:101ADA004040403F001F2040201F003F4038403F09
:101AEA000063140814630003047804030061514975
:101AFA00454300007F4141000015167C1615000081
:101B0A0041417F000004020102040040404040407D
:101B1A00000001020400002054545478007F484415
:101B2A00443800384444442000384444487F00384C
:101B3A005454541800087E090102000C5252523EB5
:101B4A00007F080404780000447D400000204044DF
:101B5A003D00007F102844000000417F4000007EC5
:101B6A00020C027C007E0402027C003844444438A1
:101B7A00007C1414140800081414187C007C08044F
:101B8A00040800485454542000043F444020003CB8
:101B9A004040207C001C2040201C003C4030403C3F
:101BAA00004428102844000C5050503C004464540F
:101BBA004C440000083641000000007F000000008D
:101BCA00413608000008040810080008082A1C0802
:101BDA0000081C2A08080004027F02040010207F63
:0E1BEA002010001C2A322A1C001C2244221C3F
:10413800C2CBED24FF92CA7E08EF30E704D2C980D3
:0F41480002C2C9C2C8EF25E0FFD2C8DEECD2CB5D
:014157002245
:1040F700E4FD7F801241387F401241387BF87A0116
:104107007D01E4FF124138EB1B70011AEB4A70F096
:014117002285
:10459200AD07E4FF12457E7C547D01E4FF124138F1
:0245A200DCF744
:0145A40022F4
:10457E00AC05EF4480FFEC4440FCE4FD124138AF43
:04458E0004024138AA
:073D7A00E0FF04F0A3E0FDEF
:103D810074E02BFBEF75F006A4FF12457EE4FC7591
:103D9100F006EBA4249AF582E5F03419F583E58267
:103DA1002CF582E43583F583E493FF7D01124138DC
:053DB1000CECB406DA81
:013DB60022EA
:103DB700900517EFF0A3EDF0A3EBF0A3EAF0A3E96A
:103DC700F0900519E0FBA3E0FAA3E0F9120BCAFB98
:103DD7006018900517E0C3940E500F123D7A9005B6
:0B3DE7001AE475F001120CAB80D7222B
:103B520090051CEFF0A3EDF0A3EBF0A3EAF0A3E9CC
:103B6200F090051EE0FBA3E0FAA3E0F9120BCAFBFA
:103B7200602890051C123D7A90051FE475F0011231
:103B82000CAB90051CE0B40E06E4F0A3E004F09048
:0B3B9200051DE0B406CBE4F080C72264
:103CB900E490053CF0A304F0FB7A05793C7F0512FA
:103CC90021D9C2CCD2CCE4FD7F211241387F061222
:103CD90041387F131241387FC81241387F20124181
:103CE900387F0C1241387F401241387F80124138A9
:033CF9000240F78F
:10329C004403E3000000004403DF0000000044038B
:1032AC00DB000000004403D7000000004403D300FF
:0A32BC000000004403CF00000000F2
:1039FC009004C4EFF0A3ECF0A3EDF09004C5E0FC50
:103A0C00A3E0FD7F0512393D9004C5E0FEA3E0FF65
:103A1C009004C4E0FB75F007A424EBF582E43403B6
:103A2C00F583EEF0A3EFF09004C7E0FCA3E0FDA358
:103A3C00E0FEA3E0FFEB75F007A424E7F582E43485
:083A4C0003F583120EADD32235
:10415800900551EFF07F05123EDD900551E075F0B6
:1041680007A424EDF582E43403F5837401F0D32227
:10417800900552EFF02405FF123FA4900552E07518
:10418800F007A424EDF582E43403F583E4F0D322A8
:10460200EF75F007A424EDF582E43403F583E0248A
:02461200FF2285
:1038D400E4900472F0A37480F07B017A0479727F1F
:1038E400011221D9D297900522120EB93F0000008F
:1038F4007F05122C9C43BA80E4900474F0A3F0A3D7
:10390400F0A304F0E4A3F0A3F0A3F0A3F0A3F0A3C6
:10391400F0A3740FF0E4A3F0A304F0E4A3F0A30471
:10392400F0E4A3F07B017A0479747F051216005346
:09393400BA7F7D107F050246599F
:0300B300022DAB70
:102DAB00C0E0C0F0C083C082C0D075D000C000C0EE
:102DBB0001C002C003C004C005C006C007E5F66031
:102DCB002B53F6DF9003E3120E789003E7E0F8A3A2
:102DDB00E0F9A3E0FAA3E0FBD3120E2450619003B9
:102DEB00E7120EB9000000007F05802DE5F6602E7E
:102DFB0053F6EF9003DF120E789003EEE0F8A3E0AA
:102E0B00F9A3E0FAA3E0FBD3120E2450329003EEA9
:102E1B00120EB9000000007F04123FA48021E5F6DA
:102E2B00600553F6F78018E5F6600553F6FB800F47
:102E3B00E5F6640160028004E5F6600353F6FDD00D
:102E4B0007D006D005D004D003D002D001D000D0DB
:0A2E5B00D0D082D083D0F0D0E03256
:103AFF00120BCAF59D900001120BE3FFE5BC549F1A
:103B0F004FF5BC900002120BE3B4010543BC80805B
:103B1F000353BC7F900003120BE3B40105439720BE
:103B2F0080035397DF900005120BE3B40104D2AD6D
:103B3F008002C2AD900004120BE3B40103D2BD2288
:033B4F00C2BD22D2
:0C46D400EFB4010443BC802253BC7F22E1
:10399E00EFD3940740028051E4F5BDF5BEE5BC546B
:1039AE00E044084FF5BC00000000E4FBE5BC30E449
:1039BE003353BCEFE59730E509E5BD5403ADBEFCCE
:1039CE00801DAFBD7C00AD07ED7E007802C333CE07
:1039DE0033CED8F9FFE5BE5403FDEEFCEF4DFDAF3F
:0D39EE0005AE04220BEBB4FAC37E047F008B
:0139FB0022A9
:03002B0002475534
:0447550053BCEF3230
:0F468B007D367C07ED1D70011C144C70F7DFF1BC
:01469A0022FD
:03475C00A20A228C
:1021D900EFD3940540037F0122120BCAFED3940367
:1021E90040037F0222EF7041EE700B900001120B49
:1021F900E3F452935294120BCAB4010B90000112EA
:102209000BE34293F45294120BCAFEB4020A9000F3
:1022190001120BE342934294EEB4030D90000112B4
:102229000BE3FEF45293EE4294EF64017043120BF8
:10223900CAFE700B900001120BE3F452915292EE18
:10224900B4010B900001120BE34291F45292120B6C
:10225900CAB4020A900001120BE342914292120B96
:10226900CAB4030D900001120BE3FEF45291EE4241
:1022790092EF64027043120BCAFE700B90000112B8
:102289000BE3F452955296EEB4010B900001120B38
:10229900E34295F45296120BCAB4020A9000011255
:1022A9000BE342954296120BCAB4030D900001123A
:1022B9000BE3FEF45295EE4296EF64037043120B62
:1022C900CAFE700B900001120BE3F452B152B2EE48
:1022D900B4010B900001120BE342B1F452B2120B9C
:1022E900CAB4020A900001120BE342B142B2120BC6
:1022F900CAB4030D900001120BE3FEF452B1EE4291
:10230900B2EF64047043120BCAFE700B9000011205
:102319000BE3F452B352B4EEB4010B900001120B6B
:10232900E342B3F452B4120BCAB4020A9000011288
:102339000BE342B342B4120BCAB4030D900001126D
:102349000BE3FEF452B3EE42B4EF64057043120B93
:10235900CAFF700B900001120BE3F452C952CAEF85
:10236900B4010B900001120BE342C9F452CA120BDB
:10237900CAB4020A900001120BE342C942CA120B05
:10238900CAB4030D900001120BE3FFF452C9EF42E6
:04239900CA7F0022D5
:102F1600EF7034D3ED9498EC940340047C037D98D1
:102F2600C3ED9450EC940050047C007D50C2DE90BA
:102F36000454ECF0A3EDF0C374E89D90044FF074D4
:102F4600039C90044E8073EF64017034D3ED946853
:102F5600EC940B40047C0B7D68C3ED9450EC94001C
:102F660050047C007D50C2DE900456ECF0A3EDF0D8
:102F7600C374B89D900451F0740B9C900450803A31
:102F8600EF64027038D3ED9480EC940740047C071C
:102F96007D80C3ED9450EC940050047C007D50C2BB
:102FA600DE900458ECF0A3EDF0AE04FFC374D09F9E
:0E2FB600900453F074079E900452F0D2DE2275
:10239D00900534EBF0A3EAF0A3E9F0AD07EDD3948B
:1023AD0003400302253BED6403704CC2DEF5F9F5E5
:1023BD00E9900534E0FBA3E0FAA3E0F9120BCAFFA4
:1023CD00E5A254CF4FF5A2900001120BE3FFE5D922
:1023DD0054F14FF5D9900004120BE35401FFE5D9E8
:1023ED0054FE4FF5D9900005120BE3B40104D2BF92
:1023FD008002C2BFD2DE22900534E0FBA3E0FAA337
:10240D00E02404F9E43AFA120BCA5431120C10907C
:10241D000534E0FBA3E0FAA3E0F9900002120BE310
:10242D00C39448400FE92404F9E43AFA120BCA5454
:10243D00CF120C10ED704F900534E0FBA3E0FAA322
:10244D00E0F9900004120BE3FF900002120BE3FE83
:10245D004FF5DA900003120BE3FFE5F2543F4FF511
:10246D00F2900006120CC1FBAAF0900454EAF0A3FE
:10247D00EBF0C20490044BEEF090045AEAF0A3EB9B
:10248D00F0F5EAEAF5FAED6401704F900534E0FBE2
:10249D00A3E0FAA3E0F9900004120BE3FF90000211
:1024AD00120BE3FE4FF5DB900003120BE3FFE5F398
:1024BD00543F4FF5F3900006120CC1FBAAF09004A7
:1024CD0056EAF0A3EBF0C20590044CEEF090045CDC
:1024DD00EAF0A3EBF0F5EBEAF5FBED6402704F903B
:1024ED000534E0FBA3E0FAA3E0F9900004120BE33E
:1024FD00FF900002120BE3FE4FF5DC900003120B70
:10250D00E3FFE5F4543F4FF5F4900006120CC1FDC6
:10251D00ACF0900458ECF0A3EDF0C20690044DEE33
:0F252D00F090045EECF0A3EDF0F5ECECF5FC2281
:1026AE00900538ECF0A3EDF0900537EFF0705ED3A7
:1026BE00EB9464EA940040047A007B64C3EB9401CB
:1026CE00EA940050047A007B01C2DE900538E0FEE9
:1026DE00A3E0FFAD03AC02120C447C007D64120C2F
:1026EE0056900454EEF0A3EFF07C007D64AF03AE81
:1026FE0002120C56C374019FFFE49EFE900538E053
:10270E00FCA3E0FD120C4490044E0227E390053723
:10271E00E06401705DD3EB9464EA940040047A00A7
:10272E007B64C3EB9401EA940050047A007B01C2EF
:10273E00DE7C007D64AF03AE02120C56900538E0CD
:10274E00FCA3E0FD120C44900456EEF0A3EFF07CD7
:10275E00007D64AF03AE02120C56C374019FFFE4FA
:10276E009EFE900538E0FCA3E0FD120C4490045050
:10277E008063900537E064027062D3EB9464EA9450
:10278E000040047A007B64C3EB9401EA9400500489
:10279E007A007B01C2DE7C007D64AF03AE02120CB8
:1027AE0056900538E0FCA3E0FD120C44900458EE60
:1027BE00F0A3EFF0AE02AF037C007D64120C56C3A3
:1027CE0074019FFFE49EFE900538E0FCA3E0FD122D
:0D27DE000C44900452EEF0A3EFF0D2DE2286
:03003B000231BCD3
:1031BC00C0E0C083C082C0D075D000C006C007304C
:1031CC00D82AC2D830A505900454800390044EE050
:1031DC00FEA3E0FF90045BE02FF090045AE03EF079
:1031EC0090045AE0FEA3E0F5EAEEF5FA30D92AC2D3
:1031FC00D930A6059004568003900450E0FEA3E05D
:10320C00FF90045DE02FF090045CE03EF090045CD5
:10321C00E0FEA3E0F5EBEEF5FB30DA2AC2DA30A7DC
:10322C00059004588003900452E0FEA3E0FF900444
:10323C005FE02FF090045EE03EF090045EE0FEA3B1
:10324C00E0F5ECEEF5FCD007D006D0D0D082D083E0
:03325C00D0E0328D
:0516000090053EEFF033
:10160500E4A3F090053FE0FFC39406505AEF75F050
:101615000AA42448F582E43403F583120EB90000C8
:10162500000090053FE0FF75F00AA4244CF582E424
:101635003403F583E4F0EF75F00AA4244DF582E454
:101645003403F583120EB90000000090053FE075E4
:10165500F00AA42451F582E43403F5837401F09073
:10166500053FE004F0809C43BA80120BCAB4010523
:1016750043F180800353F17F900001120BE3B40125
:101685001490053EE0FF7401A807088002C333D813
:10169500FC42F1801390053EE0FF7401A807088025
:1016A50002C333D8FCF452F1900002120BE3B401EB
:1016B5000543F540800353F5BF900003120BE3B4D7
:1016C500011490053EE0FF7401A807088002C333AA
:1016D500D8FC42F5801390053EE0FF7401A8070889
:1016E5008002C333D8FCF452F5900004120BE3B426
:1016F500010575F720800353F7DF900005120BE312
:10170500B4010575F710800353F7EF900006120B2F
:10171500E3B4010575F708800353F7F79000071246
:101725000BE3B4010575F704800353F7FB9000083C
:10173500120BE3B4010575F702800353F7FD900022
:1017450009120BE390FFF27006E054EFF08004E01D
:101755004410F090FFF2C083C082E0FF90000A12AF
:101765000BE3FEEF4ED082D083F090053EE014608F
:101775007214700302183B14700302188E14700360
:101785000218E11470030219322405600302198955
:1017950090000B120BE390FF047006E054F7F08005
:1017A50004E04408F090000C120BE390FF04B40130
:1017B50006E04404F08004E054FBF090000D120BA9
:1017C500E390FF04B40106E04402F08004E054FD18
:1017D500F090000E120BE390FF04B4010302197F91
:1017E50002198590000B120BE390FF147006E0546C
:1017F500F7F08004E04408F090000C120BE390FF32
:1018050014B40106E04404F08004E054FBF09000B9
:101815000D120BE390FF14B40106E04402F08004BE
:10182500E054FDF090000E120BE390FF14B4010399
:1018350002197F02198590000B120BE390FF2470AB
:1018450006E054F7F08004E04408F090000C120B19
:10185500E390FF24B40106E04404F08004E054FB67
:10186500F090000D120BE390FF24B40106E0440252
:10187500F08004E054FDF090000E120BE390FF247D
:10188500B4010302197F02198590000B120BE39036
:10189500FF347006E054F7F08004E04408F090004F
:1018A5000C120BE390FF34B40106E04404F080040D
:1018B500E054FBF090000D120BE390FF34B40106E9
:1018C500E04402F08004E054FDF090000E120BE3BA
:1018D50090FF34B4010302197F02198590000B12A1
:1018E5000BE390FF447006E054F7F08004E04408F1
:1018F500F090000C120BE390FF44B40106E04404A1
:10190500F08004E054FBF090000D120BE390FF44CF
:10191500B40106E04402F08004E054FDF090000EAE
:10192500120BE390FF44B40102804F805390000BEB
:10193500120BE390FF547006E054F7F08004E04486
:1019450008F090000C120BE390FF54B40106E0443C
:1019550004F08004E054FBF090000D120BE390FFBF
:1019650054B40106E04402F08004E054FDF0900018
:101975000E120BE390FF54B40106E04401F080041D
:10198500E054FEF090000F120BE3B4010443F58020
:041995002253F57F65
:01199900222B
:1044B500EF75F00AA42448F582E43403F583E0FCA3
:0A44C500A3E0FDA3E0FEA3E0FF2248
:1044CF00EF75F00AA4244DF582E43403F583E0FC84
:0A44DF00A3E0FDA3E0FEA3E0FF222E
:10393D00900540ECF0A3EDF0AB07900540E0FEA341
:10394D00E0FFE4FCFDEB75F00AA42448F582E434B5
:10395D0003F583120EAD43BA8053F57FEB75F00A74
:10396D00A42451F582E43403F583E0FF7E00900535
:10397D0040E0FCA3E0FD120C44AB07AA06E4F9F805
:10398D00FF7E367D6E7C01123C7512454F53BA7F1A
:01399D002207
:102C9C00900521EFF07F337E337D737C3FA3E0F80A
:102CAC00A3E0F9A3E0FAA3E0FB120A9E600C400A31
:102CBC00900522120EB93F7333337FCD7ECC7DCC81
:102CCC007C3C900522E0F8A3E0F9A3E0FAA3E0FB3A
:102CDC00120A9E500A900522120EB93CCCCCCD9013
:102CEC000522E0FCA3E0FDA3E0FEA3E0FF9005219C
:102CFC00E0FB75F00AA4244DF582E43403F583124D
:102D0C000EAD43BA80EB75F00AA42451F582E4347D
:102D1C0003F583E0FFE4FCFDFEEB75F00AA4244808
:102D2C00F582E43403F583E0F8A3E0F9A3E0FAA319
:102D3C00E0FB120CF9A804A905AA06AB077F007EDC
:102D4C00367D6E7C01120D84E4120B0B900521E094
:102D5C0075F00AA4244DF582E43403F583E0F8A35E
:102D6C00E0F9A3E0FAA3E0FB1208F8E4FBFA7920FF
:102D7C0078411208F8E4FBFA79A07840120807E4CD
:102D8C00FBFA79207841120A01120B49AB07AA060B
:0F2D9C00900521E0FFE4FDFC12339F53BA7F2224
:10465900EF75F00AA42451F582E43403F583EDF0F3
:01466900222E
:10466A00EF75F00AA42451F582E43403F583E0FFE0
:01467A00221D
:0A46EA0043BA8043F58053BA7F22E3
:0A46F40043BA8053F57F53BA7F22CA
:103EDD0043BA807401A807088002C333D8FC42F5A9
:103EED00EF75F00AA4244CF582E43403F5837401D4
:083EFD00F043F58053BA7F2267
:103FA40043BA807401A807088002C333D8FCF452D2
:103FB400F5EF75F00AA4244CF582E43403F583E4A8
:053FC400F053BA7F225A
:10461400EF75F00AA4244CF582E43403F583E02416
:02462400FF2273
:10454F00D3E49F74809E400D90FFF1EFF0EE90FF4B
:08455F00F0F07F00227F012231
:10339F00EF14602814603A14604C14605E1460706F
:1033AF002405600302343690FF01EDF0EC90FF002E
:1033BF00F090FF03EBF0EA90FF02806790FF11EDB2
:1033CF00F0EC90FF10F090FF13EBF0EA90FF1280FB
:1033DF005290FF21EDF0EC90FF20F090FF23EBF0E7
:1033EF00EA90FF22803D90FF31EDF0EC90FF30F03E
:1033FF0090FF33EBF0EA90FF32802890FF41EDF021
:10340F00EC90FF40F090FF43EBF0EA90FF42801307
:10341F0090FF51EDF0EC90FF50F090FF53EBF0EA7E
:0A342F0090FF52F07F00227F01227F
:102E650054696D65723120696E697469616C697A3E
:102E7500696E672073756363656564200A0054692C
:102E85006D65723120696E697469616C697A696E04
:102E950067206661696C6564200A0054696D657216
:102EA5003320696E697469616C697A696E6720732C
:102EB500756363656564200A0054696D6572332026
:102EC500696E697469616C697A696E6720666169A2
:102ED5006C6564200A0054696D65723420696E69F9
:102EE5007469616C697A696E67207375636365657A
:102EF50064200A0054696D65723420696E697469CD
:102F0500616C697A696E67206661696C6564200A1F
:012F150000BB
:1032C6004104110241041202420413000042041593
:1032D600000042040D000042040B000041041F00E0
:1032E60041040A004104100041040F004404170081
:0A32F60000000044041B000000006B
:10306E00E4900430F0900420F0A3F0A304F0E4A365
:10307E00F0A3F0900427F090042574A2F0A37440FE
:10308E00F0E4900428F0A3F0A304F0E4A3F0A3F07E
:10309E0090042F04F090042D74FFF0A37410F07FB1
:1030AE0001121BF8900430EFF070087BFF7A2E7936
:1030BE0065800A900430E07BFF7A2E798312456793
:1030CE007F03121BF8900430EFF070087BFF7A2E0E
:1030DE0079A0800A900430E07BFF7A2E79BE1245EB
:1030EE00677B017A0479287F04121BFE900430EF6F
:1030FE00F070087BFF7A2E79DB800A900430E07B3B
:08310E00FF7A2E79F9124567E2
:013116002296
:103FC900900411E0601EA3E0601AEF24FE600B0468
:103FD9007012900417ECF0A3EDF0AF0590041BEC00
:053FE900F0A3EFF0223F
:1044E900EF24FE600804700E900417800390041BEB
:0A44F900E0FEA3E0FF22E4FEFF2234
:1043AF00EF24FE600C047013900419ECF0A3EDF0F1
:0C43BF0022AF0590041DECF0A3EFF022EB
:10450300EF24FE600804700E900419800390041DCC
:0A451300E0FEA3E0FF22E4FEFF2219
:10453600EF24FE600A047010C28E900411800653A8
:09454600D1F79004127402F02276
:10432200EF24FE600D047014900411E07002D32299
:0D433200C322900412E07003D38001C32267
:10421600EF24FE600E047016900411E0B40102D380
:0F42260022C322900412E0B40103D38001C3220B
:10423500EF24FE600E047016900411E0B40202D360
:0F42450022C322900412E0B40203D38001C322EB
:10419800AE071243224018EF24FE600B047010D2C1
:1041A8008EE4900411F02243D108E4900412F02226
:0E46B800AE071242165005124198D322C322BB
:0946FE0090040DE0FEA3E0FF2290
:0947070090040BE0FEA3E0FF2288
:0647330090041FE0FF22CC
:0647390090040AE0FF22DB
:06473F00900410E0FF22CF
:0647450090040FE0FF22CA
:03001B00023C2E76
:103C2E00C0E0C0F0C083C082C0D075D000C000C05C
:103C3E0006900413E475F001120CABFED390041839
:103C4E00E095F0900417E09E500EC28E900413E49F
:103C5E00F0A3F090041104F0D006D000D0D0D082A2
:073C6E00D083D0F0D0E0325A
:03009B00023BE63F
:103BE600C0E0C0F0C083C082C0D075D000C000C0A5
:103BF60006900415E475F001120CABFED390041C7C
:103C0600E095F090041BE09E500F53D1F7900415F9
:103C1600E4F0A3F090041204F0D006D000D0D0D087
:083C260082D083D0F0D0E0321F
:0300A300023557CC
:10355700C0E0C0F0C083C082C0D075D000C000C03A
:1035670006C2AF90040DE475F00A120CABFEC3E57A
:10357700F094E8EE9403405190040DE4F0A3F0902A
:10358700040B75F001120CABFEC3E5F094E8EE9462
:1035970003403690040BE4F0A3F090041FE004F01E
:1035A700943C4025E4F090040AE004F0943C401970
:1035B700E4F0900410E004F09418400DE4F0900457
:1035C7000FE004F0B4FF02E4F0D2AFD006D000D091
:0A35D700D0D082D083D0F0D0E032D3
:061BF8007B017A04792054
:101BFE00AD07EDD3940440037F0122ED7073120BF9
:101C0E00CAFED3940340037F0222C28CC2A9C2B97A
:101C1E005389F0538E7F538FFE900002120BE3B464
:101C2E000102D2A9900001120BE3B40102D2B9EE67
:101C3E004289900003120BE3FF7003438E80EFB4D2
:101C4E000203438904900004120BE3B40103438F93
:101C5E0001900005120CC1E5F0F58C900005120CF8
:101C6E00C1F58A900007120BE3B40102D28C7F00FB
:101C7E0022ED64017076120BCAFEC3940340037FFB
:101C8E000222C28EC2ABC2BB53890F538EBF538F7B
:101C9E00FD900002120BE3B40102D2AB90000112D0
:101CAE000BE3B40102D2BBEEC454F04289900003A0
:101CBE00120BE3FF7003438E40EFB40203438940DF
:101CCE00900004120BE3B40103438F02900005123F
:101CDE000CC1E5F0F58D900005120CC1F58B90004E
:101CEE0007120BE3B40102D28E7F0022ED64027064
:101CFE0063900003120BE3FED3940240037F022293
:101D0E00538EE353AFFB538FFB900002120BE3B4E1
:101D1E00010343AF04EE7003438E04900003120BD5
:101D2E00E3B40203438E08900004120BE3B40103E4
:101D3E00438F04900005120CC1E5F0F5D690000516
:101D4E00120CC1F5D7900007120BE3B40103438EBA
:101D5E00107F0022ED64037060900003120BE3FE0F
:101D6E00D3940240037F022253D1F053AFDF900091
:101D7E0002120BE3B4010343AF20EE700343D10212
:101D8E00900003120BE3B4020343D1069000041239
:101D9E000BE3B4010343D101900005120CC1E5F031
:101DAE00F5D4900005120CC1F5D5900007120BE387
:101DBE00B4010343D1087F0022ED6404705C9000EF
:101DCE0003120BE3FED3940240037F022253D10F82
:101DDE0053AFBF900002120BE3B4010343AF40EECA
:101DEE00700343D120900003120BE3B4020343D1DE
:101DFE0060900004120BE3B4010343D11090000570
:101E0E00120CC1FDACF0ECF5D28DD3900007120B85
:0D1E1E00E3B4010343D1807F00227F022244
:100F200090042EEBF0A3EAF0A3E9F090042DEFF08B
:100F30006401600302113290000004F0E4A3F0A306
:100F4000F0A3F0A3F0A3F0A3F0900431F0900431EB
:100F5000E0FFC39480501474382FF582E43401F517
:100F600083E4F0900431E004F080E2E4900431F096
:100F7000900431E0FFC394805014741C2FF582E478
:100F80003400F583E4F0900431E004F080E2900452
:100F90002EE0FBA3E0FAA3E0F9120BCAD394C04001
:100FA000037F022290000A120BE3B40104D2BC803A
:100FB00002C2BC120BCAFFE598543F4FF598EF648C
:100FC000C06008EF644060030210AC900002120E93
:100FD000487F807E8D7D5B7C00120D8490043212F0
:100FE0000EADE4FFFE7D01FC900432E0F8A3E0F9D1
:100FF000A3E0FAA3E0FBC3120E2440037F02229079
:101000000432E0F8A3E0F9A3E0FAA3E0FBC3E49B19
:10101000FFE49AFE740199FDE498FC900432120EEC
:10102000AD90042EE0FBA3E0FAA3E0F990000112DA
:101030000BE3FB64017038C28E538EFE5389BF539D
:1010400089CF438E40900432E0FCA3E0FDA3E0FE94
:10105000A3E0FF7808120E358F8D900432A3A3A36E
:10106000E0F58BC2AB5389BF538FFDD28E8076EBF8
:1010700064027035538EEF438E01538EF7438E0416
:10108000900432E0FCA3E0FDA3E0FEA3E0FF7808BB
:10109000120E358FD6900432A3A3A3E0F5D753AF39
:1010A000FB538EF7438E10803C7F022290042EE08B
:1010B000FBA3E0FAA3E0F9120BCAFF70139000083B
:1010C000120BE3B40105438E20801A538EDF801586
:1010D000EFB48011900008120BE3B4010543878040
:1010E000800353877F90042EE0FBA3E0FAA3E0F98E
:1010F000900009120BE3B40104D2AC8002C2AC90A0
:101100000007120BE3B40104D29C8002C29C900041
:101110000B120BE354C0FFE5A2543F4FF5A2900021
:101120000C120BE3B4010543971080035397EF7F34
:10113000002290042DE064026003021294900007E4
:101140007402F0E4A3F0A3F0A3F0A3F0A3F0A3F0E3
:10115000900431F0900431E0FFC39480501474D4B3
:101160002FF582E43401F583E4F0900431E004F0DB
:1011700080E2E4900431F0900431E0FFC3948050A9
:1011800014749C2FF582E43400F583E4F09004316C
:10119000E004F080E290042EE0FBA3E0FAA3E0F983
:1011A000120BCAFF64C06008EF644060030212546F
:1011B00090000A120BE3B4010543B501800353B557
:1011C000FE120BCAB4C005439A808003539A7F90E5
:1011D0000002120E487F807E8D7D5B7C00120D84A4
:1011E000900432120EADE4FFFE7D01FC900432E06B
:1011F000F8A3E0F9A3E0FAA3E0FBC3120E24400336
:101200007F0222900432E0F8A3E0F9A3E0FAA3E021
:10121000FBC3E49BFFE49AFE740199FDE498FC9003
:101220000432120EAD538EEF538EF7438E049004AA
:1012300032E0FCA3E0FDA3E0FEA3E0FF7808120E7D
:10124000358FD6900432A3A3A3E0F5D753AFFB4369
:101250008E1080037F022290042EE0FBA3E0FAA30D
:10126000E0F9900009120BE3B4010543AF018003DC
:1012700053AFFE900007120BE3B40105439A1080B0
:1012800003539AEF90000B120BE35401FFE5BA549D
:10129000FE4FF5BA90042DE06403600302144790FA
:1012A000000E7402F0E4A3F0A3F0A3F0A3F0A3F007
:1012B000A3F0900431F0900431E0FFC3941C50146B
:1012C00074542FF582E43402F583E4F0900431E0A5
:1012D00004F080E2E4900431F0900431E0FFC39424
:1012E0001C5014741C2FF582E43401F583E4F09053
:1012F0000431E004F080E290042EE0FBA3E0FAA3C6
:10130000E0F9120BCAFF64C06008EF64406003029A
:10131000140753ACDFEFB4C00543AC80800353AC7B
:101320007F90042EE0FBA3E0FAA3E0F99000021204
:101330000E487F807E8D7D5B7C00120D8490043290
:10134000120EADE4FFFE7D01FC900432E0F8A3E054
:10135000F9A3E0FAA3E0FBC3120E2440037F0222AC
:10136000900432E0F8A3E0F9A3E0FAA3E0FBC3E4C1
:101370009BFFE49AFE740199FDE498FC90043212FC
:101380000EAD90042EE0FBA3E0FAA3E0F99000017B
:10139000120BE3FB6402703253ACBF538EEF538EDB
:1013A000F7438E04900432E0FCA3E0FDA3E0FEA32B
:1013B000E0FF7808120E358FD6900432A3A3A3E085
:1013C000F5D753AFFB438E108040EB64017035437B
:1013D000AC4053D1F053AFDF43D10253D1FB53D1D3
:1013E000FE900432E0FCA3E0FDA3E0FEA3E0FF7862
:1013F00008120E358FD4900432A3A3A3E0F5D54391
:10140000D10880067F02227F022290042EE0FBA3F7
:10141000E0FAA3E0F9900009120BE3B4010543AF31
:1014200008800353AFF7900007120BE3B4010543A4
:10143000AC10800353ACEF90000B120BE35402FF8F
:10144000E5BA54FD0215F790042DE0640460030230
:1014500015FD9000157402F0E4A3F0A3F0A3F0A32F
:10146000F0A3F0A3F0900431F0900431E0FFC394B6
:101470001C501474702FF582E43402F583E4F0906C
:101480000431E004F080E2E4900431F0900431E0B3
:10149000FFC3941C501474B82FF582E43401F58313
:1014A000E4F0900431E004F080E290042EE0FBA32D
:1014B000E0FAA3E0F9120BCAFF64C06008EF6440D1
:1014C00060030215BA5384DFEFB4C0054384808003
:1014D0000353847F90042EE0FBA3E0FAA3E0F9908D
:1014E0000002120E487F807E8D7D5B7C00120D8491
:1014F000900432120EADE4FFFE7D01FC900432E058
:10150000F8A3E0F9A3E0FAA3E0FBC3120E24400322
:101510007F0222900432E0F8A3E0F9A3E0FAA3E00E
:10152000FBC3E49BFFE49AFE740199FDE498FC90F0
:101530000432120EAD90042EE0FBA3E0FAA3E0F912
:10154000900001120BE3FB640270325384BF538E90
:10155000EF538EF7438E04900432E0FCA3E0FDA32A
:10156000E0FEA3E0FF7808120E358FD6900432A378
:10157000A3A3E0F5D753AFFB438E108040EB64028A
:10158000703543844053D10F53AFBF43D12053D163
:10159000BF53D1EF900432E0FCA3E0FDA3E0FEA333
:1015A000E0FF7808120E358FD2900432A3A3A3E097
:1015B000F5D343D18080067F02227F022290042E41
:1015C000E0FBA3E0FAA3E0F9900009120BE3B401F9
:1015D0000543AF10800353AFEF900007120BE3B445
:1015E000010543841080035384EF90000B120BE33A
:0F15F0005404FFE5BA54FB4FF5BA7F00227F0386
:0115FF0022C9
:103F7D00900002E02438F582E43401F583EFF090EF
:103F8D000002E004F0C394804002E4F0900003E0EE
:073F9D00700404F0D2992228
:103F0500900009E024D4F582E43401F583EFF090C4
:103F15000009E004F0C394804002E4F090000AE058
:083F2500700504F0439A02222A
:103F2D00900010E02454F582E43402F583EFF09014
:103F3D000010E004F0C3941C4002E4F0900011E086
:083F4D00700504F043AC0222F0
:103F5500900017E02470F582E43402F583EFF090C9
:103F65000017E004F0C3941C4002E4F0900018E050
:083F7500700504F043840222F0
:10456700C2AF120BCAFF600C123F7D740129F9E438
:074577003AFA80EED2AF22F8
:1045A500120BCAFF600C123F05740129F9E43AFAAF
:0345B50080EE2273
:1045B800120BCAFF600C123F2D740129F9E43AFA74
:0345C80080EE2260
:1045CB00120BCAFF600C123F55740129F9E43AFA39
:0345DB0080EE224D
:0300230002377031
:10377000C0E0C083C082C0D075D000C006C0073092
:10378000982DC298900006E07025900004E0C39444
:10379000804002E4F0900004E0FF04F0741C2FF578
:1037A00082E43400F583E599F09000057405F0306B
:1037B0009930C299900002E0FF900001E0FE6F6036
:1037C0001C74382EF582E43401F583E0F5999000FD
:1037D00001E004F0C394804009E4F0800590000308
:0F37E000E4F0D007D006D0D0D082D083D0E03232
:030043000235E1A2
:1035E100C0E0C083C082C0D075D000C006C007E56E
:1035F1009A30E02E539AFE90000DE0702590000B5A
:10360100E0C394804002E4F090000BE0FF04F0740A
:103611009C2FF582E43400F583E59BF090000C7457
:1036210005F0E59A30E131539AFD900009E0FF90F1
:103631000008E0FE6F601C74D42EF582E43401F5BD
:1036410083E0F59B900008E004F0C394804009E416
:10365100F0800590000AE4F0D007D006D0D0D082E7
:05366100D083D0E0322F
:03008B00023666D4
:10366600C0E0C083C082C0D075D000C006C007E5E8
:10367600AC30E02E53ACFE900014E07025900012A2
:10368600E0C3941C4002E4F0900012E0FF04F074E2
:103696001C2FF582E43401F583E5ADF09000137438
:1036A60005F0E5AC30E13153ACFD900010E0FF9041
:1036B600000FE0FE6F601C74542EF582E43402F5B0
:1036C60083E0F5AD90000FE004F0C3941C4009E4DC
:1036D600F08005900011E4F0D007D006D0D0D0825B
:0536E600D083D0E032AA
:030093000236EB47
:1036EB00C0E0C083C082C0D075D000C006C007E563
:1036FB008430E02E5384FE90001BE070259000195F
:10370B00E0C3941C4002E4F0900019E0FF04F07455
:10371B00B82FF582E43401F583E585F090001A7437
:10372B0005F0E58430E1315384FD900017E0FF9004
:10373B000016E0FE6F601C74542EF582E43402F523
:10374B0083E0F585900016E004F0C3941C4009E477
:10375B00F08005900018E4F0D007D006D0D0D082CE
:05376B00D083D0E03224
:0E46C600E4F5C7F5C5F5C675C3FF75C4FF2240
:103CFC00AD07AC06C2AF75C78075C501ECF5C3AF97
:103D0C00058FC475C65A75C6A500E5C2120C100DF8
:103D1C00BD00010C740129F9E43AFA9004D074FF47
:0F3D2C00F5F0120CAB45F070D31246C6D2AF22A1
:1041B800AD07AC06C2AFECF5C3AF058FC475C780B9
:1041C80075C50375C65A75C6A5001246C6D2AF2274
:103D3B00AD07AC06C2AF75C78075C502ECF5C3AF56
:103D4B00058FC4120BCAF5C275C65A75C6A5000DF0
:103D5B00BD00010C740129F9E43AFA9004D774FF01
:0F3D6B00F5F0120CAB45F070D31246C6D2AF2262
:10080000020BB5E86480F8E933E83360110460F066
:10081000ED33EC337009E8FCE9FDEAFEEBFF22045E
:1008200060DED3EB9FEA9EE99DE8C2E78CF0C2F759
:1008300095F0400CE8CCF8E9CDF9EACEFAEBCFFB25
:10084000120B8085D0F05804700320D5B3E80470F3
:10085000075002B2D5020BBF92D5EC0460F7E4CC8E
:10086000C0E0C398F8603B94186008400DD0E0FBEE
:10087000020B97E4FBFAC9FC8028E830E406E4C9DF
:10088000FBE4CAFCE830E305E4C9CACBFCE8540742
:100890006010F8C3E913F9EA13FAEB13FBEC13FC4D
:1008A000D8F130F52FC3E49CFCEF9BFFEE9AFEEDF0
:1008B00099FDD0E0FBEF4E4D4C701222DB03020B92
:1008C000BCEC2CFCEF33FFEE33FEED33FDED30E7F7
:1008D000EB020B97EF2BFFEE3AFEED39FDD0E0FB7C
:1008E00050130BBB0003020BBFED13FDEE13FEEF25
:0808F00013FFEC13FC020B974F
:1008F800EC4D6011E8497017ED33EC3304600DE4FA
:10090800FCFFFEFD22E933E8330470F8020BB51250
:100918000B8058046009E4CC248150062850090251
:100928000BBF284003020BBCC0E0EB4A7044B980FF
:1009380006D0E0FB020BABEF4E701CBD8008EBFF4E
:10094800EAFEE9FD80EBE98DF0A4FEE5F00209E19D
:10095800E9CDF9EAFEEBFFEF89F0A4FCE5F0CE89DA
:10096800F0A42EFFE435F0CD89F0A42DFEE435F097
:100978008067EF4E7005BD80D780C3EF8BF0A4ACC5
:10098800F0EE8BF0A42CFCE435F0F8EF8AF0A42C00
:10099800E5F038FCE433CB8DF0A42CFCE5F03BF813
:1009A800EE8AF0A42CFCE5F038F8E433CF89F0A403
:1009B8002CFCE5F038CF3400CE89F0A42FFFE5F009
:1009C8003EFEE433C98DF0A42EFEE5F039CD8AF061
:1009D800A42FFFE5F03EFEE43DFD33D0E0FB5007D9
:1009E8000BBB000F020BBFEC2CFCEF33FFEE33FE0A
:0609F800ED33FD020B9738
:1009FE00020BBFEC5D046005E859047003020BB5F1
:100A0E00120B80580460F6EC4860F2EC7004FDFEA8
:100A1E00FF22C860DB2481C85009C39860025006CB
:100A2E00020BBC9850CAF582E9294B4A7005AB827D
:100A3E00020BAB75F0007C1A7880C3EF9BEE9AED3B
:100A4E0099400DC3EF9BFFEE9AFEED99FDE842F043
:100A5E00DC23ACF0D0E0FFD0E0FED0E0FDAB822096
:100A6E00E7101BEB60BAEC2CFCEF33FFEE33FEED20
:100A7E0033FD020B97E803F830E705C0F075F00080
:100A8E00EF2FFFEE33FEED33FD40B830E7C280AA04
:100A9E0074F8CC6480CCC86480C8F582046043C30B
:100AAE00EB9FF5F0EA9E42F0E99D42F0E89C45F09E
:100ABE0060305018E5825FFFE582F42B5582FB50C3
:100ACE00210ABA001D09B90019088016E5825BFBE0
:100ADE00E582F42F5582FF50090EBE00050DBD00B4
:100AEE00010CC3EB9FF5F0EA9E42F0E99D42F0E85F
:0D0AFE009C45F06007CC4820E701B3EC22D6
:100B0B0075F020800E75F010800575F0087D007E65
:100B1B00007F003392D530D503120E16EC33401004
:100B2B00EF33FFEE33FEED33FDEC33FCD5F0ED226E
:0E0B3B00E5F0247EA2D513CC92E7CDCEFF22AA
:100B4900EDD2E7CD33EC3392D524814006E4FFFEA4
:100B5900FDFC22FCE4CFCECDCC24E0501174FF8003
:100B6900EDC3CC13CCCD13CDCE13CECF13CF0470A0
:070B7900F030D5DE020E167C
:100B8000E9D2E7C933E833F892D5EDD2E7CD33ECBB
:070B900033FC5002B2D52234
:100B9700EC30E7100FBF000C0EBE00080DBD0004BF
:100BA7000BEB6014A2D5EB13FCED92E7FD2274FF6B
:100BB700FCFDFEFF22E480F8A2D574FF13FC7D80C4
:030BC700E480EFD8
:030000000234CBFC
:0C34CB00787FE4F6D8FD758121023512EF
:100BCA00BB010689828A83E0225002E722BBFE0229
:090BDA00E32289828A83E493225C
:100BE300BB010CE58229F582E5833AF583E02250C7
:100BF30006E92582F8E622BBFE06E92582F8E22211
:0D0C0300E58229F582E5833AF583E493222A
:100C1000BB010689828A83F0225002F722BBFE01C3
:020C2000F322BD
:100C2200F8BB010DE58229F582E5833AF583E8F008
:100C3200225006E92582C8F622BBFE05E92582C8B4
:020C4200F2229C
:100C4400EF8DF0A4A8F0CF8CF0A428CE8DF0A42EC4
:020C5400FE227E
:100C5600BC000BBE0029EF8DF084FFADF022E4CC82
:100C6600F875F008EF2FFFEE33FEEC33FCEE9DEC4B
:100C7600984005FCEE9DFE0FD5F0E9E4CEFD22ED91
:100C8600F8F5F0EE8420D21CFEADF075F008EF2FDB
:100C9600FFED33FD4007985006D5F0F222C398FDCC
:050CA6000FD5F0EA2269
:100CAB00C5F0F8A3E028F0C5F0F8E58215827002D4
:060CBB001583E038F02271
:100CC100BB0110E58229F582E5833AF583E0F5F071
:100CD100A3E0225009E92582F886F008E622BBFE4E
:100CE1000AE92582F8E2F5F008E222E5832AF58394
:080CF100E993F5F0A3E9932259
:100CF900E88FF0A4CC8BF0A42CFCE98EF0A42CFC9A
:100D09008AF0EDA42CFCEA8EF0A4CDA8F08BF0A417
:100D19002DCC3825F0FDE98FF0A42CCD35F0FCEB76
:100D29008EF0A4FEA9F0EB8FF0A4CFC5F02ECD393B
:0F0D3900FEE43CFCEAA42DCE35F0FDE43CFC22A8
:100D480075F008758200EF2FFFEE33FECD33CDCC62
:100D580033CCC58233C5829BED9AEC99E5829840E5
:100D68000CF582EE9BFEED9AFDEC99FC0FD5F0D6C2
:100D7800E4CEFBE4CDFAE4CCF9A88222B800C1B9EC
:100D88000059BA002DEC8BF084CFCECDFCE5F0CB2A
:100D9800F97818EF2FFFEE33FEED33FDEC33FCEB63
:100DA80033FB10D703994004EB99FB0FD8E5E4F91E
:100DB800FA227818EF2FFFEE33FEED33FDEC33FC0B
:100DC800C933C910D7059BE99A4007EC9BFCE99AFF
:100DD800F90FD8E0E4C9FAE4CCFB2275F010EF2F44
:100DE800FFEE33FEED33FDCC33CCC833C810D70744
:100DF8009BEC9AE899400AED9BFDEC9AFCE899F87F
:0E0E08000FD5F0DAE4CDFBE4CCFAE4C8F92211
:103C7500C2D5E830E70FB2D5E4C39BFBE49AFAE47A
:103C850099F9E498F8EC30E717B2D5123CAB120D70
:103C950084E4C39BFBE49AFAE499F9E498F8800379
:103CA500120D8430D50DE4C39FFFE49EFEE49DFD17
:043CB500E49CFC226D
:0E0E1600C3E49FFFE49EFEE49DFDE49CFC22ED
:100E2400EB9FF5F0EA9E42F0E99D42F0E89C45F024
:010E3400229B
:100E3500E8600FECC313FCED13FDEE13FEEF13FF9B
:030E4500D8F122BF
:100E4800BB010DE58229F582E5833AF583020EF7A9
:100E58005007E92582F8020EEABBFE07E92582F869
:100E6800020F03E58229F582E5833AF583020F1024
:100E78007401FF3395E0FEFDFCA3A3A3E0CF2FF0A0
:100E8800E582158270021583E0CE3EF0E582158278
:100E980070021583E0CD3DF0E5821582700215835E
:050EA800E0CC3CF0224B
:0C0EAD00ECF0A3EDF0A3EEF0A3EFF022B8
:100EB900A8828583F0D083D082120ED0120ED01270
:100EC9000ED0120ED0E473E493A3C583C5F0C58395
:100ED900C8C582C8F0A3C583C5F0C583C8C582C883
:010EE90022E6
:1034D700022671E493A3F8E493A34003F68001F274
:1034E70008DFF48029E493A3F85407240CC8C333F6
:1034F700C4540F4420C8834004F456800146F6DFC5
:10350700E4800B010204081020408090325FE47EC3
:10351700019360BCA3FF543F30E509541FFEE493B9
:10352700A360010ECF54C025E060A840B8E493A380
:10353700FAE493A3F8E493A3C8C582C8CAC583CAAB
:10354700F0A3C8C582C8CAC583CADFE9DEE780BE63
:0133000000CC
:0D0EEA00E6FB08E6F908E6FA08E6CBF82278
:0C0EF700E0F8A3E0F9A3E0FAA3E0FB227E
:0D0F0300E2FB08E2F908E2FA08E2CBF8226E
:100F1000E493F8740193F9740293FA740393FB2237
:00000001FF
